:020000040800F2
:100000000000022041050008D5020008D7020008C0
:10001000D9020008DB020008DD0200080000000031
:10002000000000000000000000000000DF020008E7
:10003000E102000800000000E3020008E5020008F9
:100040008D0500088D0500088D0500088D05000848
:100050008D0500088D0500086D0200084D0200089E
:100060008D0500088D0500088D0500088D05000828
:100070008D0500088D0500088D0500088D05000818
:100080008D0500088D0500088D05000800000000A2
:100090000000000000000000000000008D050008C6
:1000A0008D0500088D0500088D0500088D050008E8
:1000B000210200088D0500088D0500088D05000847
:1000C0008D0500088D0500088D0500088D050008C8
:1000D0008D050008950200088D050008000000004D
:1000E0008D0500088D0500088D0500080000000042
:1000F0000000000000000000000000008D05000866
:10010000000000008D0500088D0500088D05000821
:1001100000000000000000000000000000000000DF
:100120008D0500088D0500088D0500088D05000867
:100130008D05000800000000000000000000000025
:100140000000000000000000000000008D05000815
:100150008D0500088D0500088D0500088D05000837
:100160008D0500088D05000800000000000000005B
:10017000000000000000000000000000000000007F
:10018000000000008D0500080000000000000000D5
:080190008D0500088D05000833
:1001980010B5054C237833B9044B13B10448AFF3B9
:1001A80000800123237010BD000000200000000023
:1001B800D805000808B5034B1BB103490348AFF342
:1001C800008008BD0000000004000020D8050008D9
:1001D800002106E000BF013340F6FE729342F9D9D0
:1001E8000131814201D20023F6E7704700B585B09E
:1001F8000022029204230193009202236421082022
:1002080000F06EF800F018F900F01EF900F040F95F
:100218006F2000F083F9FEE708B54FF470410648F7
:1002280000F02CF9054A136823F001031360044B0E
:100238004FF080521A6008BD000C024010000040C8
:1002480080E200E008B540F6FF70FFF7C1FF034BFE
:1002580002221A60024B80221A6008BD143C014039
:1002680080E200E008B54FF40041054800F006F9C7
:10027800044B01221A60044B40221A6008BD00BFDB
:10028800000C0240143C014080E200E082B00C4BBC
:100298001B6803F040030193019B23B1084A1368CC
:1002A80023F040031360064B1B6803F020030193FF
:1002B800019B1BB1034B1A78034B1A7002B07047AD
:1002C80000100140041001401C0000207047FEE7A8
:1002D800FEE7FEE7FEE7704770477047704700008B
:1002E80070B483B04F4C0025256038344FF48045F6
:1002F8002560043C4FF0805525604B4D2C6824F454
:1003080040440194019C44F440440194019C2C60B5
:10031800464C256825F480250195019D0195019D90
:10032800256025F080750195019D256040F6FF75D3
:100338000095009D013D00953D4D03262E60A5F5D5
:100348007F752E6826F03F060196019E3043019086
:100358000198286020F4FF4020F0400001900198A7
:1003680040EA811101910199296021F440310191FC
:10037800019941EA02420192019A2A60226822F018
:1003880080720192019A42F080720192019A226071
:100398004FF6FF720092009A013A0092254A1168BE
:1003A80021F0F00101910199069841EA00110191AB
:1003B8000199116021F4E0510191019941F4E05152
:1003C80001910199116021F460410191019941F471
:1003D800604101910199116021F003010191019996
:1003E8000B430193019B13606FF07F430093009BC5
:1003F800013B0093136823F4E0530193019B079991
:1004080043EA81230193019B136023F46043019322
:10041800019B089943EA81230193019B136003B070
:1004280070BC70470C380240007000400038024031
:10043800003C024008380240024A136843F08A032D
:1004480013607047303802400B4A136823F07F432B
:1004580043F0AA4313600432136823F47043136013
:100468000832136823F07F431360043A136843F09B
:100478007F431360704700BF000C0240436923F0BC
:10048800FF021B0403F47F031343DB4383617047BC
:100498001B4A136843F0010313601A4A136823F4D4
:1004A800404343F400431360174A136823F0FF03E3
:1004B80043F040031360A2F54772136843F080537A
:1004C80013604FF08042136823F45C7323F0010338
:1004D80013600E4B40F2CF721A60043B4CF250325C
:1004E8001A600B4A136843F001031360103A13684B
:1004F80023F070031360074A074B1A6062B670470F
:1005080040380240007000401CE400E02C0000402D
:10051800140000400830FFFF08000040054A136837
:1005280043F0010313604FF08042136843F0010366
:10053800136070470C000040DFF830D0002103E062
:100548000B4B5B58435004310A480B4B42189A42F4
:10055800F6D30A4A02E0002342F8043B084B9A42C9
:10056800F9D300F011F8FFF741FE704700000220B0
:10057800F80500080000002000000020000000200E
:1005880020000020FEE7000070B50D4E0D4CA41BA6
:10059800A4100025A54209D10B4E0C4C00F018F808
:1005A800A41BA4100025A54205D170BD56F825301E
:1005B80098470135EEE756F8253098470135F2E7B8
:1005C800F0050008F0050008F0050008F40500082B
:1005D800F8B500BFF8BC08BC9E467047F8B500BF28
:0805E800F8BC08BC9E467047F8
:0405F000BD01000841
:0405F4009901000861
:0400000508000541A9
:00000001FF
