:020000040800F2
:1000000000000220C51F000817030008190300089C
:100010001B0300081D0300081F0300080000000068
:10002000000000000000000000000000B10800080F
:10003000210300080000000051090008B50900086C
:1000400011200008112000081120000811200008CC
:1000500011200008112000081120000811200008BC
:1000600011200008112000081120000811200008AC
:10007000112000081120000811200008112000089C
:1000800011200008112000081120000800000000C5
:100090000000000000000000000000001120000827
:1000A000112000081120000811200008112000086C
:1000B000112000081120000811200008112000085C
:1000C000112000081120000811200008112000084C
:1000D000112000081503000811200008000000008E
:1000E0001120000811200008112000080000000065
:1000F00000000000000000000000000011200008C7
:100100000000000011200008112000081120000844
:1001100000000000000000000000000000000000DF
:1001200011200008112000081120000811200008EB
:100130001120000800000000000000000000000086
:100140000000000000000000000000001120000876
:1001500011200008112000081120000811200008BB
:10016000112000081120000800000000000000001D
:10017000000000000000000000000000000000007F
:100180000000000011200008000000000000000036
:080190001120000811200008F5
:1001A00010B5054C237833B9044B13B10448AFF3B1
:1001B00000800123237010BD040000200000000017
:1001C0008420000808B5034B1BB103490348AFF373
:1001D000008008BD00000000080000208420000806
:1001E00008B54FF48051044800F0F9F84FF47A70E4
:1001F00001F032FBF5E700BF000C024008B54FF4F8
:100200000051084800F0EBF8074B4FF080521A609D
:10021000BFF34F8FBFF36F8F4FF47A7001F01CFB69
:10022000EDE700BF000C024004ED00E07047FEE780
:10023000FEE70000024A136843F08A031360704728
:100240003038024008B5084A136843F06003136071
:10025000064B074A1A600521252000F062F8252088
:1002600000F06EF862B608BD0C1001400CED00E025
:100270000003FA0570B586B04FF470430093012572
:1002800001950024029403940226049669460748C7
:1002900000F063F800950196029403940496059586
:1002A0006946034800F059F806B070BD000C0240E2
:1002B0000000024000B585B000240294042301939D
:1002C000009402230122C821082000F08DF8FFF7D6
:1002D000B1FFFFF7CFFFFFF7B5FF019401250095B0
:1002E000234680220749084801F02EF90194009521
:1002F000234680220549064801F026F901F056F907
:10030000FEE700BF9C200008E1010008A8200008CB
:10031000FD01000870477047FEE7FEE7FEE7FEE7D5
:1003200070470901830803F1605303F564539B0090
:100330001A680011800001FA00F01043186070473D
:10034000430903F1382340339B00196800F01F0272
:100350000120904008431860704700230F2B3DD8C0
:10036000F0B410E000F12006356803F007029400B5
:100370000F22A24025EA02054A69A2402A433260C0
:1003800001330F2B28D80A6801249C402242F7D061
:1003900005685E000322B240D24305EA02074D68B9
:1003A000B5403D430560456825EA04048D689D40DD
:1003B00025434560C56802EA0504CD68B54025437C
:1003C000C560846822400C69B44022438260072BD8
:1003D000C8D900F12406C7E7F0BC704770474369ED
:1003E000594041617047000030B482B06D4D2C68B7
:1003F0000194019C44F470040194019C2C606A4CAB
:100400000025256038344FF480452560043C4FF0CA
:1004100080552560654D2C6824F440440194019C6E
:1004200044F440440194019C2C6005F5E4352C68AB
:1004300024F480240194019C0194019C2C6024F4F8
:1004400080340194019C44F480340194019C2C601C
:10045000FF240094009C013C0094554C246814F443
:10046000003F02D1009D002DF4D124F0807401944E
:10047000019D4F4C256040F6FF740094009C013CA8
:1004800000944B4C246814F0007F02D0009C002C98
:10049000F4D1484C03252560A4F57F74256825F028
:1004A0003F050195019D284301900198206020F4AB
:1004B000FF4020F040000190019840EA8111019135
:1004C0000199216021F440310191019941EA0242F0
:1004D0000192019A226036490A6822F080720192E4
:1004E000019A42F080720192019A0A604FF6FF72FF
:1004F0000092009A013A00922D4A126812F0007F91
:1005000002D1009A002AF4D12B4A116821F0F0019F
:1005100001910199049841EA00110191019911603A
:1005200021F4E0510191019941F4E05101910199C7
:10053000116021F460410191019941F46041019100
:100540000199116021F00301019101991943019171
:10055000019911606FF07F420092009A013A009277
:10056000154A126802F00C01B1EB830F02D000991A
:100570000029F2D122F4E0520192019B059A43EA4C
:1005800082230193019B0C4A136023F4604301937F
:10059000019B069943EA81230193019B136002B0FA
:1005A00030BC704788ED00E00C380240007000401D
:1005B00000380240003C024008380240124A12F063
:1005C000070F1ED0D11D21F00701C1F5963313444A
:1005D0000A460E480260002141601344083B23F0A4
:1005E00007030B48036059601960991A5160136042
:1005F000084B1960084B1960084B4FF000421A6015
:1006000070474FF49633E4E724000020302C01209B
:10061000200000202C2C0120282C0120242C01203B
:1006200010B4134B1A6882421BD359685C18844279
:1006300003D1406801445960184641684418A242F9
:1006400013D10C4C2468A2420DD052681144416071
:100650001A6812680260984200D018605DF8044B76
:1006600070471346DEE70460F5E70260F3E700BF7A
:10067000302C01202000002070B5044600F0D8FF87
:100680003F4B1B68A3B13F4B1B681C4213D001F0CA
:1006900069F80026FFF7CCFD16F0070F6ED04FF07B
:1006A000500383F31188BFF36F8FBFF34F8FFEE7C3
:1006B000FFF784FFE7E794B1083414F0070F0ED07A
:1006C00024F00704083404F0070343B14FF050034B
:1006D00083F31188BFF36F8FBFF34F8FFEE734B101
:1006E000294B1B68A34206D3284B1D6809E001F083
:1006F00039F80026CEE701F035F80026CAE72B4688
:1007000015466A68A24202D22A68002AF7D11C4A1A
:100710001268AA4214D01E6808362A681A606B68EC
:100720001B1B102B14D9281910F0070F0CD04FF0F9
:10073000500383F31188BFF36F8FBFF34F8FFEE732
:1007400001F010F80026A5E743606C60FFF768FF32
:100750006A680D490B689B1A0B600D4909688B424A
:1007600001D20B490B60074B1B6813436B600023DE
:100770002B6000F0F7FF002E8ED18BE7304670BD66
:1007800020000020242C0120282C0120302C0120C6
:100790002C2C012080B338B50446A0F1080550F890
:1007A000042C164909680A4208D14FF0500383F31C
:1007B0001188BFF36F8FBFF34F8FFEE750F8080C1F
:1007C00040B14FF0500383F31188BFF36F8FBFF335
:1007D0004F8FFEE722EA010244F8042C00F028FFC4
:1007E00054F8041C064A13680B4413602846FFF7AC
:1007F00017FF00F0B7FF38BD704700BF242C012061
:10080000282C012082B0002301930D4B1B68B3F10B
:10081000FF3F08D04FF0500383F31188BFF36F8F71
:10082000BFF34F8FFEE74FF0500383F31188BFF300
:100830006F8FBFF34F8F019B002BFCD002B070472E
:100840000000002008480068006880F308884FF026
:10085000000080F3148862B661B6BFF34F8FBFF318
:100860006F8F00DF00BF000008ED00E0DFF80C0034
:10087000016841F4700101607047000088ED00E0FC
:100880004FF0807340F8043C21F0010140F8081C4F
:10089000054B40F80C3C40F8202C6FF0020340F868
:1008A000243C4438704700BF0508000800000000E1
:1008B000074B19680868B0E8F04F80F30988BFF368
:1008C0006F8F4FF0000080F311887047AFF3008006
:1008D000402C01204FF0500383F31188BFF36F8F3A
:1008E000BFF34F8F0A4A136801331360012B00D006
:1008F0007047084B1B6813F0FF0FF9D04FF05003FF
:1009000083F31188BFF36F8FBFF34F8FFEE700BFF4
:100910000000002004ED00E0094B1B6843B94FF0D4
:10092000500383F31188BFF36F8FBFF34F8FFEE740
:10093000013B034A13600BB983F31188704700BF72
:100940000000002000000000000000000000000087
:10095000EFF30980BFF36F8F154B1A681EF0100F6D
:1009600008BF20ED108A20E9F04F10602DE9090042
:100970004FF0500080F31188BFF34F8FBFF36F8F9C
:1009800000F090FF4FF0000080F3118809BC196857
:100990000868B0E8F04F1EF0100F08BFB0EC108AE6
:1009A00080F30988BFF36F8F704700BFAFF30080FB
:1009B000402C012008B54FF0500383F31188BFF39A
:1009C0006F8FBFF34F8F00F041FE18B1034B4FF014
:1009D00080521A60002383F3118808BD04ED00E003
:1009E000054B00221A6005490A60054A0549116055
:1009F00007221A60704700BF10E000E018E000E036
:100A000014E000E09F8601003A4B1A683A4B9A4284
:100A10000DD0384B1A68394B9A4211D14FF0500320
:100A200083F31188BFF36F8FBFF34F8FFEE74FF053
:100A3000500383F31188BFF36F8FBFF34F8FFEE72F
:100A400010B582B02E4B1A78D2B20192FF221A70E2
:100A50001B78DBB28DF803309DF8033003F05003B0
:100A6000284A1370284B07221A6009E0264A1368A7
:100A7000013B13609DF803305B00DBB28DF803305F
:100A80009DF8033013F0800FF0D11F4B1B68032B30
:100A900008D04FF0500383F31188BFF36F8FBFF37B
:100AA0004F8FFEE71B0203F4E063174A1360019BBC
:100AB000DBB2134A1370154B1A6842F470021A60C5
:100AC0001A6842F070421A60FFF78AFF0024104B48
:100AD0001C60FFF7CBFE0F4A136843F040431360DE
:100AE000FFF7B0FE00F0DEFEFFF78CFE204602B0FE
:100AF00010BD00BF00ED00E071C20F4170C20F4198
:100B000000E400E0382C01203C2C012020ED00E026
:100B10000000002034EF00E0EFF305830F2B0FD926
:100B2000104A9B5CDBB2104A12789A4208D94FF007
:100B3000500383F31188BFF36F8FBFF34F8FFEE72E
:100B40000A4B1B6803F4E063094A1268934208D910
:100B50004FF0500383F31188BFF36F8FBFF34F8FB4
:100B6000FEE77047F0E300E0382C01200CED00E0D8
:100B70003C2C012000F1080343604FF0FF328260FB
:100B8000C360036100230360704700230361704763
:100B900043684B609A688A609A68516099600861FE
:100BA000036801330360704730B40D68B5F1FF3F4F
:100BB00002D000F1080202E0026904E01A4653681C
:100BC0001C68AC42FAD953684B6099608A605160E6
:100BD000086103680133036030BC704703694268F1
:100BE000816891608268416851605A68824206D08B
:100BF000002202611A68013A1A6018687047826818
:100C00005A60F5E710B50446FFF764FEA26BE36B8C
:100C10009A4204D00024FFF77FFE204610BD012435
:100C2000F9E710B50446FFF755FEA36B23B1002486
:100C3000FFF772FE204610BD0124F9E770B50446A7
:100C40001646856B026C5AB903681BB1002001354A
:100C5000A56370BD406800F065FF00236360F6E7A0
:100C60006EB9806801F0FAF9226CA3681344A3609E
:100C70006268934219D32368A3600020E7E7C06845
:100C800001F0ECF9226C5242E3681344E3602168FE
:100C90008B4202D263681A44E260022E01D0002027
:100CA000D5E725B1013D0020D1E70020CFE70020A6
:100CB000CDE7026C72B110B5C3681344C3604468D9
:100CC000A34201D30368C3600C46C168204601F00B
:100CD000C5F910BD704738B50546FFF7FBFD95F81F
:100CE000454064B203E000F007FF013C64B2002C11
:100CF00008DD6B6A33B105F1240000F06BFE0028BB
:100D0000F3D0F0E7FF2385F84530FFF705FEFFF746
:100D1000E1FD95F8444064B203E000F0EDFE013CD3
:100D200064B2002C08DD2B6933B105F1100000F02E
:100D300051FE0028F3D0F0E7FF2385F84430FFF799
:100D4000EBFD38BD38B540B94FF0500383F311883F
:100D5000BFF36F8FBFF34F8FFEE704460D46FFF7DB
:100D6000B9FD2168E26B236C03FB02106060002078
:100D7000A063A160013A02FB0313E360FF2384F840
:100D8000443084F84530A5B923691BB9FFF7C4FD89
:100D9000012038BD04F1100000F01CFE0028F5D041
:100DA000084B4FF080521A60BFF34F8FBFF36F8F25
:100DB000ECE704F11000FFF7DDFE04F12400FFF77B
:100DC000D9FEE3E704ED00E038B51D46049C0B4670
:100DD00049B12260E063236401212046FFF7B2FF9E
:100DE00084F84C5038BD2460F4E740B94FF050030C
:100DF00083F31188BFF36F8FBFF34F8FFEE7F0B51A
:100E000083B0054611B101FB00F000E00020174659
:100E10000C465030FFF730FC064638B100903B4698
:100E200000F1500221462846FFF7CEFF304603B0BE
:100E3000F0BD0000F0B585B0019260B1044699B9EB
:100E4000026C8AB14FF0500383F31188BFF36F8FA8
:100E5000BFF34F8FFEE74FF0500383F31188BFF3CA
:100E60006F8FBFF34F8FFEE7022B0BD1E26B012A8E
:100E700008D04FF0500383F31188BFF36F8FBFF397
:100E80004F8FFEE71E460F4600F03CFE50B9019B17
:100E900053B14FF0500383F31188BFF36F8FBFF34B
:100EA0004F8FFEE700253AE0002538E0324639460C
:100EB0002046FFF7C3FE636A4BB9A8B13B4B4FF026
:100EC00080521A60BFF34F8FBFF36F8F0CE004F1B5
:100ED000240000F07FFD38B1344B4FF080521A608F
:100EE000BFF34F8FBFF36F8FFFF716FD012005B0E3
:100EF000F0BDFFF711FD0020F9E702A800F0B0FDFA
:100F0000012519E0002384F8443021E0002384F80F
:100F1000453023E02046FFF7DEFE00F023FCFFF71C
:100F2000D9FCA26BE36B9A42C0D3022EBED0019BC8
:100F3000002BDED0002DE0D0FFF7EEFC00F078FBB8
:100F4000FFF7C8FC94F844305BB2B3F1FF3FD9D04F
:100F500094F845305BB2B3F1FF3FD7D0FFF7DCFC2C
:100F600001A902A800F088FDC8B92046FFF74AFE93
:100F70000028CFD0019904F1100000F0F7FC2046C2
:100F8000FFF7A9FE00F0EEFB0028C8D1074B4FF099
:100F900080521A60BFF34F8FBFF36F8FBFE72046B9
:100FA000FFF799FE00F0DEFB0020A0E704ED00E073
:100FB0002DE9F84360B1044699B9006C88B14FF04F
:100FC000500383F31188BFF36F8FBFF34F8FFEE79A
:100FD0004FF0500383F31188BFF36F8FBFF34F8F30
:100FE000FEE7022B0BD1E06B012808D04FF0500335
:100FF00083F31188BFF36F8FBFF34F8FFEE71F4658
:1010000090468946FFF788FDEFF311864FF05003B5
:1010100083F31188BFF36F8FBFF34F8FA26BE36B26
:101020009A4203D3022F01D000200FE094F84550DC
:101030006DB23A4649462046FFF700FEB5F1FF3F44
:1010400008D06B1C5BB284F84530012086F3118810
:10105000BDE8F883636A5BB104F1240000F0BAFCD8
:1010600040B1B8F1000F07D00120C8F80000EDE74B
:101070000120EBE70120E9E70120E7E7F0B585B0C3
:10108000019260B1044699B9036C8BB14FF05003E3
:1010900083F31188BFF36F8FBFF34F8FFEE74FF0DD
:1010A000500383F31188BFF36F8FBFF34F8FFEE7B9
:1010B0000F4600F027FD50B9019B53B14FF050038C
:1010C00083F31188BFF36F8FBFF34F8FFEE70026C6
:1010D0003EE000263CE039462046FFF7EAFD013DB0
:1010E000A563236923B9FFF717FC012005B0F0BD04
:1010F00004F1100000F06EFC0028F4D0344B4FF0E7
:1011000080521A60BFF34F8FBFF36F8FEBE7FFF78B
:1011100003FC0020EAE702A800F0A2FC012621E07F
:10112000002384F8443029E0002384F845302BE084
:101130002046FFF7D0FD00F015FB09E02046FFF741
:10114000CAFD00F00FFB2046FFF76BFD00283DD1E4
:10115000FFF7C0FBA56B002DBDD1019B002BD6D0A6
:10116000002ED8D0FFF7D8FB00F062FAFFF7B2FBF1
:1011700094F844305BB2B3F1FF3FD1D094F84530DE
:101180005BB2B3F1FF3FCFD0FFF7C6FB01A902A8C6
:1011900000F072FC0028D1D12046FFF742FD002864
:1011A000C6D0019904F1240000F0E0FB2046FFF7CF
:1011B00092FD00F0D7FA0028CAD1054B4FF08052BB
:1011C0001A60BFF34F8FBFF36F8FC1E700208DE729
:1011D00004ED00E00023072B0CD8074A52F8332017
:1011E0000AB10133F7E7044A42F8331002EBC303B4
:1011F00058607047704700BF942D012070B50446B9
:101200000D461646FFF766FB94F844305BB2B3F127
:10121000FF3F0DD094F845305BB2B3F1FF3F0BD0E8
:10122000FFF77AFBA36B5BB12046FFF754FD70BD5F
:10123000002384F84430EDE7002384F84530EFE7DD
:101240003246294604F1240000F0A8FBECE7000038
:10125000084B1B681B683BB1064B1B68DB68DB68EF
:101260005A68054B1A607047034B4FF0FF321A6003
:10127000704700BF442C0120082D012010B5044602
:10128000006BFFF787FA2046FFF784FA10BD2DE9BF
:10129000F04781460D4617469A46089EDDF82480A1
:1012A0000A9C9200A521206B00F0E3FE236B07F15E
:1012B0008042013A03EB820727F007070023092B3E
:1012C00007D8E95CE21882F83410EA5C0AB101330D
:1012D000F5E7002384F83D30052E00D90526E662A7
:1012E000A6640025E564201DFFF74FFC04F11800FB
:1012F000FFF74BFC2461C6F10606A6616462256512
:1013000084F85450524649463846FFF7B9FA2060EF
:10131000B8F1000F01D0C8F80040BDE8F087000028
:1013200038B5002407E004EB840293000E4818440B
:10133000FFF720FC0134052CF5D90C4D2846FFF7AA
:1013400019FC0B4C2046FFF715FC0A48FFF712FC6E
:101350000948FFF70FFC0948FFF70CFC084B1D601C
:10136000084B1C6038BD00BF4C2C0120DC2C012038
:10137000F02C0120102D01203C2D0120282D0120D2
:10138000442C0120482C012010B50446FFF7A2FA96
:10139000214A136801331360204B1B685BB1204B5B
:1013A0001B686BB91D4B1B68DA6AE36A9A4207D85F
:1013B0001A4B1C6004E0194B1C601368012B27D0EA
:1013C000184A1368013313602364E36A01229A40C8
:1013D0001549086802430A6003EB83039A00211D44
:1013E00012481044FFF7D4FBFFF796FA0C4B1B682A
:1013F0006BB10A4B1B68DA6AE36A9A4207D20C4B5C
:101400004FF080521A60BFF34F8FBFF36F8F10BD44
:10141000FFF786FFD4E700BFC42C0120402C012039
:10142000242D0120D42C0120D82C01204C2C01206B
:1014300004ED00E00F4B1B68D3B110B5FFF74AFA7B
:101440000D4BDB68DC68201DFFF7C8FB0B4A1368F7
:10145000013B1360074A1368013B1360FFF75CFA16
:101460002046FFF70BFF034B1B68002BE6D110BD96
:10147000704700BFC82C01203C2D0120C42C012046
:1014800070B504460E461D4B1D681D4B1868043090
:10149000FFF7A4FB50B91A4B1B68DA6A012303FA61
:1014A00002F218490B6823EA02030B60B4F1FF3F14
:1014B00013D02C44124B1B685C60A54216D8124B0B
:1014C00018680F4B19680431FFF76EFB0F4B1B6850
:1014D000A34212D90D4B1C600FE0002EE9D0084B3F
:1014E000196804310A48FFF753FB06E0094B1868F6
:1014F000034B19680431FFF757FB70BD502D0120D5
:10150000402C0120D82C0120442C0120082D012042
:10151000282D0120482C012008B501E0FEF786FEA9
:10152000FFF788FF064B1B68012BF7D9054B4FF0DF
:1015300080521A60BFF34F8FBFF36F8FEEE700BF8B
:101540004C2C012004ED00E02DE9F04385B0074666
:101550008846154699469000FFF78EF8F8B1064682
:101560005820FFF789F80446A8B10663D4B10023D8
:10157000039302940D9B01930C9B00934B462A46C8
:1015800041463846FFF783FE2046FFF7FDFE012067
:1015900005B0BDE8F0833046FFF7FCF8E6E74FF012
:1015A000FF30F5E74FF0FF30F2E7000000B583B001
:1015B000194B019300230093822218491848FFF722
:1015C000C3FF012807D0012808D0B0F1FF3F1AD08F
:1015D00003B05DF804FB00F05FFBF4E74FF050034D
:1015E00083F31188BFF36F8FBFF34F8F0D4B4FF015
:1015F000FF321A600C4B01221A600C4B00221A6059
:10160000FFF702FAE4E74FF0500383F31188BFF3CA
:101610006F8FBFF34F8FFEE7042D0120B420000829
:1016200019150008082D0120242D0120502D01201E
:10163000024A136801331360704700BFD02C0120A9
:10164000014B1868704700BF502D0120F8B53A4B88
:101650001B68002B64D1394B1D6801351D60C5B96D
:10166000374B1B681B6843B14FF0500383F311885D
:10167000BFF36F8FBFF34F8FFEE7314A1168314BD5
:10168000186810601960304A136801331360FFF75F
:10169000DFFD2E4B1B68AB4238D900242C4B1B6856
:1016A000DB6A03EB83039A002A4B9B58012B3CD93E
:1016B00001243AE00124224B1B681B6843B3204BF2
:1016C0001B68DB68DE6873689D4226D3371D384689
:1016D000FFF784FAB36A1BB106F11800FFF77EFA30
:1016E000F36A01229A401C49086802430A6003EB2E
:1016F00083039A00394617481044FFF749FAF26A03
:10170000134B1B68DB6A9A42D4D2D4E70024D2E799
:101710000E4B4FF0FF321A60C0E70C4A1360BDE772
:101720000E4A13680133136000240D4B1B6803B18C
:1017300001242046F8BD00BFD02C0120502D0120EF
:10174000442C0120482C01200C2D0120082D0120C3
:10175000402C01204C2C0120D82C0120CC2C012025
:10176000542D012038B5334B1B6843B94FF050035B
:1017700083F31188BFF36F8FBFF34F8FFEE7FFF73F
:10178000A9F82C4B1A68013A1A601B68002B4DD13E
:10179000294B1B6823B90024FFF7BEF8204638BD4B
:1017A0000024264B1B681BB3244BDB68DC6804F168
:1017B0001800FFF713FA251D2846FFF70FFAE36A12
:1017C00001229A401E49086802430A6003EB830322
:1017D0009A0029461B481044FFF7DAF9E26A1A4BCF
:1017E0001B68DB6A9A42DCD3184B01221A60D8E7E7
:1017F0000CB1FFF72DFD164B1C6854B1FFF726FF07
:1018000010B1124B01221A60013CF7D1104B00229B
:101810001A600E4B1B685BB10E4B4FF080521A6082
:10182000BFF34F8FBFF36F8F0124B5E70024B3E7F9
:101830000024B1E7D02C0120C42C0120102D012060
:10184000D82C01204C2C0120402C0120542D0120AB
:10185000CC2C012004ED00E010B5A8B104460F4BDC
:101860001B6843B14FF0500383F31188BFF36F8FB0
:10187000BFF34F8FFEE7FFF7DBFE00212046FFF7A7
:10188000FFFDFFF76FFF38B9054B4FF080521A602C
:10189000BFF34F8FBFF36F8F10BD00BFD02C01205F
:1018A00004ED00E02C4B1B681BB12C4B01221A608D
:1018B000704710B5294B00221A60294B1B681B6B1F
:1018C0001A68B2F1A53F03D15A68B2F1A53F1BD007
:1018D000234B186819683431FEF7A9FC214B1B68AB
:1018E000B3FA83F3DBB2C3F11F0303EB83018A0076
:1018F0001D498A588AB94FF0500383F31188BFF30A
:101900006F8FBFF34F8FFEE79A68B2F1A53FDFD12B
:10191000DB68B3F1A53FDBD1E0E713489A00D418A8
:10192000A10001444C6864684C601A44910008317D
:101930000844844209D003EB83039A000A4B134402
:101940005B68DA68064B1A6010BD616806481422AD
:1019500002FB03025160EEE7D02C0120542D012040
:10196000402C0120D82C01204C2C012040B94FF0F4
:10197000500383F31188BFF36F8FBFF34F8FFEE7E0
:1019800010B50C46044B19681831FFF70DF9012109
:101990002046FFF775FD10BD402C012038B540B939
:1019A0004FF0500383F31188BFF36F8FBFF34F8F56
:1019B000FEE70C461546064A11681831FFF7E8F8AD
:1019C0000DB14FF0FF3429462046FFF759FD38BDD1
:1019D000402C012038B5C368DC6844B94FF050038F
:1019E00083F31188BFF36F8FBFF34F8FFEE704F1CE
:1019F00018052846FFF7F2F8134B1B68E3B9251DBD
:101A00002846FFF7EBF8E36A01229A400F4908687D
:101A100002430A6003EB83039A0029460C481044F2
:101A2000FFF7B6F8E26A0B4B1B68DB6A9A4208D9EB
:101A30000120094B186038BD29460848FFF7A8F86F
:101A4000F0E70020F7E700BFD02C0120D82C0120C0
:101A50004C2C0120402C0120542D0120102D012060
:101A6000034B1B680360034B1B684360704700BF58
:101A70000C2D0120502D0120F8B550B1054689B933
:101A80004FF0500383F31188BFF36F8FBFF34F8F75
:101A9000FEE74FF0500383F31188BFF36F8FBFF35E
:101AA0004F8FFEE70C46FEF715FF114B196868686B
:101AB0000A1A2368B3F1FF3F16D02F680D4E36681F
:101AC000B74201D0884211D9934203D80023236042
:101AD000012405E09B1A23602846FFF7C1FF00247C
:101AE000FEF71AFF2046F8BD0024F9E70124F7E7C6
:101AF000502D01200C2D0120014B01221A6070474E
:101B0000542D0120054B1B6833B1054B1B680BB1ED
:101B1000002070470220704701207047242D0120CB
:101B2000D02C0120002849D038B50446264A126836
:101B3000824208D04FF0500383F31188BFF36F8FB8
:101B4000BFF34F8FFEE7C26C42B94FF0500383F3EF
:101B50001188BFF36F8FBFF34F8FFEE7013AC26466
:101B6000C06AA16C88422BD062BB251D2846FFF7B6
:101B700035F870B9E26A142303FB02F31349CB581A
:101B80003BB9012303FA02F211490B6823EA02036D
:101B90000B60A36CE362C3F10602A261012404FAA4
:101BA00003F20B49086802430A602946074A1420D9
:101BB00000FB0320FEF7ECFF204638BD00207047F5
:101BC0000020FAE70020F8E7402C01204C2C0120EF
:101BD000D82C0120064B1A681368B3FA83F35B090B
:101BE000036013B9D368186870470020704700BFBE
:101BF000582D012008B54160006191420CD8D21ADD
:101C000083699A4201D3012010E0011D094B186835
:101C1000FEF7CAFF002009E09A4201D2994206D29B
:101C2000011D054B1868FEF7BFFF002008BD01200D
:101C3000FCE700BF5C2D0120582D012038B5FEF7D0
:101C400049FE0F4B1B6813B1FEF766FE38BD0D4D04
:101C50002846FEF78FFF0C4C2046FEF78BFF0B4B00
:101C60001D600B4B1C6000220C210A20FFF7BDF801
:101C7000034B18600028E7D00649FFF7ABFAE3E70B
:101C80008C2D0120602D0120742D0120582D012064
:101C90005C2D0120BC20000800B583B0FFF7CEFF0B
:101CA0000D4B1B685BB10D4B019302230093002386
:101CB0004FF482720A490B48FFF746FC40B94FF0D7
:101CC000500383F31188BFF36F8FBFF34F8FFEE78D
:101CD00003B05DF804FB00BF8C2D0120902D012086
:101CE000C4200008AD1F0008C8B130B585B0154646
:101CF0000446174A106840B31A46019102950394AE
:101D000005291DDCFFF7FEFE022811D000231A462C
:101D100001A90F480068FFF78DF805B030BD4FF0FE
:101D2000500383F31188BFF36F8FBFF34F8FFEE72C
:101D30000023089A01A906480068FFF77BF8ECE742
:101D4000002301A9FFF734F9E7E70020E5E700BF2A
:101D50008C2D012070B582B01A4B1B681A6852B3E3
:101D6000DB681E68DC68251D2846FEF737FF636ABE
:101D700020469847E369012BEED1A36933449E4284
:101D800007D26360246129460E4B1868FEF70CFFEA
:101D9000E2E7002100910B4632462046FFF7A4FF00
:101DA0000028D9D14FF0500383F31188BFF36F8F10
:101DB000BFF34F8FFEE7044A1068024908601360C2
:101DC00002B070BD582D01205C2D012038B50546AC
:101DD000FFF736FC0446074B1B68834205D80023F7
:101DE0002B60044B1C60204638BDFFF7B3FF012376
:101DF0002B60F6E7882D012070B582B005460E46AF
:101E0000144B1B68DB68DC68201DFEF7E7FEE36906
:101E1000012B04D0636A2046984702B070BDA169C7
:101E20002B46324629442046FFF7E4FE0028F1D035
:101E3000002100910B462A462046FFF755FF002857
:101E4000E8D14FF0500383F31188BFF36F8FBFF3D6
:101E50004F8FFEE7582D012070B582B006460C4624
:101E6000FFF7E6FB01A8FFF7B1FF019B1BBB05468F
:101E70000CB9B04218D22CB1114B1B681C68B4FAD3
:101E800084F464092246711B0E4B1868FFF7B6F9FB
:101E9000FFF768FC88B90C4B4FF080521A60BFF313
:101EA0004F8FBFF36F8F08E0FFF75CFC2946304689
:101EB000FFF7A2FF01E0FFF755FC02B070BD00BFC5
:101EC0005C2D01208C2D012004ED00E030B587B0A1
:101ED000002203A9344B1868FFF7D0F8002860D01F
:101EE000039B002BF4DB059C636913B1201DFEF7F7
:101EF00075FE02A8FFF76AFF039B092BE8D801A231
:101F000052F823F02D1F00082D1F00082D1F000878
:101F1000D11E0008751F00089B1F00082D1F000818
:101F20002D1F0008D11E0008751F00080499A5691F
:101F30000B46024629442046FFF75CFE0028C7D026
:101F4000636A20469847E369012BC1D1A269002149
:101F500000910B46049802442046FFF7C5FE002876
:101F6000B6D14FF0500383F31188BFF36F8FBFF3E7
:101F70004F8FFEE70499A16131B103460246014447
:101F80002046FFF737FEA3E74FF0500383F3118895
:101F9000BFF36F8FBFF34F8FFEE72046FEF7FAFBCC
:101FA00096E707B030BD00BF8C2D012000B583B08F
:101FB00001A8FFF70FFE0199FFF74EFFFFF786FF1D
:101FC000F6E70000DFF830D0002103E00B4B5B5850
:101FD000435004310A480B4B42189A42F6D30A4A3E
:101FE00002E0002342F8043B084B9A42F9D300F088
:101FF00011F8FEF75FF9704700000220D4200008B6
:10200000000000200400002004000020D42D012046
:10201000FEE7000070B50D4E0D4CA41BA41000256A
:10202000A54209D10B4E0C4C00F02CF8A41BA410B7
:102030000025A54205D170BD56F8253098470135D9
:10204000EEE756F8253098470135F2E7CC20000836
:10205000CC200008CC200008D020000810B5431E7A
:102060000A44914200D110BD11F8014B03F8014F11
:10207000F7E702440346934200D1704703F8011B7F
:10208000F9E70000F8B500BFF8BC08BC9E467047F1
:0C209000F8B500BFF8BC08BC9E467047C5
:10209C0069646C655F7461736B31000069646C65B5
:1020AC005F7461736B32000049444C4500000000C2
:1020BC00546D725100000000546D72205376630011
:0420CC00C501000842
:0420D000A101000862
:0420D400AAAAAAAA60
:0400000508001FC50B
:00000001FF
