:020000040800F2
:100000000000022015060008FD020008FF0200089B
:1000100001030008030300080503000800000000B6
:1000200000000000000000000000000007030008BE
:1000300009030008000000000B0300080D0300087E
:1000400061060008610600086106000861060008F4
:1000500061060008610600089502000875020008A4
:1000600061060008610600086106000861060008D4
:1000700061060008610600086106000861060008C4
:100080006106000861060008610600080000000023
:1000900000000000000000000000000061060008F1
:1000A0006106000861060008610600086106000894
:1000B00049020008610600086106000861060008A0
:1000C0006106000861060008610600086106000874
:1000D00061060008BD02000861060008000000007B
:1000E00061060008610600086106000800000000C3
:1000F0000000000000000000000000006106000891
:1001000000000000610600086106000861060008A2
:1001100000000000000000000000000000000000DF
:100120006106000861060008610600086106000813
:100130006106000800000000000000000000000050
:100140000000000000000000000000006106000840
:1001500061060008610600086106000861060008E3
:1001600061060008610600080000000000000000B1
:10017000000000000000000000000000000000007F
:100180000000000061060008000000000000000000
:08019000610600086106000889
:1001980010B5054C237833B9044B13B10448AFF3B9
:1001A80000800123237010BD000000200000000023
:1001B800AC06000808B5034B1BB103490348AFF36D
:1001C800008008BD0000000004000020AC06000804
:1001D800002106E000BF013340F6FE729342F9D9D0
:1001E8000131814201D20023F6E7704700B587B09C
:1001F8004FF4704300930123019300230293039368
:10020800022304936946034800F0C6F907B05DF875
:1002180004FB00BF000C024000B585B00023029328
:1002280004220192009302230122C821082000F031
:10023800B7F800F0A9F9FFF7D9FF00F07FF8FEE75B
:1002480008B54FF47041064800F0D6F9054A13681E
:1002580023F001031360044B4FF080521A6008BD6D
:10026800000C02401000004080E200E008B540F6B3
:10027800FF70FFF7ADFF034B02221A60024B80228A
:100288001A6008BD143C014080E200E008B54FF454
:100298000041054800F0B0F9044B01221A60044BF4
:1002A80040221A6008BD00BF000C0240143C014007
:1002B80080E200E082B00C4B1B6803F0400301931E
:1002C800019B23B1084A136823F040031360064BCF
:1002D8001B6803F020030193019B1BB1034B1A78A1
:1002E800034B1A7002B0704700100140041001401F
:1002F8001C0000207047FEE7FEE7FEE7FEE77047B8
:1003080070477047704720F0404000F1604000F5AA
:1003180064400368090101F47F6119430160704773
:10032800C0F3DA0303F1604303F56143196800F091
:100338001F020120904008431860704708B5164A0C
:10034800136843F0030313600832136843F0030390
:100358001360A2F58062136823F0FF0313600F2176
:100368000620FFF7D0FF0F210720FFF7CCFF06205C
:10037800FFF7D6FF0720FFF7D3FF084A136843F0BB
:10038800600313600A212520FFF7BDFF2520FFF732
:10039800C7FF62B608BD00BF003C01400C10014019
:1003A80030B482B0724D2C680194019C44F47004FE
:1003B8000194019C2C606F4C0025256038344FF463
:1003C80080452560043C4FF0805525606A4D2C68B7
:1003D80024F440440194019C44F440440194019C59
:1003E8002C6005F5E4352C6824F480240194019CE4
:1003F8000194019C2C6024F480340194019C44F401
:1004080080340194019C2C60FF240094009C013CE2
:1004180000945A4C246814F4003F02D1009D002D2A
:10042800F4D124F080740194019D544C256040F669
:10043800FF740094009C013C0094504C246814F014
:10044800007F02D0009C002CF4D14D4C0325256080
:10045800A4F57F74256825F480050195019D45F470
:1004680080050195019D256025F03F050195019DB9
:10047800284301900198206020F4FF4020F04000BC
:100488000190019840EA811101910199216021F4BC
:1004980040310191019941EA02420192019A226098
:1004A80036490A6822F080720192019A42F08072FD
:1004B8000192019A0A604FF6FF720092009A013A7F
:1004C80000922E4A126812F0007F02D1009A002A88
:1004D800F4D12C4A116821F0F00101910199049896
:1004E80041EA001101910199116021F4E051019153
:1004F800019941F4E05101910199116021F46041A1
:100508000191019941F4604101910199116021F033
:1005180003010191019919430191019911606FF04B
:100528007F420092009A013A0092164A126802F03D
:100538000C01B1EB830F02D000990029F2D122F40B
:10054800E0520192019B059A43EA82230193019BA1
:100558000C4A136023F460430193019B069943EA14
:1005680081230193019B136002B030BC704700BF28
:1005780088ED00E00C38024000700040003802406E
:10058800003C024008380240024A136843F08A03DC
:10059800136070473038024000230F2B2BD8F0B47B
:1005A80002E001330F2B24D80A6801249C40224220
:1005B800F7D005685E000322B240D24305EA02077D
:1005C8004D68B5403D430560456825EA04048D68DB
:1005D8009D4025434560C56802EA0504CD68B540DD
:1005E8002543C560846822400C69B4402243826078
:1005F800D7E7F0BC70477047436923F0FF021B043C
:1006080003F47F031343DB4383617047DFF830D083
:10061800002103E00B4B5B58435004310A480B4B55
:1006280042189A42F6D30A4A02E0002342F8043BF1
:10063800084B9A42F9D300F011F8FFF7EDFD704727
:1006480000000220CC060008000000200000002066
:100658000000002020000020FEE7000070B50D4ECD
:100668000D4CA41BA4100025A54209D10B4E0C4C1F
:1006780000F018F8A41BA4100025A54205D170BDF0
:1006880056F8253098470135EEE756F82530984753
:100698000135F2E7C4060008C4060008C4060008CD
:1006A800C8060008F8B500BFF8BC08BC9E467047ED
:0C06B800F8B500BFF8BC08BC9E467047B7
:0406C400BD0100086C
:0406C800990100088C
:0400000508000615D4
:00000001FF
