:020000040800F2
:1000000000000220DD0E0008C50B0008C70B000829
:10001000C90B0008CB0B0008CD0B00080000000046
:10002000000000000000000000000000CF0B0008EE
:10003000D10B000800000000D30B0008D50B00080E
:10004000290F0008290F0008290F0008290F0008B0
:10005000290F0008290F0008E10A0008C10A00085A
:10006000290F0008290F0008290F0008290F000890
:10007000290F0008290F0008290F0008290F000880
:10008000290F0008290F0008290F000800000000B0
:10009000000000000000000000000000290F000820
:1000A000290F0008290F0008290F0008290F000850
:1000B000950A0008290F0008290F0008290F0008D9
:1000C000290F0008290F0008290F0008290F000830
:1000D000290F0008850B0008290F00080000000008
:1000E000290F0008290F0008290F00080000000050
:1000F000000000000000000000000000290F0008C0
:1001000000000000290F0008290F0008290F00082F
:1001100000000000000000000000000000000000DF
:10012000290F0008290F0008290F0008290F0008CF
:10013000290F00080000000000000000000000007F
:10014000000000000000000000000000290F00086F
:10015000290F0008290F0008290F0008290F00089F
:10016000290F0008290F000800000000000000000F
:10017000000000000000000000000000000000007F
:1001800000000000290F000800000000000000002F
:08019000290F0008290F0008E7
:1001980010B5054C237833B9044B13B10448AFF3B9
:1001A80000800123237010BD000000200000000023
:1001B800740F000808B5034B1BB103490348AFF39C
:1001C800008008BD0000000004000020740F000833
:1001D80081F0004102E000BF83F0004330B54FEAF0
:1001E80041044FEA430594EA050F08BF90EA020F5D
:1001F8001FBF54EA000C55EA020C7FEA645C7FEAF0
:10020800655C00F0E2804FEA5454D4EB5555B8BF12
:100218006D420CDD2C4480EA020281EA030382EA83
:10022800000083EA010180EA020281EA0303362D15
:1002380088BF30BD11F0004F4FEA01314FF4801CE8
:100248004CEA113102D0404261EB410113F0004FFA
:100258004FEA03334CEA133302D0524263EB4303B1
:1002680094EA050F00F0A780A4F10104D5F1200E4F
:100278000DDB02FA0EFC22FA05F2801841F10001AA
:1002880003FA0EF2801843FA05F359410EE0A5F17E
:1002980020050EF1200E012A03FA0EFC28BF4CF0AF
:1002A800020C43FA05F3C01851EBE37101F0004565
:1002B80007D54FF0000EDCF1000C7EEB00006EEB72
:1002C8000101B1F5801F1BD3B1F5001F0CD34908FC
:1002D8005FEA30004FEA3C0C04F101044FEA445253
:1002E80012F5800F80F09A80BCF1004F08BF5FEADA
:1002F800500C50F1000041EB045141EA050130BDBA
:100308005FEA4C0C404141EB010111F4801FA4F15C
:100318000104E9D191F0000F04BF01460020B1FAB1
:1003280081F308BF2033A3F10B03B3F120020CDAE9
:100338000C3208DD02F1140CC2F10C0201FA0CF0C7
:1003480021FA02F10CE002F11402D8BFC2F1200C2C
:1003580001FA02F120FA0CFCDCBF41EA0C019040E2
:10036800E41AA2BF01EB0451294330BD6FEA04042B
:100378001F3C1CDA0C340EDC04F11404C4F1200216
:1003880020FA04F001FA02F340EA030021FA04F328
:1003980045EA030130BDC4F10C04C4F1200220FA7F
:1003A80002F001FA04F340EA0300294630BD21FABD
:1003B80004F0294630BD94F0000F83F4801306BF83
:1003C80081F480110134013D4EE77FEA645C18BF77
:1003D8007FEA655C29D094EA050F08BF90EA020F0E
:1003E80005D054EA000C04BF1946104630BD91EA06
:1003F800030F1EBF0021002030BD5FEA545C05D109
:100408004000494128BF41F0004130BD14F5800447
:100418003CBF01F5801130BD01F0004545F0FE41BB
:1004280041F470014FF0000030BD7FEA645C1ABFF0
:10043800194610467FEA655C1CBF0B46024650EA27
:10044800013406BF52EA033591EA030F41F4002153
:1004580030BD00BF90F0000F04BF0021704730B5D9
:100468004FF4806404F132044FF000054FF00001AE
:1004780050E700BF90F0000F04BF0021704730B56F
:100488004FF4806404F1320410F0004548BF404244
:100498004FF000013EE700BF42004FEAE2014FEA99
:1004A80031014FEA02701FBF12F07F4393F07F4F74
:1004B80081F06051704732F07F4208BF704793F077
:1004C8007F4F04BF41F40021704730B54FF460748A
:1004D80001F0004521F000411CE700BF50EA01028D
:1004E80008BF704730B54FF000050AE050EA010236
:1004F80008BF704730B511F0004502D5404261EBA6
:1005080041014FF4806404F132045FEA915C3FF4E6
:10051800D8AE4FF003025FEADC0C18BF03325FEA83
:10052800DC0C18BF033202EBDC02C2F1200300FA34
:1005380003FC20FA02F001FA03FE40EA0E0021FA59
:1005480002F11444BDE600BF70B54FF0FF0C4CF447
:10055800E06C1CEA11541DBF1CEA135594EA0C0FF9
:1005680095EA0C0F00F0DEF82C4481EA030621EA34
:100578004C5123EA4C5350EA013518BF52EA03356F
:1005880041F4801143F4801338D0A0FB02CE4FF021
:100598000005E1FB02E506F00042E0FB03E54FF051
:1005A8000006E1FB03569CF0000F18BF4EF0010E49
:1005B800A4F1FF04B6F5007F64F5407404D25FEA45
:1005C8004E0E6D4146EB060642EAC62141EA5551F8
:1005D8004FEAC52040EA5E504FEACE2EB4F1FD0C3A
:1005E80088BFBCF5E06F1ED8BEF1004F08BF5FEAB8
:1005F800500E50F1000041EB045170BD06F000466A
:1006080046EA010140EA020081EA0301B4EB5C0416
:10061800C2BFD4EB0C0541EA045170BD41F480110E
:100628004FF0000E013C00F3AB8014F1360FDEBF33
:10063800002001F0004170BDC4F10004203C35DA0F
:100648000C341BDC04F11404C4F1200500FA05F392
:1006580020FA04F001FA05F240EA020001F0004233
:1006680021F0004110EBD37021FA04F642EB0601A9
:100678005EEA430E08BF20EAD37070BDC4F10C04D3
:10068800C4F1200500FA04F320FA05F001FA04F297
:1006980040EA020001F0004110EBD37041F1000183
:1006A8005EEA430E08BF20EAD37070BDC4F120058E
:1006B80000FA05F24EEA020E20FA04F301FA05F2F6
:1006C80043EA020321FA04F001F0004121FA04F29E
:1006D80020EA020000EBD3705EEA430E08BF20EA6E
:1006E800D37070BD94F0000F0FD101F000464000A8
:1006F80041EB010111F4801F08BF013CF7D041EA2A
:10070800060195F0000F18BF704703F0004652002D
:1007180043EB030313F4801F08BF013DF7D043EAFE
:100728000603704794EA0C0F0CEA135518BF95EAB4
:100738000C0F0CD050EA410618BF52EA4306D1D13B
:1007480081EA030101F000414FF0000070BD50EA5A
:10075800410606BF1046194652EA430619D094EAE4
:100768000C0F02D150EA013613D195EA0C0F05D1CE
:1007780052EA03361CBF104619460AD181EA030122
:1007880001F0004141F0FE4141F470014FF00000DA
:1007980070BD41F0FE4141F4780170BD70B54FF075
:1007A800FF0C4CF4E06C1CEA11541DBF1CEA1355F5
:1007B80094EA0C0F95EA0C0F00F0A7F8A4EB0504D7
:1007C80081EA030E52EA03354FEA013100F08880CE
:1007D8004FEA03334FF0805545EA131343EA126397
:1007E8004FEA022245EA111545EA10654FEA00264C
:1007F8000EF000419D4208BF964244F1FD0404F505
:10080800407402D25B084FEA3202B61A65EB030560
:100818005B084FEA32024FF480104FF4002CB6EB1D
:10082800020E75EB030E22BFB61A754640EA0C009D
:100838005B084FEA3202B6EB020E75EB030E22BFDD
:10084800B61A754640EA5C005B084FEA3202B6EB1E
:10085800020E75EB030E22BFB61A754640EA9C00DD
:100868005B084FEA3202B6EB020E75EB030E22BFAD
:10087800B61A754640EADC0055EA060E18D04FEA6B
:10088800051545EA16754FEA06164FEAC30343EA0B
:1008980052734FEAC2025FEA1C1CC0D111F4801FD8
:1008A8000BD141EA00014FF000004FF0004CB6E7D1
:1008B80011F4801F04BF01430020B4F1FD0C88BF70
:1008C800BCF5E06F3FF6AFAEB5EB030C04BFB6EB7B
:1008D800020C5FEA500C50F1000041EB045170BD6E
:1008E8000EF0004E4EEA113114EB5C04C2BFD4EB9B
:1008F8000C0541EA045170BD41F480114FF0000E1F
:10090800013C90E645EA060E8DE60CEA135594EA9A
:100918000C0F08BF95EA0C0F3FF43BAF94EA0C0F9D
:100928000AD150EA01347FF434AF95EA0C0F7FF412
:1009380025AF104619462CE795EA0C0F06D152EA66
:1009480003353FF4FDAE1046194622E750EA41064A
:1009580018BF52EA43067FF4C5AE50EA41047FF45B
:100968000DAF52EA43057FF4EBAE12E74FEA4102BE
:10097800B2F1E04324BFB3F5001CDCF1FE5C0DD9F5
:1009880001F0004C4FEAC0024CEA5070B2F1004F3F
:1009980040EB830008BF20F00100704711F0804F42
:1009A80021D113F13872BCBF01F00040704741F407
:1009B80080114FEA5252C2F11802C2F1200C10FA0B
:1009C8000CF320FA02F018BF40F001004FEAC123EF
:1009D8004FEAD32303FA0CFC40EA0C0023FA02F393
:1009E8004FEA4303CCE77FEA625307D150EA013369
:1009F8001EBF4FF0FE4040F44000704701F0004039
:100A080040F0FE4040F40000704700BF002106E0BF
:100A180000BF013340F6FE729342F9D90131814299
:100A280001D20023F6E7704700B585B00022029294
:100A380006230193009202236421082000F0C8F8DD
:100A480000F07EF900F022FA4FF4165210216420CB
:100A580000F0CEF900F054F8094800F089F9094B84
:100A68001B78002BFBD0074C207800F071F94FF46D
:100A78007041054800F024FA00232370EFE700BF17
:100A88008C0F00081C000020000C024008B54FF431
:100A98007041064800F014FA054A136823F0010370
:100AA8001360044B4FF080521A6008BD000C0240DE
:100AB8001000004080E200E008B540F6FF70FFF744
:100AC800A5FF034B02221A60024B80221A6008BD60
:100AD800143C014080E200E008B54FF400410548AD
:100AE80000F0EEF9044B01221A60044B40221A6010
:100AF80008BD00BF000C0240143C014080E200E049
:100B08001A4A136843F0030313600832136843F06A
:100B180003031360A2F58062136823F0FF031360D8
:100B2800134A136823F47F0343F4800323F07F43BD
:100B380043F080431360A2F54072136843F0C0038A
:100B480013600C4A136843F0600313600A4A136881
:100B580023F47F4343F040031360A2F548721368FF
:100B680043F02003136062B6704700BF003C0140A9
:100B780000E400E00C10014024E400E082B00C4BDB
:100B88001B6803F040030193019B23B1084A1368D3
:100B980023F040031360064B1B6803F02003019306
:100BA800019B1BB1034B1A78034B1A7002B07047B4
:100BB80000100140041001401C0000207047FEE7AF
:100BC800FEE7FEE7FEE77047704770477047000092
:100BD80070B483B0544D2C680194019C44F47004A3
:100BE8000194019C2C60514C0025256038344FF449
:100BF80080452560043C4FF0805525604C4D2C689D
:100C080024F440440194019C44F440440194019C20
:100C18002C60484C256825F480250195019D019597
:100C2800019D256025F080750195019D256040F6A0
:100C3800FF750095009D013D00953F4D03262E60F0
:100C4800A5F57F752E6826F03F060196019E304374
:100C580001900198286020F4FF4020F040000190A6
:100C6800019840EA811101910199296021F44031EC
:100C78000191019941EA02420192019A2A6022688F
:100C880022F080720192019A42F080720192019AD8
:100C980022604FF6FF720092009A013A0092274AAA
:100CA800116821F0F00101910199069841EA0011BB
:100CB80001910199116021F4E0510191019941F4E8
:100CC800E05101910199116021F46041019101996C
:100CD80041F4604101910199116021F003010191F2
:100CE80001990B430193019B13606FF07F430093BD
:100CF800009B013B0093136823F4E0530193019B8D
:100D0800079943EA81230193019B136023F460430D
:100D18000193019B089943EA81230193019B136086
:100D280003B070BC704700BF88ED00E00C3802408B
:100D38000070004000380240003C02400838024081
:100D4800024A136843F08A03136070473038024040
:100D5800054B1B6813F0800F03D0044B186001206B
:100D680070470020704700BF001001400410014088
:100D780010B50446207828B1FFF7EAFF0028F9D01B
:100D88000134F7E710BD000030B4144A136843F08B
:100D980010031360124D2B6823F4404141F40041C5
:100DA800104C236823F4404242F480420E48036802
:100DB80023F0704343F0E04321F4405141F40051E3
:100DC800296022F4405242F48052226023F070637A
:100DD80043F0E063036030BC704700BF4438024012
:100DE800000402400C0402402004024000000000FD
:100DF800F8B50C461546FFF72DFB22A3D3E90023CF
:100E0800FFF7A2FB06460F4604FB05F0FFF722FB9F
:100E180002460B4630463946FFF7C0FCFFF7A6FDF1
:100E280007EE900AFCEEE76AB8EE667A37EEC77A04
:100E380007EE904AF8EE677A67EE877AFCEEE77A73
:100E480017EE904A16EE903A44EA0314FFF79CFF17
:100E580009490B6843F400530848026822F44052D9
:100E68000260074A146023F4174323F0080343F091
:100E78000C030B60F8BD00BF0C10014010100140BE
:100E8800081001400000000080842E410B4A1368BE
:100E980023F07F4343F0AA4313600432136823F41A
:100EA800704313600832136823F07F431360043AD9
:100EB800136843F07F431360704700BF000C024083
:100EC800436923F0FF021B0403F47F031343DB434E
:100ED80083617047DFF830D0002103E00B4B5B588B
:100EE800435004310A480B4B42189A42F6D30A4A37
:100EF80002E0002342F8043B084B9A42F9D300F081
:100F080011F8FFF791FD704700000220A80F0008B4
:100F18000000002000000020000000202000002029
:100F2800FEE7000070B50D4E0D4CA41BA410002563
:100F3800A54209D10B4E0C4C00F018F8A41BA410C4
:100F48000025A54205D170BD56F8253098470135D2
:100F5800EEE756F8253098470135F2E7A00F00086C
:100F6800A00F0008A00F0008A40F0008F8B500BFE4
:100F7800F8BC08BC9E467047F8B500BFF8BC08BC72
:040F88009E467047CA
:100F8C0048656C6C6F20776F726C64202D56484CE2
:040F9C000000000051
:040FA000BD01000887
:040FA40099010008A7
:0400000508000EDD04
:00000001FF
