:020000040800F2
:10000000000002208D2B0008750C0008770C0008FA
:10001000790C00087B0C00087D0C00080000000033
:100020000000000000000000000000003113000884
:100030007F0C000800000000D113000835140008F0
:10004000D92B0008D92B0008D92B0008D92B000880
:10005000D92B0008D92B0008D92B0008D92B000870
:10006000D92B0008D92B0008D92B0008D92B000860
:10007000D92B0008D92B0008D92B0008D92B000850
:10008000D92B0008D92B0008D92B0008000000004C
:10009000000000000000000000000000D92B000854
:1000A000D92B0008D92B0008D92B0008D92B000820
:1000B000D92B0008D92B0008D92B0008D92B000810
:1000C000D92B0008D92B0008D92B0008D92B000800
:1000D000D92B00086D0A0008D92B00080000000089
:1000E000D92B0008D92B0008D92B000800000000EC
:1000F000000000000000000000000000D92B0008F4
:1001000000000000D92B0008D92B0008D92B0008CB
:1001100000000000000000000000000000000000DF
:10012000D92B0008D92B0008D92B0008D92B00089F
:10013000D92B0008000000000000000000000000B3
:10014000000000000000000000000000D92B0008A3
:10015000D92B0008D92B0008D92B0008D92B00086F
:10016000D92B0008D92B0008000000000000000077
:10017000000000000000000000000000000000007F
:1001800000000000D92B0008000000000000000063
:08019000D92B0008D92B00084F
:1001A00010B5054C237833B9044B13B10448AFF3B1
:1001B00000800123237010BD0C000020000000000F
:1001C0004C2C000808B5034B1BB103490348AFF39F
:1001D000008008BD00000000100000204C2C00082A
:1001E00081F0004102E000BF83F0004330B54FEAE8
:1001F00041044FEA430594EA050F08BF90EA020F55
:100200001FBF54EA000C55EA020C7FEA645C7FEAE7
:10021000655C00F0E2804FEA5454D4EB5555B8BF0A
:100220006D420CDD2C4480EA020281EA030382EA7B
:10023000000083EA010180EA020281EA0303362D0D
:1002400088BF30BD11F0004F4FEA01314FF4801CE0
:100250004CEA113102D0404261EB410113F0004FF2
:100260004FEA03334CEA133302D0524263EB4303A9
:1002700094EA050F00F0A780A4F10104D5F1200E47
:100280000DDB02FA0EFC22FA05F2801841F10001A2
:1002900003FA0EF2801843FA05F359410EE0A5F176
:1002A00020050EF1200E012A03FA0EFC28BF4CF0A7
:1002B000020C43FA05F3C01851EBE37101F000455D
:1002C00007D54FF0000EDCF1000C7EEB00006EEB6A
:1002D0000101B1F5801F1BD3B1F5001F0CD34908F4
:1002E0005FEA30004FEA3C0C04F101044FEA44524B
:1002F00012F5800F80F09A80BCF1004F08BF5FEAD2
:10030000500C50F1000041EB045141EA050130BDB1
:100310005FEA4C0C404141EB010111F4801FA4F154
:100320000104E9D191F0000F04BF01460020B1FAA9
:1003300081F308BF2033A3F10B03B3F120020CDAE1
:100340000C3208DD02F1140CC2F10C0201FA0CF0BF
:1003500021FA02F10CE002F11402D8BFC2F1200C24
:1003600001FA02F120FA0CFCDCBF41EA0C019040DA
:10037000E41AA2BF01EB0451294330BD6FEA040423
:100380001F3C1CDA0C340EDC04F11404C4F120020E
:1003900020FA04F001FA02F340EA030021FA04F320
:1003A00045EA030130BDC4F10C04C4F1200220FA77
:1003B00002F001FA04F340EA0300294630BD21FAB5
:1003C00004F0294630BD94F0000F83F4801306BF7B
:1003D00081F480110134013D4EE77FEA645C18BF6F
:1003E0007FEA655C29D094EA050F08BF90EA020F06
:1003F00005D054EA000C04BF1946104630BD91EAFE
:10040000030F1EBF0021002030BD5FEA545C05D100
:100410004000494128BF41F0004130BD14F580043F
:100420003CBF01F5801130BD01F0004545F0FE41B3
:1004300041F470014FF0000030BD7FEA645C1ABFE8
:10044000194610467FEA655C1CBF0B46024650EA1F
:10045000013406BF52EA033591EA030F41F400214B
:1004600030BD00BF90F0000F04BF0021704730B5D1
:100470004FF4806404F132044FF000054FF00001A6
:1004800050E700BF90F0000F04BF0021704730B567
:100490004FF4806404F1320410F0004548BF40423C
:1004A0004FF000013EE700BF42004FEAE2014FEA91
:1004B00031014FEA02701FBF12F07F4393F07F4F6C
:1004C00081F06051704732F07F4208BF704793F06F
:1004D0007F4F04BF41F40021704730B54FF4607482
:1004E00001F0004521F000411CE700BF50EA010285
:1004F00008BF704730B54FF000050AE050EA01022E
:1005000008BF704730B511F0004502D5404261EB9D
:1005100041014FF4806404F132045FEA915C3FF4DE
:10052000D8AE4FF003025FEADC0C18BF03325FEA7B
:10053000DC0C18BF033202EBDC02C2F1200300FA2C
:1005400003FC20FA02F001FA03FE40EA0E0021FA51
:1005500002F11444BDE600BF70B54FF0FF0C4CF43F
:10056000E06C1CEA11541DBF1CEA135594EA0C0FF1
:1005700095EA0C0F00F0DEF82C4481EA030621EA2C
:100580004C5123EA4C5350EA013518BF52EA033567
:1005900041F4801143F4801338D0A0FB02CE4FF019
:1005A0000005E1FB02E506F00042E0FB03E54FF049
:1005B0000006E1FB03569CF0000F18BF4EF0010E41
:1005C000A4F1FF04B6F5007F64F5407404D25FEA3D
:1005D0004E0E6D4146EB060642EAC62141EA5551F0
:1005E0004FEAC52040EA5E504FEACE2EB4F1FD0C32
:1005F00088BFBCF5E06F1ED8BEF1004F08BF5FEAB0
:10060000500E50F1000041EB045170BD06F0004661
:1006100046EA010140EA020081EA0301B4EB5C040E
:10062000C2BFD4EB0C0541EA045170BD41F4801106
:100630004FF0000E013C00F3AB8014F1360FDEBF2B
:10064000002001F0004170BDC4F10004203C35DA07
:100650000C341BDC04F11404C4F1200500FA05F38A
:1006600020FA04F001FA05F240EA020001F000422B
:1006700021F0004110EBD37021FA04F642EB0601A1
:100680005EEA430E08BF20EAD37070BDC4F10C04CB
:10069000C4F1200500FA04F320FA05F001FA04F28F
:1006A00040EA020001F0004110EBD37041F100017B
:1006B0005EEA430E08BF20EAD37070BDC4F1200586
:1006C00000FA05F24EEA020E20FA04F301FA05F2EE
:1006D00043EA020321FA04F001F0004121FA04F296
:1006E00020EA020000EBD3705EEA430E08BF20EA66
:1006F000D37070BD94F0000F0FD101F000464000A0
:1007000041EB010111F4801F08BF013CF7D041EA21
:10071000060195F0000F18BF704703F00046520025
:1007200043EB030313F4801F08BF013DF7D043EAF6
:100730000603704794EA0C0F0CEA135518BF95EAAC
:100740000C0F0CD050EA410618BF52EA4306D1D133
:1007500081EA030101F000414FF0000070BD50EA52
:10076000410606BF1046194652EA430619D094EADC
:100770000C0F02D150EA013613D195EA0C0F05D1C6
:1007800052EA03361CBF104619460AD181EA03011A
:1007900001F0004141F0FE4141F470014FF00000D2
:1007A00070BD41F0FE4141F4780170BD70B54FF06D
:1007B000FF0C4CF4E06C1CEA11541DBF1CEA1355ED
:1007C00094EA0C0F95EA0C0F00F0A7F8A4EB0504CF
:1007D00081EA030E52EA03354FEA013100F08880C6
:1007E0004FEA03334FF0805545EA131343EA12638F
:1007F0004FEA022245EA111545EA10654FEA002644
:100800000EF000419D4208BF964244F1FD0404F5FC
:10081000407402D25B084FEA3202B61A65EB030558
:100820005B084FEA32024FF480104FF4002CB6EB15
:10083000020E75EB030E22BFB61A754640EA0C0095
:100840005B084FEA3202B6EB020E75EB030E22BFD5
:10085000B61A754640EA5C005B084FEA3202B6EB16
:10086000020E75EB030E22BFB61A754640EA9C00D5
:100870005B084FEA3202B6EB020E75EB030E22BFA5
:10088000B61A754640EADC0055EA060E18D04FEA63
:10089000051545EA16754FEA06164FEAC30343EA03
:1008A00052734FEAC2025FEA1C1CC0D111F4801FD0
:1008B0000BD141EA00014FF000004FF0004CB6E7C9
:1008C00011F4801F04BF01430020B4F1FD0C88BF68
:1008D000BCF5E06F3FF6AFAEB5EB030C04BFB6EB73
:1008E000020C5FEA500C50F1000041EB045170BD66
:1008F0000EF0004E4EEA113114EB5C04C2BFD4EB93
:100900000C0541EA045170BD41F480114FF0000E16
:10091000013C90E645EA060E8DE60CEA135594EA92
:100920000C0F08BF95EA0C0F3FF43BAF94EA0C0F95
:100930000AD150EA01347FF434AF95EA0C0F7FF40A
:1009400025AF104619462CE795EA0C0F06D152EA5E
:1009500003353FF4FDAE1046194622E750EA410642
:1009600018BF52EA43067FF4C5AE50EA41047FF453
:100970000DAF52EA43057FF4EBAE12E74FEA4102B6
:10098000B2F1E04324BFB3F5001CDCF1FE5C0DD9ED
:1009900001F0004C4FEAC0024CEA5070B2F1004F37
:1009A00040EB830008BF20F00100704711F0804F3A
:1009B00021D113F13872BCBF01F00040704741F4FF
:1009C00080114FEA5252C2F11802C2F1200C10FA03
:1009D0000CF320FA02F018BF40F001004FEAC123E7
:1009E0004FEAD32303FA0CFC40EA0C0023FA02F38B
:1009F0004FEA4303CCE77FEA625307D150EA013361
:100A00001EBF4FF0FE4040F44000704701F0004030
:100A100040F0FE4040F40000704700BF10B50446AF
:100A2000236801219940034800F088F9642001F00F
:100A300053FCF5E7000C024000B583B06E210120A5
:100A400001F008FE0190019B13B903B05DF804FBAF
:100A5000044B187800F060FA4FF40051024800F09F
:100A60006DF9F2E704100140000C024000B585B0BA
:100A7000002301934FF48051204800F05FF9204B90
:100A80001B6803F040030393039B3BB11C4A1368AC
:100A900023F0400313601B4B1B784BB1184B1B68B2
:100AA00003F020030393039B9BB905B05DF804FB9F
:100AB00001A9154B186801F009FE019B002BEDD030
:100AC000124B4FF080521A60BFF34F8FBFF36F8FFE
:100AD000E4E70F4B1B788DF80B3001A90D4B18681C
:100AE00001F0F4FD019B002BDFD0084B4FF080524A
:100AF0001A60BFF34F8FBFF36F8FD6E7000C024031
:100B000000100140040000202C00002004ED00E053
:100B100004100140280000207047FEE7FEE70000B7
:100B2000024A136843F08A0313607047303802406A
:100B300008B5084A136843F060031360064B074A80
:100B40001A600521252000F09BF8252000F0A7F869
:100B500062B608BD0C1001400CED00E00003FA0580
:100B600070B586B04FF470430093012501950024C1
:100B700002940394022604966946074800F09CF804
:100B800000950196029403940496059569460348DE
:100B900000F092F806B070BD000C02400000024068
:100BA00010B504460021012001F054FD204600F05C
:100BB000B3F96421012001F04DFD10BD10B5074BC4
:100BC00000221A7041242046FFF7EAFF0134E4B204
:100BD0004FF47A7001F080FBF5E700BF04000020BD
:100BE00000B585B0002402940423019300940223ED
:100BF0000122C821082000F0A5F8FFF791FFFFF7B8
:100C0000AFFF4FF416521021642000F0C9F9FFF72E
:100C10008FFF0194012300930D4B80220D490E4854
:100C200001F0D2F90D4B0193022500952346802255
:100C30000B490C4801F0C8F90B4B01930095234672
:100C400080220A490A4801F0BFF901F0EFF9FEE7F6
:100C500000000020642C00081D0A00082800002065
:100C6000702C0008390A00082C000020802C000895
:100C7000BD0B00087047FEE7FEE7FEE7FEE77047A2
:100C80000901830803F1605303F564539B001A685C
:100C90000011800001FA00F010431860704743090A
:100CA00003F1382340339B00196800F01F02012034
:100CB000904008431860704700230F2B3DD8F0B4D4
:100CC00010E000F12006356803F0070294000F22BF
:100CD000A24025EA02054A69A2402A433260013354
:100CE0000F2B28D80A6801249C402242F7D00568BF
:100CF0005E000322B240D24305EA02074D68B540C8
:100D00003D430560456825EA04048D689D40254300
:100D10004560C56802EA0504CD68B5402543C56055
:100D2000846822400C69B44022438260072BC8D9F2
:100D300000F12406C7E7F0BC70477047436959408B
:100D40004161704730B482B06D4D2C680194019CB4
:100D500044F470040194019C2C606A4C00252560C9
:100D600038344FF480452560043C4FF080552560B1
:100D7000654D2C6824F440440194019C44F44044A3
:100D80000194019C2C6005F5E4352C6824F4802442
:100D90000194019C0194019C2C6024F48034019402
:100DA000019C44F480340194019C2C60FF24009445
:100DB000009C013C0094554C246814F4003F02D17F
:100DC000009D002DF4D124F080740194019D4F4CBE
:100DD000256040F6FF740094009C013C00944B4C4D
:100DE000246814F0007F02D0009C002CF4D1484C01
:100DF00003252560A4F57F74256825F03F0501953E
:100E0000019D284301900198206020F4FF4020F0CC
:100E100040000190019840EA8111019101992160FF
:100E200021F440310191019941EA02420192019A73
:100E3000226036490A6822F080720192019A42F0DB
:100E400080720192019A0A604FF6FF720092009A36
:100E5000013A00922D4A126812F0007F02D1009AE6
:100E6000002AF4D12B4A116821F0F0010191019977
:100E7000049841EA001101910199116021F4E051B7
:100E80000191019941F4E05101910199116021F41E
:100E900060410191019941F4604101910199116012
:100EA00021F0030101910199194301910199116008
:100EB0006FF07F420092009A013A0092154A126840
:100EC00002F00C01B1EB830F02D000990029F2D19E
:100ED00022F4E0520192019B059A43EA8223019396
:100EE000019B0C4A136023F460430193019B069914
:100EF00043EA81230193019B136002B030BC704729
:100F000088ED00E00C3802400070004000380240DC
:100F1000003C024008380240054B1B6813F0800F6C
:100F200003D0044B1860012070470020704700BFB9
:100F3000001001400410014030B4144A136843F01B
:100F400010031360124D2B6823F4404141F400411B
:100F5000104C236823F4404242F480420E48036858
:100F600023F0704343F0E04321F4405141F4005139
:100F7000296022F4405242F48052226023F07063D0
:100F800043F0E063036030BC704700BF4438024068
:100F9000000402400C040240200402400000000053
:100FA000F8B50C461546FFF75DFA22A3D3E90023F6
:100FB000FFF7D2FA06460F4604FB05F0FFF752FA98
:100FC00002460B4630463946FFF7F0FBFFF7D6FCEA
:100FD00007EE900AFCEEE76AB8EE667A77EEC77A1B
:100FE00007EE104AB8EE477A67EE877AFCEEE77AAA
:100FF00017EE903A16EE902A43EA0214FFF79CFF90
:1010000009490B6843F400530848026822F440522F
:101010000260074A146023F4174323F0080343F0E7
:101020000C030B60F8BD00BF0C1001401010014014
:10103000081001400000000080842E41124A12F086
:10104000070F1ED0D11D21F00701C1F596331344BF
:101050000A460E480260002141601344083B23F019
:1010600007030B48036059601960991A51601360B7
:10107000084B1960084B1960084B4FF000421A608A
:1010800070474FF49633E4E734000020402C0120F1
:10109000300000203C2C0120382C0120342C012071
:1010A00010B4134B1A6882421BD359685C188442EF
:1010B00003D1406801445960184641684418A2426F
:1010C00013D10C4C2468A2420DD0526811444160E7
:1010D0001A6812680260984200D018605DF8044BEC
:1010E00070471346DEE70460F5E70260F3E700BFF0
:1010F000402C01203000002070B5044600F0D8FFDD
:101100003F4B1B68A3B13F4B1B681C4213D001F03F
:1011100069F80026FFF702FD16F0070F6ED04FF0BA
:10112000500383F31188BFF36F8FBFF34F8FFEE738
:10113000FFF784FFE7E794B1083414F0070F0ED0EF
:1011400024F00704083404F0070343B14FF05003C0
:1011500083F31188BFF36F8FBFF34F8FFEE734B176
:10116000294B1B68A34206D3284B1D6809E001F0F8
:1011700039F80026CEE701F035F80026CAE72B46FD
:1011800015466A68A24202D22A68002AF7D11C4A90
:101190001268AA4214D01E6808362A681A606B6862
:1011A0001B1B102B14D9281910F0070F0CD04FF06F
:1011B000500383F31188BFF36F8FBFF34F8FFEE7A8
:1011C00001F010F80026A5E743606C60FFF768FFA8
:1011D0006A680D490B689B1A0B600D4909688B42C0
:1011E00001D20B490B60074B1B6813436B60002354
:1011F0002B6000F0F7FF002E8ED18BE7304670BDDC
:1012000030000020342C0120382C0120402C0120FB
:101210003C2C012080B338B50446A0F1080550F8F5
:10122000042C164909680A4208D14FF0500383F391
:101230001188BFF36F8FBFF34F8FFEE750F8080C94
:1012400040B14FF0500383F31188BFF36F8FBFF3AA
:101250004F8FFEE722EA010244F8042C00F028FF39
:1012600054F8041C064A13680B4413602846FFF721
:1012700017FF00F0B7FF38BD704700BF342C0120C6
:10128000382C012082B0002301930D4B1B68B3F171
:10129000FF3F08D04FF0500383F31188BFF36F8FE7
:1012A000BFF34F8FFEE74FF0500383F31188BFF376
:1012B0006F8FBFF34F8F019B002BFCD002B07047A4
:1012C0000800002008480068006880F308884FF094
:1012D000000080F3148862B661B6BFF34F8FBFF38E
:1012E0006F8F00DF00BF000008ED00E0DFF80C00AA
:1012F000016841F4700101607047000088ED00E072
:101300004FF0807340F8043C21F0010140F8081CC4
:10131000054B40F80C3C40F8202C6FF0020340F8DD
:10132000243C4438704700BF8512000800000000CC
:10133000074B19680868B0E8F04F80F30988BFF3DD
:101340006F8F4FF0000080F311887047AFF300807B
:10135000502C01204FF0500383F31188BFF36F8F9F
:10136000BFF34F8F0A4A136801331360012B00D07B
:101370007047084B1B6813F0FF0FF9D04FF0500374
:1013800083F31188BFF36F8FBFF34F8FFEE700BF6A
:101390000800002004ED00E0094B1B6843B94FF042
:1013A000500383F31188BFF36F8FBFF34F8FFEE7B6
:1013B000013B034A13600BB983F31188704700BFE8
:1013C00008000020000000000000000000000000F5
:1013D000EFF30980BFF36F8F154B1A681EF0100FE3
:1013E00008BF20ED108A20E9F04F10602DE90900B8
:1013F0004FF0500080F31188BFF34F8FBFF36F8F12
:1014000000F090FF4FF0000080F3118809BC1968CC
:101410000868B0E8F04F1EF0100F08BFB0EC108A5B
:1014200080F30988BFF36F8F704700BFAFF3008070
:10143000502C012008B54FF0500383F31188BFF3FF
:101440006F8FBFF34F8F00F041FE18B1034B4FF089
:1014500080521A60002383F3118808BD04ED00E078
:10146000054B00221A6005490A60054A05491160CA
:1014700007221A60704700BF10E000E018E000E0AB
:1014800014E000E09F8601003A4B1A683A4B9A42FA
:101490000DD0384B1A68394B9A4211D14FF0500396
:1014A00083F31188BFF36F8FBFF34F8FFEE74FF0C9
:1014B000500383F31188BFF36F8FBFF34F8FFEE7A5
:1014C00010B582B02E4B1A78D2B20192FF221A7058
:1014D0001B78DBB28DF803309DF8033003F0500326
:1014E000284A1370284B07221A6009E0264A13681D
:1014F000013B13609DF803305B00DBB28DF80330D5
:101500009DF8033013F0800FF0D11F4B1B68032BA5
:1015100008D04FF0500383F31188BFF36F8FBFF3F0
:101520004F8FFEE71B0203F4E063174A1360019B31
:10153000DBB2134A1370154B1A6842F470021A603A
:101540001A6842F070421A60FFF78AFF0024104BBD
:101550001C60FFF7CBFE0F4A136843F04043136053
:10156000FFF7B0FE00F0DEFEFFF78CFE204602B073
:1015700010BD00BF00ED00E071C20F4170C20F410D
:1015800000E400E0482C01204C2C012020ED00E07C
:101590000800002034EF00E0EFF305830F2B0FD994
:1015A000104A9B5CDBB2104A12789A4208D94FF07D
:1015B000500383F31188BFF36F8FBFF34F8FFEE7A4
:1015C0000A4B1B6803F4E063094A1268934208D986
:1015D0004FF0500383F31188BFF36F8FBFF34F8F2A
:1015E000FEE77047F0E300E0482C01200CED00E03E
:1015F0004C2C012000F1080343604FF0FF32826061
:10160000C3600361002303607047002303617047D8
:1016100043684B609A688A609A6851609960086173
:10162000036801330360704730B40D68B5F1FF3FC4
:1016300002D000F1080202E0026904E01A46536891
:101640001C68AC42FAD953684B6099608A6051605B
:10165000086103680133036030BC70470369426866
:10166000816891608268416851605A68824206D000
:10167000002202611A68013A1A601868704782688D
:101680005A60F5E710B50446FFF764FEA26BE36B02
:101690009A4204D00024FFF77FFE204610BD0124AB
:1016A000F9E710B50446FFF755FEA36B23B10024FC
:1016B000FFF772FE204610BD0124F9E770B504461D
:1016C0001646856B026C5AB903681BB100200135C0
:1016D000A56370BD406800F065FF00236360F6E716
:1016E0006EB9806801F09EFA226CA3681344A3606F
:1016F0006268934219D32368A3600020E7E7C068BB
:1017000001F090FA226C5242E3681344E3602168CE
:101710008B4202D263681A44E260022E01D000209C
:10172000D5E725B1013D0020D1E70020CFE700201B
:10173000CDE7026C72B110B5C3681344C36044684E
:10174000A34201D30368C3600C46C168204601F080
:1017500069FA10BD704738B50546FFF7FBFD95F8EF
:10176000454064B203E000F007FF013C64B2002C86
:1017700008DD6B6A33B105F1240000F06BFE002830
:10178000F3D0F0E7FF2385F84530FFF705FEFFF7BC
:10179000E1FD95F8444064B203E000F0EDFE013C49
:1017A00064B2002C08DD2B6933B105F1100000F0A4
:1017B00051FE0028F3D0F0E7FF2385F84430FFF70F
:1017C000EBFD38BD38B540B94FF0500383F31188B5
:1017D000BFF36F8FBFF34F8FFEE704460D46FFF751
:1017E000B9FD2168E26B236C03FB021060600020EE
:1017F000A063A160013A02FB0313E360FF2384F8B6
:10180000443084F84530A5B923691BB9FFF7C4FDFE
:10181000012038BD04F1100000F01CFE0028F5D0B6
:10182000084B4FF080521A60BFF34F8FBFF36F8F9A
:10183000ECE704F11000FFF7DDFE04F12400FFF7F0
:10184000D9FEE3E704ED00E038B51D46049C0B46E5
:1018500049B12260E063236401212046FFF7B2FF13
:1018600084F84C5038BD2460F4E740B94FF0500381
:1018700083F31188BFF36F8FBFF34F8FFEE7F0B58F
:1018800083B0054611B101FB00F000E000201746CF
:101890000C465030FFF730FC064638B100903B460E
:1018A00000F1500221462846FFF7CEFF304603B034
:1018B000F0BD0000F0B585B0019260B1044699B961
:1018C000026C8AB14FF0500383F31188BFF36F8F1E
:1018D000BFF34F8FFEE74FF0500383F31188BFF340
:1018E0006F8FBFF34F8FFEE7022B0BD1E26B012A04
:1018F00008D04FF0500383F31188BFF36F8FBFF30D
:101900004F8FFEE71E460F4600F03CFE50B9019B8C
:1019100053B14FF0500383F31188BFF36F8FBFF3C0
:101920004F8FFEE700253AE0002538E03246394681
:101930002046FFF7C3FE636A4BB9A8B13B4B4FF09B
:1019400080521A60BFF34F8FBFF36F8F0CE004F12A
:10195000240000F07FFD38B1344B4FF080521A6004
:10196000BFF34F8FBFF36F8FFFF716FD012005B058
:10197000F0BDFFF711FD0020F9E702A800F0B0FD6F
:10198000012519E0002384F8443021E0002384F885
:10199000453023E02046FFF7DEFE00F023FCFFF792
:1019A000D9FCA26BE36B9A42C0D3022EBED0019B3E
:1019B000002BDED0002DE0D0FFF7EEFC00F078FB2E
:1019C000FFF7C8FC94F844305BB2B3F1FF3FD9D0C5
:1019D00094F845305BB2B3F1FF3FD7D0FFF7DCFCA2
:1019E00001A902A800F088FDC8B92046FFF74AFE09
:1019F0000028CFD0019904F1100000F0F7FC204638
:101A0000FFF7A9FE00F0EEFB0028C8D1074B4FF00E
:101A100080521A60BFF34F8FBFF36F8FBFE720462E
:101A2000FFF799FE00F0DEFB0020A0E704ED00E0E8
:101A30002DE9F84360B1044699B9006C88B14FF0C4
:101A4000500383F31188BFF36F8FBFF34F8FFEE70F
:101A50004FF0500383F31188BFF36F8FBFF34F8FA5
:101A6000FEE7022B0BD1E06B012808D04FF05003AA
:101A700083F31188BFF36F8FBFF34F8FFEE71F46CD
:101A800090468946FFF788FDEFF311864FF050032B
:101A900083F31188BFF36F8FBFF34F8FA26BE36B9C
:101AA0009A4203D3022F01D000200FE094F8455052
:101AB0006DB23A4649462046FFF700FEB5F1FF3FBA
:101AC00008D06B1C5BB284F84530012086F3118886
:101AD000BDE8F883636A5BB104F1240000F0BAFC4E
:101AE00040B1B8F1000F07D00120C8F80000EDE7C1
:101AF0000120EBE70120E9E70120E7E7F0B585B039
:101B0000019260B1044699B9036C8BB14FF0500358
:101B100083F31188BFF36F8FBFF34F8FFEE74FF052
:101B2000500383F31188BFF36F8FBFF34F8FFEE72E
:101B30000F4600F027FD50B9019B53B14FF0500301
:101B400083F31188BFF36F8FBFF34F8FFEE700263B
:101B50003EE000263CE039462046FFF7EAFD013D25
:101B6000A563236923B9FFF717FC012005B0F0BD79
:101B700004F1100000F06EFC0028F4D0344B4FF05C
:101B800080521A60BFF34F8FBFF36F8FEBE7FFF701
:101B900003FC0020EAE702A800F0A2FC012621E0F5
:101BA000002384F8443029E0002384F845302BE0FA
:101BB0002046FFF7D0FD00F015FB09E02046FFF7B7
:101BC000CAFD00F00FFB2046FFF76BFD00283DD15A
:101BD000FFF7C0FBA56B002DBDD1019B002BD6D01C
:101BE000002ED8D0FFF7D8FB00F062FAFFF7B2FB67
:101BF00094F844305BB2B3F1FF3FD1D094F8453054
:101C00005BB2B3F1FF3FCFD0FFF7C6FB01A902A83B
:101C100000F072FC0028D1D12046FFF742FD0028D9
:101C2000C6D0019904F1240000F0E0FB2046FFF744
:101C300092FD00F0D7FA0028CAD1054B4FF0805230
:101C40001A60BFF34F8FBFF36F8FC1E700208DE79E
:101C500004ED00E00023072B0CD8074A52F833208C
:101C60000AB10133F7E7044A42F8331002EBC30329
:101C700058607047704700BFA42D012070B504461E
:101C80000D461646FFF766FB94F844305BB2B3F19D
:101C9000FF3F0DD094F845305BB2B3F1FF3F0BD05E
:101CA000FFF77AFBA36B5BB12046FFF754FD70BDD5
:101CB000002384F84430EDE7002384F84530EFE753
:101CC0003246294604F1240000F0A8FBECE70000AE
:101CD000084B1B681B683BB1064B1B68DB68DB6865
:101CE0005A68054B1A607047034B4FF0FF321A6079
:101CF000704700BF542C0120182D012010B5044658
:101D0000006BFFF787FA2046FFF784FA10BD2DE934
:101D1000F04781460D4617469A46089EDDF8248016
:101D20000A9C9200A521206B00F087FF236B07F12E
:101D30008042013A03EB820727F007070023092BB3
:101D400007D8E95CE21882F83410EA5C0AB1013382
:101D5000F5E7002384F83D30052E00D90526E6621C
:101D6000A6640025E564201DFFF74FFC04F1180070
:101D7000FFF74BFC2461C6F10606A6616462256587
:101D800084F85450524649463846FFF7B9FA206065
:101D9000B8F1000F01D0C8F80040BDE8F08700009E
:101DA00038B5002407E004EB840293000E48184481
:101DB000FFF720FC0134052CF5D90C4D2846FFF720
:101DC00019FC0B4C2046FFF715FC0A48FFF712FCE4
:101DD0000948FFF70FFC0948FFF70CFC084B1D6092
:101DE000084B1C6038BD00BF5C2C0120EC2C01208E
:101DF000002D0120202D01204C2D0120382D012007
:101E0000542C0120582C012010B50446FFF7A2FAEB
:101E1000214A136801331360204B1B685BB1204BD0
:101E20001B686BB91D4B1B68DA6AE36A9A4207D8D4
:101E30001A4B1C6004E0194B1C601368012B27D05F
:101E4000184A1368013313602364E36A01229A403D
:101E50001549086802430A6003EB83039A00211DB9
:101E600012481044FFF7D4FBFFF796FA0C4B1B689F
:101E70006BB10A4B1B68DA6AE36A9A4207D20C4BD1
:101E80004FF080521A60BFF34F8FBFF36F8F10BDBA
:101E9000FFF786FFD4E700BFD42C0120502C01208F
:101EA000342D0120E42C0120E82C01205C2C0120A1
:101EB00004ED00E00F4B1B68D3B110B5FFF74AFAF1
:101EC0000D4BDB68DC68201DFFF7C8FB0B4A13686D
:101ED000013B1360074A1368013B1360FFF75CFA8C
:101EE0002046FFF70BFF034B1B68002BE6D110BD0C
:101EF000704700BFD82C01204C2D0120D42C01208C
:101F000070B504460E461D4B1D681D4B1868043005
:101F1000FFF7A4FB50B91A4B1B68DA6A012303FAD6
:101F200002F218490B6823EA02030B60B4F1FF3F89
:101F300013D02C44124B1B685C60A54216D8124B80
:101F400018680F4B19680431FFF76EFB0F4B1B68C5
:101F5000A34212D90D4B1C600FE0002EE9D0084BB4
:101F6000196804310A48FFF753FB06E0094B18686B
:101F7000034B19680431FFF757FB70BD602D01203A
:101F8000502C0120E82C0120542C0120182D012078
:101F9000382D0120582C012008B501E0FEF7BCFDCA
:101FA000FFF788FF064B1B68012BF7D9054B4FF055
:101FB00080521A60BFF34F8FBFF36F8FEEE700BF01
:101FC0005C2C012004ED00E02DE9F04385B00746CC
:101FD0008846154699469000FFF78EF8F8B10646F8
:101FE0005820FFF789F80446A8B10663D4B100234E
:101FF000039302940D9B01930C9B00934B462A463E
:1020000041463846FFF783FE2046FFF7FDFE0120DC
:1020100005B0BDE8F0833046FFF7FCF8E6E74FF087
:10202000FF30F5E74FF0FF30F2E7000000B583B076
:10203000194B019300230093822218491848FFF797
:10204000C3FF012807D0012808D0B0F1FF3F1AD004
:1020500003B05DF804FB00F003FCF4E74FF050031D
:1020600083F31188BFF36F8FBFF34F8F0D4B4FF08A
:10207000FF321A600C4B01221A600C4B00221A60CE
:10208000FFF702FAE4E74FF0500383F31188BFF340
:102090006F8FBFF34F8FFEE7142D01208C2C0008AB
:1020A000991F0008182D0120342D0120602D0120DA
:1020B000024A136801331360704700BFE02C01200F
:1020C000014B1868704700BF602D0120F8B53A4BEE
:1020D0001B68002B64D1394B1D6801351D60C5B9E3
:1020E000374B1B681B6843B14FF0500383F31188D3
:1020F000BFF36F8FBFF34F8FFEE7314A1168314B4B
:10210000186810601960304A136801331360FFF7D4
:10211000DFFD2E4B1B68AB4238D900242C4B1B68CB
:10212000DB6A03EB83039A002A4B9B58012B3CD9B3
:1021300001243AE00124224B1B681B6843B3204B67
:102140001B68DB68DE6873689D4226D3371D3846FE
:10215000FFF784FAB36A1BB106F11800FFF77EFAA5
:10216000F36A01229A401C49086802430A6003EBA3
:1021700083039A00394617481044FFF749FAF26A78
:10218000134B1B68DB6A9A42D4D2D4E70024D2E70F
:102190000E4B4FF0FF321A60C0E70C4A1360BDE7E8
:1021A0000E4A13680133136000240D4B1B6803B102
:1021B00001242046F8BD00BFE02C0120602D012045
:1021C000542C0120582C01201C2D0120182D0120F9
:1021D000502C01205C2C0120E82C0120DC2C01205B
:1021E000642D012038B5334B1B6843B94FF05003C1
:1021F00083F31188BFF36F8FBFF34F8FFEE7FFF7B5
:10220000A9F82C4B1A68013A1A601B68002B4DD1B3
:10221000294B1B6823B90024FFF7BEF8204638BDC0
:102220000024264B1B681BB3244BDB68DC6804F1DD
:102230001800FFF713FA251D2846FFF70FFAE36A87
:1022400001229A401E49086802430A6003EB830397
:102250009A0029461B481044FFF7DAF9E26A1A4B44
:102260001B68DB6A9A42DCD3184B01221A60D8E75C
:102270000CB1FFF72DFD164B1C6854B1FFF726FF7C
:1022800010B1124B01221A60013CF7D1104B002211
:102290001A600E4B1B685BB10E4B4FF080521A60F8
:1022A000BFF34F8FBFF36F8F0124B5E70024B3E76F
:1022B0000024B1E7E02C0120D42C0120202D0120A6
:1022C000E82C01205C2C0120502C0120642D0120E1
:1022D000DC2C012004ED00E010B5A8B104460F4B42
:1022E0001B6843B14FF0500383F31188BFF36F8F26
:1022F000BFF34F8FFEE7FFF7DBFE00212046FFF71D
:10230000FFFDFFF76FFF38B9054B4FF080521A60A1
:10231000BFF34F8FBFF36F8F10BD00BFE02C0120C4
:1023200004ED00E02C4B1B681BB12C4B01221A6002
:10233000704710B5294B00221A60294B1B681B6B94
:102340001A68B2F1A53F03D15A68B2F1A53F1BD07C
:10235000234B186819683431FEF7DFFB214B1B68EB
:10236000B3FA83F3DBB2C3F11F0303EB83018A00EB
:102370001D498A588AB94FF0500383F31188BFF37F
:102380006F8FBFF34F8FFEE79A68B2F1A53FDFD1A1
:10239000DB68B3F1A53FDBD1E0E713489A00D4181E
:1023A000A10001444C6864684C601A4491000831F3
:1023B0000844844209D003EB83039A000A4B134478
:1023C0005B68DA68064B1A6010BD61680648142223
:1023D00002FB03025160EEE7E02C0120642D012096
:1023E000502C0120E82C01205C2C012040B94FF03A
:1023F000500383F31188BFF36F8FBFF34F8FFEE756
:1024000010B50C46044B19681831FFF70DF901217E
:102410002046FFF775FD10BD502C012038B540B99E
:102420004FF0500383F31188BFF36F8FBFF34F8FCB
:10243000FEE70C461546064A11681831FFF7E8F822
:102440000DB14FF0FF3429462046FFF759FD38BD46
:10245000502C012038B5C368DC6844B94FF05003F4
:1024600083F31188BFF36F8FBFF34F8FFEE704F143
:1024700018052846FFF7F2F8134B1B68E3B9251D32
:102480002846FFF7EBF8E36A01229A400F490868F3
:1024900002430A6003EB83039A0029460C48104468
:1024A000FFF7B6F8E26A0B4B1B68DB6A9A4208D961
:1024B0000120094B186038BD29460848FFF7A8F8E5
:1024C000F0E70020F7E700BFE02C0120E82C012016
:1024D0005C2C0120502C0120642D0120202D012096
:1024E000034B1B680360034B1B684360704700BFCE
:1024F0001C2D0120602D0120F8B550B1054689B989
:102500004FF0500383F31188BFF36F8FBFF34F8FEA
:10251000FEE74FF0500383F31188BFF36F8FBFF3D3
:102520004F8FFEE70C46FEF715FF114B19686868E0
:102530000A1A2368B3F1FF3F16D02F680D4E366894
:10254000B74201D0884211D9934203D800232360B7
:10255000012405E09B1A23602846FFF7C1FF0024F1
:10256000FEF71AFF2046F8BD0024F9E70124F7E73B
:10257000602D01201C2D0120014B01221A607047A3
:10258000642D0120054B1B6833B1054B1B680BB153
:10259000002070470220704701207047342D012031
:1025A000E02C0120002849D038B50446264A12689C
:1025B000824208D04FF0500383F31188BFF36F8F2E
:1025C000BFF34F8FFEE7C26C42B94FF0500383F365
:1025D0001188BFF36F8FBFF34F8FFEE7013AC264DC
:1025E000C06AA16C88422BD062BB251D2846FFF72C
:1025F00035F870B9E26A142303FB02F31349CB5890
:102600003BB9012303FA02F211490B6823EA0203E2
:102610000B60A36CE362C3F10602A261012404FA19
:1026200003F20B49086802430A602946074A14204E
:1026300000FB0320FEF7ECFF204638BD002070476A
:102640000020FAE70020F8E7502C01205C2C012044
:10265000E82C012038B505460C46FEF77BFE194BE9
:102660001B681B6D2BB9174B1B68012283F8542084
:10267000ACB9FEF791FEFEF76DFE124B1B681C6DA8
:1026800024B1CDB90F4B1B68621E1A650D4B1B6838
:10269000002283F85420FEF77FFE204638BD114605
:1026A0002046FFF72DFC084B4FF080521A60BFF315
:1026B0004F8FBFF36F8FDCE7024B1B6800221A6558
:1026C000E4E700BF502C012004ED00E0F8B540B96C
:1026D0004FF0500383F31188BFF36F8FBFF34F8F19
:1026E000FEE704460D46FEF757FFEFF311864FF065
:1026F000500383F31188BFF36F8FBFF34F8F94F8AC
:102700005430DBB2022284F85420226D013222655B
:10271000012B02D086F31188F8BDA36A43B14FF0B4
:10272000500383F31188BFF36F8FBFF34F8FFEE722
:10273000144B1B68DBB9271D3846FEF78FFFE26A92
:10274000012393401049086803430B6039460F4B3F
:10275000142000FB0230FEF75BFFE26A0C4B1B68A3
:10276000DB6A9A42D6D945B101232B60D2E704F146
:1027700018010848FEF74CFFEFE7074B01221A60EB
:10278000C8E700BFE02C0120E82C01205C2C0120D0
:10279000502C0120202D0120642D0120064B1A68A9
:1027A0001368B3FA83F35B09036013B9D36818683D
:1027B00070470020704700BF682D012008B54160B8
:1027C000006191420CD8D21A83699A4201D3012048
:1027D00010E0011D094B1868FEF726FF002009E0F4
:1027E0009A4201D2994206D2011D054B1868FEF7A4
:1027F0001BFF002008BD0120FCE700BF6C2D01205D
:10280000682D012038B5FEF7A5FD0F4B1B6813B1ED
:10281000FEF7C2FD38BD0D4D2846FEF7EBFE0C4C11
:102820002046FEF7E7FE0B4B1D600B4B1C600022A1
:102830000C210A20FFF719F8034B18600028E7D095
:102840000649FFF707FAE3E79C2D0120702D0120D0
:10285000842D0120682D01206C2D0120942C00086E
:1028600000B583B0FFF7CEFF0D4B1B685BB10D4B7E
:1028700001930223009300234FF482720A490B480C
:10288000FFF7A2FB40B94FF0500383F31188BFF369
:102890006F8FBFF34F8FFEE703B05DF804FB00BFFF
:1028A0009C2D0120A02D01209C2C0008752B0008D8
:1028B000C8B130B585B015460446174A106840B314
:1028C0001A4601910295039405291DDCFFF75AFE73
:1028D000022811D000231A4601A90F480068FEF70C
:1028E000E9FF05B030BD4FF0500383F31188BFF30B
:1028F0006F8FBFF34F8FFEE70023089A01A90648A8
:102900000068FEF7D7FFECE7002301A9FFF790F876
:10291000E7E70020E5E700BF9C2D012070B582B0FD
:102920001A4B1B681A6852B3DB681E68DC68251DE9
:102930002846FEF793FE636A20469847E369012B19
:10294000EED1A36933449E4207D2636024612946D5
:102950000E4B1868FEF768FEE2E7002100910B4677
:1029600032462046FFF7A4FF0028D9D14FF050038C
:1029700083F31188BFF36F8FBFF34F8FFEE7044AD5
:10298000106802490860136002B070BD682D012014
:102990006C2D012038B50546FFF792FB0446074B26
:1029A0001B68834205D800232B60044B1C60204623
:1029B00038BDFFF7B3FF01232B60F6E7982D012008
:1029C00070B582B005460E46144B1B68DB68DC68A8
:1029D000201DFEF743FEE369012B04D0636A204605
:1029E000984702B070BDA1692B4632462944204663
:1029F000FFF7E4FE0028F1D0002100910B462A46A3
:102A00002046FFF755FF0028E8D14FF0500383F32D
:102A10001188BFF36F8FBFF34F8FFEE7682D012042
:102A200070B582B006460C46FFF742FB01A8FFF7DF
:102A3000B1FF019B1BBB05460CB9B04218D22CB1AB
:102A4000114B1B681C68B4FA84F464092246711B9C
:102A50000E4B1868FFF712F9FFF7C4FB88B90C4B4F
:102A60004FF080521A60BFF34F8FBFF36F8F08E0B3
:102A7000FFF7B8FB29463046FFF7A2FF01E0FFF75A
:102A8000B1FB02B070BD00BF6C2D01209C2D012058
:102A900004ED00E030B587B0002203A9344B18687C
:102AA000FFF72CF8002860D0039B002BF4DB059C7B
:102AB000636913B1201DFEF7D1FD02A8FFF76AFF7D
:102AC000039B092BE8D801A252F823F0F52A00084D
:102AD000F52A0008F52A0008992A00083D2B00086D
:102AE000632B0008F52A0008F52A0008992A000837
:102AF0003D2B00080499A5690B460246294420464F
:102B0000FFF75CFE0028C7D0636A20469847E36958
:102B1000012BC1D1A269002100910B460498024407
:102B20002046FFF7C5FE0028B6D14FF0500383F3CF
:102B30001188BFF36F8FBFF34F8FFEE70499A16138
:102B400031B10346024601442046FFF737FEA3E7B2
:102B50004FF0500383F31188BFF36F8FBFF34F8F94
:102B6000FEE72046FEF756FB96E707B030BD00BFF4
:102B70009C2D012000B583B001A8FFF70FFE01993D
:102B8000FFF74EFFFFF786FFF6E70000DFF830D0D3
:102B9000002103E00B4B5B58435004310A480B4BB8
:102BA00042189A42F6D30A4A02E0002342F8043B54
:102BB000084B9A42F9D300F011F8FEF711F870476C
:102BC00000000220AC2C0008000000200C000020B7
:102BD0000C000020E42D0120FEE7000070B50D4E32
:102BE0000D4CA41BA4100025A54209D10B4E0C4C82
:102BF00000F02CF8A41BA4100025A54205D170BD3F
:102C000056F8253098470135EEE756F825309847B5
:102C10000135F2E7A42C0008A42C0008A42C00081D
:102C2000A82C000810B5431E0A44914200D110BDE3
:102C300011F8014B03F8014FF7E7024403469342B2
:102C400000D1704703F8011BF9E70000F8B500BF99
:102C5000F8BC08BC9E467047F8B500BFF8BC08BC7D
:042C60009E467047D5
:102C640069646C655F7461736B0000007461736BFD
:102C74005F72656365697665000000007461736B5B
:102C84005F73656E6400000049444C450000000019
:102C9400546D725100000000546D7220537663002D
:042CA400C50100085E
:042CA800A10100087E
:0C2CAC000C00000001000000AAAAAAAA67
:0400000508002B8D37
:00000001FF
