:020000040800F2
:10000000000002208D1000089D0B00089F0B0008C7
:10001000A10B0008A30B0008A50B000800000000BE
:10002000000000000000000000000000A70B000816
:10003000A90B000800000000AB0B0008AD0B000886
:10004000D9100008D9100008D9100008D9100008EC
:10005000D9100008D9100008350B0008310B000832
:10006000D9100008D9100008D9100008D9100008CC
:10007000D9100008D9100008D9100008D9100008BC
:10008000D9100008D9100008D9100008000000009D
:10009000000000000000000000000000D91000086F
:1000A000D9100008D9100008D9100008D91000088C
:1000B000E90A0008D9100008D9100008D910000872
:1000C000D9100008D9100008D9100008D91000086C
:1000D000D9100008790B0008D910000800000000B2
:1000E000D9100008D9100008D9100008000000003D
:1000F000000000000000000000000000D91000080F
:1001000000000000D9100008D9100008D91000081C
:1001100000000000000000000000000000000000DF
:10012000D9100008D91000085D0B0008D91000088C
:10013000D9100008000000000000000000000000CE
:10014000000000000000000000000000D9100008BE
:10015000D9100008D9100008D9100008D9100008DB
:10016000D9100008D91000080000000000000000AD
:10017000000000000000000000000000000000007F
:1001800000000000D910000800000000000000007E
:08019000D9100008D910000885
:1001980010B5054C237833B9044B13B10448AFF3B9
:1001A80000800123237010BD000000200000000023
:1001B8002411000808B5034B1BB103490348AFF3EA
:1001C800008008BD00000000040000202411000881
:1001D80081F0004102E000BF83F0004330B54FEAF0
:1001E80041044FEA430594EA050F08BF90EA020F5D
:1001F8001FBF54EA000C55EA020C7FEA645C7FEAF0
:10020800655C00F0E2804FEA5454D4EB5555B8BF12
:100218006D420CDD2C4480EA020281EA030382EA83
:10022800000083EA010180EA020281EA0303362D15
:1002380088BF30BD11F0004F4FEA01314FF4801CE8
:100248004CEA113102D0404261EB410113F0004FFA
:100258004FEA03334CEA133302D0524263EB4303B1
:1002680094EA050F00F0A780A4F10104D5F1200E4F
:100278000DDB02FA0EFC22FA05F2801841F10001AA
:1002880003FA0EF2801843FA05F359410EE0A5F17E
:1002980020050EF1200E012A03FA0EFC28BF4CF0AF
:1002A800020C43FA05F3C01851EBE37101F0004565
:1002B80007D54FF0000EDCF1000C7EEB00006EEB72
:1002C8000101B1F5801F1BD3B1F5001F0CD34908FC
:1002D8005FEA30004FEA3C0C04F101044FEA445253
:1002E80012F5800F80F09A80BCF1004F08BF5FEADA
:1002F800500C50F1000041EB045141EA050130BDBA
:100308005FEA4C0C404141EB010111F4801FA4F15C
:100318000104E9D191F0000F04BF01460020B1FAB1
:1003280081F308BF2033A3F10B03B3F120020CDAE9
:100338000C3208DD02F1140CC2F10C0201FA0CF0C7
:1003480021FA02F10CE002F11402D8BFC2F1200C2C
:1003580001FA02F120FA0CFCDCBF41EA0C019040E2
:10036800E41AA2BF01EB0451294330BD6FEA04042B
:100378001F3C1CDA0C340EDC04F11404C4F1200216
:1003880020FA04F001FA02F340EA030021FA04F328
:1003980045EA030130BDC4F10C04C4F1200220FA7F
:1003A80002F001FA04F340EA0300294630BD21FABD
:1003B80004F0294630BD94F0000F83F4801306BF83
:1003C80081F480110134013D4EE77FEA645C18BF77
:1003D8007FEA655C29D094EA050F08BF90EA020F0E
:1003E80005D054EA000C04BF1946104630BD91EA06
:1003F800030F1EBF0021002030BD5FEA545C05D109
:100408004000494128BF41F0004130BD14F5800447
:100418003CBF01F5801130BD01F0004545F0FE41BB
:1004280041F470014FF0000030BD7FEA645C1ABFF0
:10043800194610467FEA655C1CBF0B46024650EA27
:10044800013406BF52EA033591EA030F41F4002153
:1004580030BD00BF90F0000F04BF0021704730B5D9
:100468004FF4806404F132044FF000054FF00001AE
:1004780050E700BF90F0000F04BF0021704730B56F
:100488004FF4806404F1320410F0004548BF404244
:100498004FF000013EE700BF42004FEAE2014FEA99
:1004A80031014FEA02701FBF12F07F4393F07F4F74
:1004B80081F06051704732F07F4208BF704793F077
:1004C8007F4F04BF41F40021704730B54FF460748A
:1004D80001F0004521F000411CE700BF50EA01028D
:1004E80008BF704730B54FF000050AE050EA010236
:1004F80008BF704730B511F0004502D5404261EBA6
:1005080041014FF4806404F132045FEA915C3FF4E6
:10051800D8AE4FF003025FEADC0C18BF03325FEA83
:10052800DC0C18BF033202EBDC02C2F1200300FA34
:1005380003FC20FA02F001FA03FE40EA0E0021FA59
:1005480002F11444BDE600BF70B54FF0FF0C4CF447
:10055800E06C1CEA11541DBF1CEA135594EA0C0FF9
:1005680095EA0C0F00F0DEF82C4481EA030621EA34
:100578004C5123EA4C5350EA013518BF52EA03356F
:1005880041F4801143F4801338D0A0FB02CE4FF021
:100598000005E1FB02E506F00042E0FB03E54FF051
:1005A8000006E1FB03569CF0000F18BF4EF0010E49
:1005B800A4F1FF04B6F5007F64F5407404D25FEA45
:1005C8004E0E6D4146EB060642EAC62141EA5551F8
:1005D8004FEAC52040EA5E504FEACE2EB4F1FD0C3A
:1005E80088BFBCF5E06F1ED8BEF1004F08BF5FEAB8
:1005F800500E50F1000041EB045170BD06F000466A
:1006080046EA010140EA020081EA0301B4EB5C0416
:10061800C2BFD4EB0C0541EA045170BD41F480110E
:100628004FF0000E013C00F3AB8014F1360FDEBF33
:10063800002001F0004170BDC4F10004203C35DA0F
:100648000C341BDC04F11404C4F1200500FA05F392
:1006580020FA04F001FA05F240EA020001F0004233
:1006680021F0004110EBD37021FA04F642EB0601A9
:100678005EEA430E08BF20EAD37070BDC4F10C04D3
:10068800C4F1200500FA04F320FA05F001FA04F297
:1006980040EA020001F0004110EBD37041F1000183
:1006A8005EEA430E08BF20EAD37070BDC4F120058E
:1006B80000FA05F24EEA020E20FA04F301FA05F2F6
:1006C80043EA020321FA04F001F0004121FA04F29E
:1006D80020EA020000EBD3705EEA430E08BF20EA6E
:1006E800D37070BD94F0000F0FD101F000464000A8
:1006F80041EB010111F4801F08BF013CF7D041EA2A
:10070800060195F0000F18BF704703F0004652002D
:1007180043EB030313F4801F08BF013DF7D043EAFE
:100728000603704794EA0C0F0CEA135518BF95EAB4
:100738000C0F0CD050EA410618BF52EA4306D1D13B
:1007480081EA030101F000414FF0000070BD50EA5A
:10075800410606BF1046194652EA430619D094EAE4
:100768000C0F02D150EA013613D195EA0C0F05D1CE
:1007780052EA03361CBF104619460AD181EA030122
:1007880001F0004141F0FE4141F470014FF00000DA
:1007980070BD41F0FE4141F4780170BD70B54FF075
:1007A800FF0C4CF4E06C1CEA11541DBF1CEA1355F5
:1007B80094EA0C0F95EA0C0F00F0A7F8A4EB0504D7
:1007C80081EA030E52EA03354FEA013100F08880CE
:1007D8004FEA03334FF0805545EA131343EA126397
:1007E8004FEA022245EA111545EA10654FEA00264C
:1007F8000EF000419D4208BF964244F1FD0404F505
:10080800407402D25B084FEA3202B61A65EB030560
:100818005B084FEA32024FF480104FF4002CB6EB1D
:10082800020E75EB030E22BFB61A754640EA0C009D
:100838005B084FEA3202B6EB020E75EB030E22BFDD
:10084800B61A754640EA5C005B084FEA3202B6EB1E
:10085800020E75EB030E22BFB61A754640EA9C00DD
:100868005B084FEA3202B6EB020E75EB030E22BFAD
:10087800B61A754640EADC0055EA060E18D04FEA6B
:10088800051545EA16754FEA06164FEAC30343EA0B
:1008980052734FEAC2025FEA1C1CC0D111F4801FD8
:1008A8000BD141EA00014FF000004FF0004CB6E7D1
:1008B80011F4801F04BF01430020B4F1FD0C88BF70
:1008C800BCF5E06F3FF6AFAEB5EB030C04BFB6EB7B
:1008D800020C5FEA500C50F1000041EB045170BD6E
:1008E8000EF0004E4EEA113114EB5C04C2BFD4EB9B
:1008F8000C0541EA045170BD41F480114FF0000E1F
:10090800013C90E645EA060E8DE60CEA135594EA9A
:100918000C0F08BF95EA0C0F3FF43BAF94EA0C0F9D
:100928000AD150EA01347FF434AF95EA0C0F7FF412
:1009380025AF104619462CE795EA0C0F06D152EA66
:1009480003353FF4FDAE1046194622E750EA41064A
:1009580018BF52EA43067FF4C5AE50EA41047FF45B
:100968000DAF52EA43057FF4EBAE12E74FEA4102BE
:10097800B2F1E04324BFB3F5001CDCF1FE5C0DD9F5
:1009880001F0004C4FEAC0024CEA5070B2F1004F3F
:1009980040EB830008BF20F00100704711F0804F42
:1009A80021D113F13872BCBF01F00040704741F407
:1009B80080114FEA5252C2F11802C2F1200C10FA0B
:1009C8000CF320FA02F018BF40F001004FEAC123EF
:1009D8004FEAD32303FA0CFC40EA0C0023FA02F393
:1009E8004FEA4303CCE77FEA625307D150EA013369
:1009F8001EBF4FF0FE4040F44000704701F0004039
:100A080040F0FE4040F40000704700BF034A1368FE
:100A180043F4800343F08A03136070473038024080
:100A280070B586B04FF4404300930224019400252A
:100A38000295039504940594094E6946304600F0E2
:100A4800E1F94FF470430093012301930295039554
:100A580004946946304600F0D5F906B070BD00BF71
:100A6800000C024000B587B00024029404260196C9
:100A7800009402230122C821082000F009FAFFF798
:100A8800C5FF00F0EFFAFFF7CBFF114D0594049472
:100A980003940294012301930093234632460221D2
:100AA800284600F077F94FF416521021642000F020
:100AB8001BF9084B084A0221284600F095F900F076
:100AC80061F900F08BF8054800F0D0F8FEE700BFA8
:100AD80000640240041001401C0000203C11000882
:100AE80008B54FF480510D4800F0CEF90C4B1B6847
:100AF80013F0020F09D10A4A136823F001031360A7
:100B0800084B4FF080521A6008BD4FF480410348EB
:100B180000F0BAF9024B00221A60ECE7000C024020
:100B28001000004080E200E07047000008B54FF474
:100B38000041054800F0A8F9044B01221A60044B53
:100B480040221A6008BD00BF000C0240143C01405E
:100B580080E200E008B5044B187800F077F8034B02
:100B68004FF400121A6008BD1C00002008640240FF
:100B780082B0074B1B6803F040030193019B23B12C
:100B8800034A136823F04003136002B0704700BFA4
:100B9800001001407047FEE7FEE7FEE7FEE77047FA
:100BA800704770477047800800F1605000F5645046
:100BB80080000368090101F47F61194301607047EF
:100BC800430903F1382340339B00196800F01F02E2
:100BD80001209040084318607047000008B5194A82
:100BE800136843F0030313600832136843F00303E8
:100BF8001360A2F58062136823F0FF0313600F21CE
:100C08000620FFF7D0FF0F210720FFF7CCFF0620B3
:100C1800FFF7D6FF0720FFF7D3FF0F213A20FFF792
:100C2800C2FF3A20FFF7CCFF074A136843F060037E
:100C380013600A212520FFF7B6FF2520FFF7C0FF24
:100C480062B608BD003C01400C100140054B1B6812
:100C580013F0800F03D0044B186001207047002068
:100C6800704700BF001001400410014010B5044651
:100C7800207828B1FFF7EAFF0028F9D00134F7E718
:100C880010BD000030B4144A136843F01003136019
:100C9800124D2B6823F4404141F40041104C236865
:100CA80023F4404242F480420E48036823F0704324
:100CB80043F0E04321F4405141F40051296022F40B
:100CC800405242F48052226023F0706343F0E063A4
:100CD800036030BC704700BF443802400004024043
:100CE8000C04024020040240F8B50C461546FFF7F4
:100CF800B1FB22A3D3E90023FFF726FC06460F46E3
:100D080004FB05F0FFF7A6FB02460B4630463946C2
:100D1800FFF744FDFFF72AFE07EE900AFCEEE76AAC
:100D2800B8EE667A77EEC77A07EE104AB8EE477AD9
:100D380067EE877AFCEEE77A17EE903A16EE902A7D
:100D480043EA0214FFF79EFF09490B6843F4005376
:100D58000848026822F440520260074A146023F4EB
:100D6800174323F0080343F00C030B60F8BD00BFE2
:100D78000C10014010100140081001400000000054
:100D880080842E41024A136843F040031360704781
:100D98001410014010B401EB4101CC00204401695A
:100DA80001F0010101610029FDD1012141610469BE
:100DB8000199090241EA8313029943EA41230399FD
:100DC80043EA8123049943EAC123059943EA41335D
:100DD800069943EA014343EA4263234343F01E036F
:100DE80003615DF8044B704710B401EB4101CC007E
:100DF80020448361C261036943F0010303615DF824
:100E0800044B704700230F2B3DD8F0B410E000F1DD
:100E18002006356803F0070294000F22A24025EA55
:100E280002054A69A2402A43326001330F2B28D8B1
:100E38000A6801249C402242F7D005685E0003221C
:100E4800B240D24305EA02074D68B5403D4305600C
:100E5800456825EA04048D689D4025434560C568BA
:100E680002EA0504CD68B5402543C5608468224080
:100E78000C69B44022438260072BC8D900F12406CC
:100E8800C7E7F0BC704770474369594041617047F4
:100E980030B482B06D4D2C680194019C44F4700408
:100EA8000194019C2C606A4C0025256038344FF46D
:100EB80080452560043C4FF080552560654D2C68C1
:100EC80024F440440194019C44F440440194019C5E
:100ED8002C6005F5E4352C6824F480240194019CE9
:100EE8000194019C2C6024F480340194019C44F406
:100EF80080340194019C2C60FF240094009C013CE8
:100F08000094554C246814F4003F02D1009D002D34
:100F1800F4D124F080740194019D4F4C256040F673
:100F2800FF740094009C013C00944B4C246814F01E
:100F3800007F02D0009C002CF4D1484C032525608A
:100F4800A4F57F74256825F03F050195019D284388
:100F580001900198206020F4FF4020F040000190AB
:100F6800019840EA811101910199216021F44031F1
:100F78000191019941EA02420192019A226036499F
:100F88000A6822F080720192019A42F080720192FE
:100F9800019A0A604FF6FF720092009A013A009295
:100FA8002D4A126812F0007F02D1009A002AF4D16B
:100FB8002B4A116821F0F00101910199049841EA46
:100FC800001101910199116021F4E05101910199F9
:100FD80041F4E05101910199116021F460410191BE
:100FE800019941F4604101910199116021F00301D7
:100FF8000191019919430191019911606FF07F42A4
:101008000092009A013A0092154A126802F00C0107
:10101800B1EB830F02D000990029F2D122F4E052FB
:101028000192019B059A43EA82230193019B0C4A92
:10103800136023F460430193019B069943EA8123DB
:101048000193019B136002B030BC704788ED00E04B
:101058000C3802400070004000380240003C02405A
:1010680008380240054A136823F0050343F00403D7
:101078001360034B00221A60704700BF10E000E0C5
:1010880018E000E0DFF830D0002103E00B4B5B589C
:10109800435004310A480B4B42189A42F6D30A4A85
:1010A80002E0002342F8043B084B9A42F9D300F0CF
:1010B80011F8FFF7D7FC7047000002206011000804
:1010C8000000002000000020000000202000002078
:1010D800FEE7000070B50D4E0D4CA41BA4100025B2
:1010E800A54209D10B4E0C4C00F018F8A41BA41013
:1010F8000025A54205D170BD56F825309847013521
:10110800EEE756F8253098470135F2E75811000800
:1011180058110008581100085C110008F8B500BF04
:10112800F8BC08BC9E467047F8B500BFF8BC08BCC0
:041138009E46704718
:10113C0048454C4C4F2046524F4D204D4355205363
:0C114C00544D333220212121000000000E
:04115800BD010008CD
:04115C0099010008ED
:040000050800108D52
:00000001FF
