:020000040800F2
:1000000000000220110600080D0300080F0300087D
:100010001103000813030008150300080000000086
:1000200000000000000000000000000017030008AE
:1000300019030008000000001B0300081D0300084E
:100040005D0600085D0600085D0600085D06000804
:100050005D0600085D060008A5020008A102000870
:100060005D0600085D0600085D0600085D060008E4
:100070005D0600085D0600085D0600085D060008D4
:100080005D0600085D0600085D060008000000002F
:100090000000000000000000000000005D060008F5
:1000A0005D0600085D0600085D0600085D060008A4
:1000B000590200085D0600085D0600085D0600089C
:1000C0005D0600085D0600085D0600085D06000884
:1000D0005D060008E90200085D0600080000000057
:1000E0005D0600085D0600085D06000800000000CF
:1000F0000000000000000000000000005D06000895
:10010000000000005D0600085D0600085D060008AE
:1001100000000000000000000000000000000000DF
:100120005D0600085D060008CD0200085D060008B7
:100130005D06000800000000000000000000000054
:100140000000000000000000000000005D06000844
:100150005D0600085D0600085D0600085D060008F3
:100160005D0600085D0600080000000000000000B9
:10017000000000000000000000000000000000007F
:10018000000000005D060008000000000000000004
:080190005D0600085D06000891
:1001980010B5054C237833B9044B13B10448AFF3B9
:1001A80000800123237010BD000000200000000023
:1001B800A806000808B5034B1BB103490348AFF371
:1001C800008008BD0000000004000020A806000808
:1001D800054A136843F0890313601032136843F02B
:1001E80004031360704700BF3038024000B587B081
:1001F80001230093022201920021029103910492AB
:1002080005936946024800F0BFF807B05DF804FBA3
:100218000000024000B585B0002302930422019239
:10022800009302230122C821082000F0F3F8FFF709
:10023800CFFF00F0D9F9054A136843F001031360B2
:1002480000F07AF8FFF7D2FFFEE700BF403802401F
:1002580008B54FF480510D4800F0D8F80C4B1B68D6
:1002680013F0020F09D10A4A136823F0010313603F
:10027800084B4FF080521A6008BD4FF48041034884
:1002880000F0C4F8024B00221A60ECE7000C0240B0
:100298001000004080E200E07047000008B54FF40D
:1002A8000041054800F0B2F8044B01221A60044BE3
:1002B80040221A6008BD00BF000C0240143C0140F7
:1002C80080E200E008B5044B187800F025F8034BED
:1002D8004FF400121A6008BD1C0000200864024098
:1002E80082B0074B1B6803F040030193019B23B1C5
:1002F800034A136823F04003136002B0704700BF3D
:10030800001001407047FEE7FEE7FEE7FEE7704792
:100318007047704770470000054B1B6813F0800F4B
:1003280003D0044B1860012070470020704700BFBD
:100338000010014004100140124A136823F003031F
:1003480043F0010323F0F00343F030031360083255
:10035800136823F00F031360183A136843F0070378
:1003680023F0700343F0500313600C32136843F01A
:10037800010313604FF08042136843F001031360D8
:10038800704700BF1800004000230F2B3DD8F0B481
:1003980010E000F12006356803F0070294000F22F0
:1003A800A24025EA02054A69A2402A433260013385
:1003B8000F2B28D80A6801249C402242F7D00568F0
:1003C8005E000322B240D24305EA02074D68B540F9
:1003D8003D430560456825EA04048D689D40254332
:1003E8004560C56802EA0504CD68B5402543C56087
:1003F800846822400C69B44022438260072BC8D924
:1004080000F12406C7E7F0BC7047704743695940BC
:100418004161704730B482B06D4D2C680194019CE5
:1004280044F470040194019C2C606A4C00252560FA
:1004380038344FF480452560043C4FF080552560E2
:10044800654D2C6824F440440194019C44F44044D4
:100458000194019C2C6005F5E4352C6824F4802473
:100468000194019C0194019C2C6024F48034019433
:10047800019C44F480340194019C2C60FF24009476
:10048800009C013C0094554C246814F4003F02D1B0
:10049800009D002DF4D124F080740194019D4F4CEF
:1004A800256040F6FF740094009C013C00944B4C7E
:1004B800246814F0007F02D0009C002CF4D1484C32
:1004C80003252560A4F57F74256825F03F0501956F
:1004D800019D284301900198206020F4FF4020F0FE
:1004E80040000190019840EA811101910199216031
:1004F80021F440310191019941EA02420192019AA5
:10050800226036490A6822F080720192019A42F00C
:1005180080720192019A0A604FF6FF720092009A67
:10052800013A00922D4A126812F0007F02D1009A17
:10053800002AF4D12B4A116821F0F00101910199A8
:10054800049841EA001101910199116021F4E051E8
:100558000191019941F4E05101910199116021F44F
:1005680060410191019941F4604101910199116043
:1005780021F0030101910199194301910199116039
:100588006FF07F420092009A013A0092154A126871
:1005980002F00C01B1EB830F02D000990029F2D1CF
:1005A80022F4E0520192019B059A43EA82230193C7
:1005B800019B0C4A136023F460430193019B069945
:1005C80043EA81230193019B136002B030BC70475A
:1005D80088ED00E00C38024000700040003802400E
:1005E800003C024008380240054A136823F005031E
:1005F80043F004031360034B00221A60704700BFE6
:1006080010E000E018E000E0DFF830D0002103E05F
:100618000B4B5B58435004310A480B4B42189A4223
:10062800F6D30A4A02E0002342F8043B084B9A42F8
:10063800F9D300F011F8FFF7EDFD70470000022034
:10064800C80600080000002000000020000000206C
:1006580020000020FEE7000070B50D4E0D4CA41BD5
:10066800A4100025A54209D10B4E0C4C00F018F837
:10067800A41BA4100025A54205D170BD56F825304D
:1006880098470135EEE756F8253098470135F2E7E7
:10069800C0060008C0060008C0060008C406000816
:1006A800F8B500BFF8BC08BC9E467047F8B500BF57
:0806B800F8BC08BC9E46704727
:0406C000BD01000870
:0406C4009901000890
:0400000508000611D8
:00000001FF
