:020000040800F2
:100000000000022075020008610200086302000877
:10001000650200086702000869020008000000008D
:100020000000000000000000000000006B0200085B
:100030006D020008000000006F0200087102000855
:10004000C1020008C1020008C1020008C102000884
:10005000C1020008C1020008C1020008C102000874
:10006000C1020008C1020008C1020008C102000864
:10007000C1020008C1020008C1020008C102000854
:10008000C1020008C1020008C1020008000000000F
:10009000000000000000000000000000C102000895
:1000A000C1020008C1020008C1020008C102000824
:1000B000C1020008C1020008C1020008C102000814
:1000C000C1020008C1020008C1020008C102000804
:1000D000C1020008C1020008C102000800000000BF
:1000E000C1020008C1020008C102000800000000AF
:1000F000000000000000000000000000C102000835
:1001000000000000C1020008C1020008C10200088E
:1001100000000000000000000000000000000000DF
:10012000C1020008C1020008C1020008C1020008A3
:10013000C1020008000000000000000000000000F4
:10014000000000000000000000000000C1020008E4
:10015000C1020008C1020008C1020008C102000873
:10016000C1020008C10200080000000000000000F9
:10017000000000000000000000000000000000007F
:1001800000000000C10200080000000000000000A4
:08019000C1020008C1020008D1
:1001980010B5054C237833B9044B13B10448AFF3B9
:1001A80000800123237010BD000000200000000023
:1001B8000C03000808B5034B1BB103490348AFF310
:1001C800008008BD00000000040000200C030008A7
:1001D800034A136823F0405343F080531360704779
:1001E800000C0240012303FA00F0014B186070472D
:1001F800180C02401030012303FA00F0014B18607C
:10020800704700BF180C0240002106E000BF013310
:1002180040F6FE729342F9D90131814201D200239E
:10022800F6E77047024A136843F008031360704703
:100238003038024008B5FFF7F5FFFFF7C9FF0E2079
:10024800FFF7D0FFC820FFF7DFFF0E20FFF7D2FF30
:10025800C820FFF7D9FFF2E77047FEE7FEE7FEE7A1
:10026800FEE770477047704770470000DFF830D0EE
:10027800002103E00B4B5B58435004310A480B4BF9
:1002880042189A42F6D30A4A02E0002342F8043B95
:10029800084B9A42F9D300F011F8FFF7CBFF7047EB
:1002A800000002202C0300080000002000000020AD
:1002B800000000201C000020FEE7000070B50D4E75
:1002C8000D4CA41BA4100025A54209D10B4E0C4CC3
:1002D80000F018F8A41BA4100025A54205D170BD94
:1002E80056F8253098470135EEE756F825309847F7
:1002F8000135F2E72403000824030008240300085A
:1003080028030008F8B500BFF8BC08BC9E46704733
:0C031800F8B500BFF8BC08BC9E4670475A
:04032400BD0100080F
:04032800990100082F
:040000050800027578
:00000001FF
