:020000040800F2
:1000000000000220B1060008490300084B03000865
:100010004D0300084F0300085103000800000000D2
:100020000000000000000000000000005303000872
:10003000550300080000000057030008590300089A
:10004000FD060008FD060008FD060008FD06000884
:10005000FD060008FD060008E1020008DD020008B8
:10006000FD060008FD060008FD060008FD06000864
:10007000FD060008FD060008FD060008FD06000854
:10008000FD060008FD060008FD060008000000004F
:10009000000000000000000000000000FD06000855
:1000A000FD060008FD060008FD060008FD06000824
:1000B00095020008FD060008FD060008FD06000880
:1000C000FD060008FD060008FD060008FD06000804
:1000D000FD06000809030008FD06000800000000F6
:1000E000FD060008FD060008FD06000800000000EF
:1000F000000000000000000000000000FD060008F5
:1001000000000000FD060008FD060008FD060008CE
:1001100000000000000000000000000000000000DF
:10012000FD060008FD060008FD060008FD060008A3
:10013000FD060008000000000000000000000000B4
:10014000000000000000000000000000FD060008A4
:10015000FD060008FD060008FD060008FD06000873
:10016000FD060008FD060008000000000000000079
:10017000000000000000000000000000000000007F
:1001800000000000FD060008000000000000000064
:08019000FD060008FD06000851
:1001980010B5054C237833B9044B13B10448AFF3B9
:1001A80000800123237010BD000000200000000023
:1001B8004807000808B5034B1BB103490348AFF3D0
:1001C800008008BD00000000040000204807000867
:1001D800054A136843F0880313601032136843F02C
:1001E80004031360704700BF3038024000B587B081
:1001F8004FF440430093022301930022029203929A
:10020800049305936946034800F0D2F807B05DF8F7
:1002180004FB00BF000C0240F0B585B00027029730
:1002280004260196009702230122C821082000F025
:1002380005F9FFF7CDFF00F0EBF9FFF7D7FF00F066
:1002480089F8104B14221A600F4800F028FAC824C5
:1002580003E07642142000F003FA0B4D04222146F5
:10026800284600F00DFA03223946284600F008FA1D
:100278003444C4F5C877B4F5C87FEAD0002CE9D176
:10028800E7E700BF280800400008004008B54FF421
:1002980080510D4800F0CEF80C4B1B6813F0020F8C
:1002A80009D10A4A136823F001031360084B4FF081
:1002B80080521A6008BD4FF48041034800F0BAF834
:1002C800024B00221A60ECE7000C024010000040CC
:1002D80080E200E07047000008B54FF4004105488F
:1002E80000F0A8F8044B01221A60044B40221A605F
:1002F80008BD00BF000C0240143C014080E200E051
:1003080082B00C4B1B6803F040030193019B23B19F
:10031800084A136823F040031360064B1B6803F078
:1003280020030193019B1BB1034B1A78034B1A70EE
:1003380002B0704700100140041001401C0000206A
:100348007047FEE7FEE7FEE7FEE770477047704735
:100358007047000030B41348036813490A6822F450
:10036800704223F4E64343F4C04323F070030F4C78
:100378004FF4C87525600834C825256043F4066322
:1003880043F0080303601C38036843F080030360EC
:100398001430036843F00103036042F488520A6092
:1003A80030BC70471C080040200800402C08004062
:1003B80000230F2B3DD8F0B410E000F1200635687B
:1003C80003F0070294000F22A24025EA02054A69B9
:1003D800A2402A43326001330F2B28D80A6801242F
:1003E8009C402242F7D005685E000322B240D24307
:1003F80005EA02074D68B5403D430560456825EAB2
:1004080004048D689D4025434560C56802EA0504DB
:10041800CD68B5402543C560846822400C69B44066
:1004280022438260072BC8D900F12406C7E7F0BC35
:1004380070477047436959404161704730B482B092
:100448006D4D2C680194019C44F470040194019C46
:100458002C606A4C0025256038344FF480452560AF
:10046800043C4FF080552560654D2C6824F44044C9
:100478000194019C44F440440194019C2C6005F5CE
:10048800E4352C6824F480240194019C0194019C97
:100498002C6024F480340194019C44F48034019449
:1004A800019C2C60FF240094009C013C0094554C56
:1004B800246814F4003F02D1009D002DF4D124F0EB
:1004C80080740194019D4F4C256040F6FF740094A0
:1004D800009C013C00944B4C246814F0007F02D02F
:1004E800009C002CF4D1484C03252560A4F57F74AA
:1004F800256825F03F050195019D28430190019845
:10050800206020F4FF4020F040000190019840EA6C
:10051800811101910199216021F4403101910199E2
:1005280041EA02420192019A226036490A6822F0A1
:1005380080720192019A42F080720192019A0A60D7
:100548004FF6FF720092009A013A00922D4A126803
:1005580012F0007F02D1009A002AF4D12B4A1168C8
:1005680021F0F00101910199049841EA00110191EB
:100578000199116021F4E0510191019941F4E05190
:1005880001910199116021F460410191019941F4AF
:10059800604101910199116021F0030101910199D4
:1005A80019430191019911606FF07F420092009AFE
:1005B800013A0092154A126802F00C01B1EB830F60
:1005C80002D000990029F2D122F4E0520192019B55
:1005D800059A43EA82230193019B0C4A136023F492
:1005E80060430193019B069943EA81230193019B90
:1005F800136002B030BC704788ED00E00C38024050
:100608000070004000380240003C024008380240B8
:10061800054A136823F0050343F004031360034BF2
:1006280000221A60704700BF10E000E018E000E008
:10063800054B1860043300221A60044A136843F01B
:1006480001031360704700BF14E000E010E000E011
:10065800024B588800F00100704700BF10E000E02E
:1006680010B5400008E04CF24F30FFF7E1FFFFF70C
:10067800EFFF0028FBD02046441E0028F3D110BD10
:10068800013A032A0AD8DFE802F0020406084163A7
:10069800704781637047C16370470164704703689E
:1006A80043F0010303607047DFF830D0002103E016
:1006B8000B4B5B58435004310A480B4B42189A4283
:1006C800F6D30A4A02E0002342F8043B084B9A4258
:1006D800F9D300F011F8FFF79FFD704700000220E2
:1006E800680700080000002000000020000000202B
:1006F80020000020FEE7000070B50D4E0D4CA41B35
:10070800A4100025A54209D10B4E0C4C00F018F896
:10071800A41BA4100025A54205D170BD56F82530AC
:1007280098470135EEE756F8253098470135F2E746
:1007380060070008600700086007000864070008F1
:10074800F8B500BFF8BC08BC9E467047F8B500BFB6
:08075800F8BC08BC9E46704786
:04076000BD010008CF
:0407640099010008EF
:04000005080006B138
:00000001FF
