:020000040800F2
:100000000000022055060008050300080703000849
:10001000090300080B0300080D030008000000009E
:100020000000000000000000000000000F030008B6
:100030001103000800000000130300081503000866
:10004000A1060008A1060008A1060008A1060008F4
:10005000A1060008A10600089D0200087D02000814
:10006000A1060008A1060008A1060008A1060008D4
:10007000A1060008A1060008A1060008A1060008C4
:10008000A1060008A1060008A10600080000000063
:10009000000000000000000000000000A1060008B1
:1000A000A1060008A1060008A1060008A106000894
:1000B00051020008A1060008A1060008A1060008D8
:1000C000A1060008A1060008A1060008A106000874
:1000D000A1060008C5020008A106000800000000F3
:1000E000A1060008A1060008A10600080000000003
:1000F000000000000000000000000000A106000851
:1001000000000000A1060008A1060008A1060008E2
:1001100000000000000000000000000000000000DF
:10012000A1060008A1060008A1060008A106000813
:10013000A106000800000000000000000000000010
:10014000000000000000000000000000A106000800
:10015000A1060008A1060008A1060008A1060008E3
:10016000A1060008A1060008000000000000000031
:10017000000000000000000000000000000000007F
:1001800000000000A10600080000000000000000C0
:08019000A1060008A106000809
:1001980010B5054C237833B9044B13B10448AFF3B9
:1001A80000800123237010BD000000200000000023
:1001B800EC06000808B5034B1BB103490348AFF32D
:1001C800008008BD0000000004000020EC060008C4
:1001D800002106E000BF013340F6FE729342F9D9D0
:1001E8000131814201D20023F6E7704700B587B09C
:1001F8004FF4704300930123019300230293039368
:10020800022304936946034800F08EF907B05DF8AD
:1002180004FB00BF000C024000B585B00023029328
:1002280004220192009302230122C821082000F031
:1002380089F800F071F9FFF7D9FF00F0C9F900F06B
:10024800E9F900F0B7F9FEE708B54FF48051064820
:1002580000F0ACF9054A136823F001031360044B5E
:100268004FF080521A6008BD000C02401000004098
:1002780080E200E008B540F6FF70FFF7A9FF034BE6
:1002880002221A60024B80221A6008BD143C014009
:1002980080E200E008B54FF40041054800F086F917
:1002A800044B01221A60044B40221A6008BD00BFAB
:1002B800000C0240143C014080E200E082B00C4B8C
:1002C8001B6803F040030193019B23B1084A13689C
:1002D80023F040031360064B1B6803F020030193CF
:1002E800019B1BB1034B1A78034B1A7002B070477D
:1002F80000100140041001401C0000207047FEE778
:10030800FEE7FEE7FEE770477047704770478008D2
:1003180000F1605000F5645080000368090101F4A1
:100328007F61194301607047430903F13823403363
:100338009B00196800F01F020120904008431860D4
:100348007047000030B482B06D4D2C680194019C58
:1003580044F470040194019C2C606A4C00252560CB
:1003680038344FF480452560043C4FF080552560B3
:10037800654D2C6824F440440194019C44F44044A5
:100388000194019C2C6005F5E4352C6824F4802444
:100398000194019C0194019C2C6024F48034019404
:1003A800019C44F480340194019C2C60FF24009447
:1003B800009C013C0094554C246814F4003F02D181
:1003C800009D002DF4D124F080740194019D4F4CC0
:1003D800256040F6FF740094009C013C00944B4C4F
:1003E800246814F0007F02D0009C002CF4D1484C03
:1003F80003252560A4F57F74256825F03F05019540
:10040800019D284301900198206020F4FF4020F0CE
:1004180040000190019840EA811101910199216001
:1004280021F440310191019941EA02420192019A75
:10043800226036490A6822F080720192019A42F0DD
:1004480080720192019A0A604FF6FF720092009A38
:10045800013A00922D4A126812F0007F02D1009AE8
:10046800002AF4D12B4A116821F0F0010191019979
:10047800049841EA001101910199116021F4E051B9
:100488000191019941F4E05101910199116021F420
:1004980060410191019941F4604101910199116014
:1004A80021F003010191019919430191019911600A
:1004B8006FF07F420092009A013A0092154A126842
:1004C80002F00C01B1EB830F02D000990029F2D1A0
:1004D80022F4E0520192019B059A43EA8223019398
:1004E800019B0C4A136023F460430193019B069916
:1004F80043EA81230193019B136002B030BC70472B
:1005080088ED00E00C3802400070004000380240DE
:10051800003C024008380240024A136843F08B034B
:10052800136070473038024000230F2B3DD8F0B4D9
:1005380010E000F12006356803F0070294000F224E
:10054800A24025EA02054A69A2402A4332600133E3
:100558000F2B28D80A6801249C402242F7D005684E
:100568005E000322B240D24305EA02074D68B54057
:100578003D430560456825EA04048D689D40254390
:100588004560C56802EA0504CD68B5402543C560E5
:10059800846822400C69B44022438260072BC8D982
:1005A80000F12406C7E7F0BC70477047436959401B
:1005B80041617047054A136843F0010313604FF027
:1005C8008042136843F00103136070470C00004039
:1005D80010B586B0012300930222019200240294F0
:1005E800039404920593094A136843F001031360C6
:1005F80069460748FFF798FF21461C20FFF787FE4A
:100608001C20FFF791FE06B010BD00BF4038024025
:10061800000002400A48036823F0030343F0F10393
:1006280008490A6822F00F0223F00C03036042F025
:1006380001020A60044A136843F00203136070471A
:1006480018000040200000400C000040DFF830D0C7
:10065800002103E00B4B5B58435004310A480B4B15
:1006680042189A42F6D30A4A02E0002342F8043BB1
:10067800084B9A42F9D300F011F8FFF7CDFD704707
:10068800000002200C0700080000002000000020E5
:100698000000002020000020FEE7000070B50D4E8D
:1006A8000D4CA41BA4100025A54209D10B4E0C4CDF
:1006B80000F018F8A41BA4100025A54205D170BDB0
:1006C80056F8253098470135EEE756F82530984713
:1006D8000135F2E7040700080407000804070008CA
:1006E80008070008F8B500BFF8BC08BC9E4670476C
:0C06F800F8B500BFF8BC08BC9E46704777
:04070400BD0100082B
:04070800990100084B
:040000050800065594
:00000001FF
