:020000040800F2
:1000000000000220290600086D0300086F030008A5
:100010007103000873030008750300080000000066
:10002000000000000000000000000000770300084E
:1000300079030008000000007B0300087D0300082E
:1000400075060008750600087506000875060008A4
:1000500075060008750600087102000851020008C4
:100060007506000875060008750600087506000884
:100070007506000875060008750600087506000874
:1000800075060008750600087506000800000000E7
:1000900000000000000000000000000075060008DD
:1000A0007506000875060008750600087506000844
:1000B0007506000875060008750600087506000834
:1000C0007506000875060008750600087506000824
:1000D000750600082D0300087506000800000000E2
:1000E0007506000875060008750600080000000087
:1000F000000000000000000000000000750600087D
:100100000000000075060008750600087506000866
:1001100000000000000000000000000000000000DF
:1001200075060008750600087506000875060008C3
:10013000750600080000000000000000000000003C
:10014000000000000000000000000000750600082C
:100150007506000875060008750600087506000893
:100160007506000875060008000000000000000089
:10017000000000000000000000000000000000007F
:1001800000000000750600080000000000000000EC
:08019000750600087506000861
:1001980010B5054C237833B9044B13B10448AFF3B9
:1001A80000800123237010BD000000200000000023
:1001B800C006000808B5034B1BB103490348AFF359
:1001C800008008BD0000000004000020C0060008F0
:1001D800002106E000BF013340F6FE729342F9D9D0
:1001E8000131814201D20023F6E7704708B500F0DB
:1001F800C3F800F091F900F0FDF900F095F900F06E
:1002080053F80E4800F0EAF90D4B1B78002BFBD091
:100218000B4C207800F0D2F90A4D0C21284600F04A
:10022800F3F90F20FFF7D4FF0C21284600F0F1F96D
:100238000F20FFF7CDFF00232370E5E7D80600085D
:100248001D000020180C024008B540F6FF70FFF7AB
:10025800BFFF034B02221A60024B80221A6008BDBE
:10026800143C014080E200E008B50B4A1368B3FA79
:1002780083F35B09136053B90F21084800F0C9F9EB
:10028800074B01221A60074B40221A6008BD0F2154
:10029800024800F0B9F9F3E71C000020180C0240EE
:1002A800143C014080E200E01A4A136843F003035B
:1002B80013600832136843F003031360A2F58062E9
:1002C800136823F0FF031360134A136823F47F03B2
:1002D80043F4800323F07F4343F080431360A2F587
:1002E8004172136843F0C00313600C4A136843F06B
:1002F800600313600A4A136843F02003136002F591
:100308004972136823F47F4343F48043136062B651
:10031800704700BF003C014004E400E00C100140BD
:1003280004E100E082B00C4B1B6803F0400301932A
:10033800019B23B1084A136823F040031360064B5E
:100348001B6803F020030193019B1BB1034B1A7830
:10035800034B1A7002B070470010014004100140AE
:100368001D0000207047FEE7FEE7FEE7FEE7704746
:10037800704770477047000082B0624B00221A60D5
:1003880034334FF080521A6004334FF480421A60BD
:100398005D4A136823F480330193019B43F480334F
:1003A8000193019B1360FF230093574B1B6803F4D1
:1003B80000330193009B013B0093019B13B9009B01
:1003C800002BF2D1504A136823F080730193019BEC
:1003D8001360FF2300934C4B1B6803F000730193D9
:1003E800009B013B0093019B13B1009B002BF2D1B2
:1003F800464B01221A60464A136823F03F030193D3
:10040800019B43F008030193019B136023F4FF430E
:1004180023F040030193019B43F480530193019B14
:10042800136023F440330193019B43F48033019319
:10043800019B1360043A136823F080730193019BB6
:1004480043F080730193019B13604FF6FF73009391
:100458002D4B1B6803F000730193009B013B009335
:10046800019B13B9009B002BF2D12A4B1A6822F08A
:10047800F0020192019A42F080020192019A1A60F8
:1004880022F4E0520192019A42F4E0520192019A58
:100498001A6022F460420192019A42F46042019289
:1004A800019A1A6022F003020192019A42F00202B4
:1004B8000192019A1A606FF07F430093154B1B68F5
:1004C80003F00C030193009B013B0093019B082B55
:1004D80002D0009B002BF1D10E4B1A6822F0F002DB
:1004E8000192019A0192019A1A6022F4E052019253
:1004F800019A1A6022F460420192019A1A6002B0CD
:10050800704700BF0C38024000380240003C0240EF
:100518000438024008380240024A136843F00A03CC
:10052800136070473038024030B41E4A136843F0F5
:10053800100313601C4D2B6823F4404141F4004123
:100548001A4C236823F4404242F480421848036856
:1005580023F0704343F0E04321F4405141F400514B
:10056800296022F4405242F48052226023F07063E2
:1005780043F0E06303600F490B68A0F5744010383E
:10058800026822F44052026023F437430A4A40F6D4
:100598000550106043F4005343F00C030B6030BC6B
:1005A800704700BF44380240000402400C04024077
:1005B800200402400C10014008100140054B1B6844
:1005C80013F0800F03D0044B1860012070470020FF
:1005D800704700BF001001400410014010B50446E8
:1005E800207828B1FFF7EAFF0028F9D00134F7E7AF
:1005F80010BD0000034A136823F0407343F0807372
:1006080013607047000C0240012303FA01F10160F6
:1006180070471031012303FA01F1016070470000AF
:10062800DFF830D0002103E00B4B5B584350043116
:100638000A480B4B42189A42F6D30A4A02E00023B2
:1006480042F8043B084B9A42F9D300F011F8FFF73F
:10065800CDFD704700000220F406000800000020CD
:10066800000000200000002020000020FEE700001D
:1006780070B50D4E0D4CA41BA4100025A54209D140
:100688000B4E0C4C00F018F8A41BA4100025A54232
:1006980005D170BD56F8253098470135EEE756F874
:1006A800253098470135F2E7EC060008EC0600080B
:1006B800EC060008F0060008F8B500BFF8BC08BC56
:1006C8009E467047F8B500BFF8BC08BC9E46704708
:1006D80048656C6C6F20776F726C64202D56484C9F
:0406E800000000000E
:0406EC00BD01000844
:0406F0009901000864
:0400000508000629C0
:00000001FF
