:020000040800F2
:100000000000022065050008590200085B02000894
:100010005D0200085F0200086102000800000000A5
:100020000000000000000000000000006302000863
:10003000650200080000000067020008690200086D
:10004000B1050008B1050008B1050008B1050008B8
:10005000B1050008B1050008B1050008B1050008A8
:10006000B1050008B1050008B1050008B105000898
:10007000B1050008B1050008B1050008B105000888
:10008000B1050008B1050008B10500080000000036
:10009000000000000000000000000000B1050008A2
:1000A000B1050008B1050008B1050008B105000858
:1000B000B1050008B1050008B1050008B105000848
:1000C000B1050008B1050008B1050008B105000838
:1000D000B1050008B1050008B105000800000000E6
:1000E000B1050008B1050008B105000800000000D6
:1000F000000000000000000000000000B105000842
:1001000000000000B1050008B1050008B1050008B5
:1001100000000000000000000000000000000000DF
:10012000B1050008B1050008B1050008B1050008D7
:10013000B105000800000000000000000000000001
:10014000000000000000000000000000B1050008F1
:10015000B1050008B1050008B1050008B1050008A7
:10016000B1050008B1050008000000000000000013
:10017000000000000000000000000000000000007F
:1001800000000000B10500080000000000000000B1
:08019000B1050008B1050008EB
:1001980010B5054C237833B9044B13B10448AFF3B9
:1001A80000800123237010BD000000200000000023
:1001B800FC05000808B5034B1BB103490348AFF31E
:1001C800008008BD0000000004000020FC050008B5
:1001D800054A136843F0810313601032136843F033
:1001E80001031360704700BF3038024000B587B084
:1001F80001230093022201920021029103910492AB
:1002080005936946024800F02CF807B05DF804FB36
:100218000000024000B585B0002402940423019335
:10022800009402230122C821082000F05DF8FFF79E
:10023800CFFF00F043F9FFF7D9FF2146642000F013
:100248004DF900F063F94FF0804000F059F9FEE7EE
:100258007047FEE7FEE7FEE7FEE770477047704726
:10026800704700230F2B3DD8F0B410E000F12006B2
:10027800356803F0070294000F22A24025EA020520
:100288004A69A2402A43326001330F2B28D80A68F2
:1002980001249C402242F7D005685E000322B24048
:1002A800D24305EA02074D68B5403D4305604568FD
:1002B80025EA04048D689D4025434560C56802EA27
:1002C8000504CD68B5402543C560846822400C69A3
:1002D800B44022438260072BC8D900F12406C7E73F
:1002E800F0BC70477047000030B482B06D4D2C6888
:1002F8000194019C44F470040194019C2C606A4CA4
:100308000025256038344FF480452560043C4FF0C3
:1003180080552560654D2C6824F440440194019C67
:1003280044F440440194019C2C6005F5E4352C68A4
:1003380024F480240194019C0194019C2C6024F4F1
:1003480080340194019C44F480340194019C2C6015
:10035800FF240094009C013C0094554C246814F43C
:10036800003F02D1009D002DF4D124F08074019447
:10037800019D4F4C256040F6FF740094009C013CA1
:1003880000944B4C246814F0007F02D0009C002C91
:10039800F4D1484C03252560A4F57F74256825F021
:1003A8003F050195019D284301900198206020F4A4
:1003B800FF4020F040000190019840EA811101912E
:1003C8000199216021F440310191019941EA0242E9
:1003D8000192019A226036490A6822F080720192DD
:1003E800019A42F080720192019A0A604FF6FF72F8
:1003F8000092009A013A00922D4A126812F0007F8A
:1004080002D1009A002AF4D12B4A116821F0F00198
:1004180001910199049841EA001101910199116033
:1004280021F4E0510191019941F4E05101910199C0
:10043800116021F460410191019941F460410191F9
:100448000199116021F0030101910199194301916A
:10045800019911606FF07F420092009A013A009270
:10046800154A126802F00C01B1EB830F02D0009913
:100478000029F2D122F4E0520192019B059A43EA45
:1004880082230193019B0C4A136023F46043019378
:10049800019B069943EA81230193019B136002B0F3
:1004A80030BC704788ED00E00C3802400070004016
:1004B80000380240003C024008380240054A1368F0
:1004C80023F0050343F004031360034B00221A6072
:1004D800704700BF10E000E018E000E04FF08042F5
:1004E800136823F45C731360044B1860043B1960B1
:1004F8001432136843F00103136070472C00004066
:10050800036843F00103036070470000124A136850
:1005180023F0030343F0010323F0F00343F0300317
:1005280013600832136823F00F031360183A136836
:1005380043F0070323F0700343F0500313600C32B9
:10054800136843F0010313604FF08042136843F0CF
:1005580001031360704700BF18000040DFF830D077
:10056800002103E00B4B5B58435004310A480B4B06
:1005780042189A42F6D30A4A02E0002342F8043BA2
:10058800084B9A42F9D300F011F8FFF743FE704781
:10059800000002201C0600080000002000000020C7
:1005A800000000201C000020FEE7000070B50D4E82
:1005B8000D4CA41BA4100025A54209D10B4E0C4CD0
:1005C80000F018F8A41BA4100025A54205D170BDA1
:1005D80056F8253098470135EEE756F82530984704
:1005E8000135F2E71406000814060008140600088E
:1005F80018060008F8B500BFF8BC08BC9E4670474E
:0C060800F8B500BFF8BC08BC9E46704767
:04061400BD0100081C
:04061800990100083C
:040000050800056585
:00000001FF
