:020000040800F2
:1000000000000220B520000865030008670300080F
:10001000690300086B0300086D030008000000007E
:10002000000000000000000000000000C1080008FF
:100030006F0300080000000061090008C5090008FE
:100040000121000801210008012100080121000808
:1000500001210008012100080121000801210008F8
:1000600001210008012100080121000801210008E8
:1000700001210008012100080121000801210008D8
:1000800001210008012100080121000800000000F2
:100090000000000000000000000000000121000836
:1000A00001210008012100080121000801210008A8
:1000B000D9020008012100080121000801210008DF
:1000C0000121000801210008012100080121000888
:1000D00001210008012100080121000800000000A2
:1000E0000121000801210008012100080000000092
:1000F00000000000000000000000000001210008D6
:100100000000000001210008012100080121000871
:1001100000000000000000000000000000000000DF
:100120000121000801210008012100080121000827
:100130000121000800000000000000000000000095
:100140000000000000000000000000000121000885
:1001500001210008012100080121000801210008F7
:10016000012100080121000800000000000000003B
:10017000000000000000000000000000000000007F
:100180000000000001210008000000000000000045
:08019000012100080121000813
:1001A00010B5054C237833B9044B13B10448AFF3B1
:1001B00000800123237010BD080000200000000013
:1001C0007421000808B5034B1BB103490348AFF382
:1001D000008008BD000000000C0000207421000811
:1001E00008B54FF40041034800F004F9642001F021
:1001F000ABFBF6E7000C024008B54FF400410548A0
:1002000000F0F8F8642001F09FFB002001F0D6F91F
:10021000F3E700BF000C02407047FEE7FEE7000076
:10022000024A136843F08803136070473038024075
:1002300070B586B04FF470430093012501950024FA
:1002400002940394022604966946074800F090F849
:100250000095019602940394049605956946034817
:1002600000F086F806B070BD000C024000000240AD
:1002700000B585B00023029304220192009302236B
:100280000122C821082000F0B9F8FFF7C9FFFFF7E5
:10029000CFFF0B4C0B4E0196012500952346802283
:1002A00009490A4801F058F9019600952346802231
:1002B0000749084801F050F901F0F0F9FEE700BFE6
:1002C00000000020240000208C210008E10100082B
:1002D00098210008F901000800B583B04FF470417F
:1002E000194800F087F8194B1B6803F40073019359
:1002F000019BB3F5007F0AD0154B1A68154B1A60A5
:10030000154B4FF080521A6003B05DF804FB104BA0
:100310001B68124A13600F4A1268934210D29B1A4C
:10032000013B0F4A1360094A136823F400730193D9
:10033000019B13600023094A1360064A1360DFE73C
:100340009B1A074A1360EEE7000C024010000040C1
:1003500034000040A42D012080E200E0A02D012007
:100360009C2D01207047FEE7FEE7FEE7FEE77047A1
:1003700000230F2B3DD8F0B410E000F120063568C3
:1003800003F0070294000F22A24025EA02054A6901
:10039000A2402A43326001330F2B28D80A68012477
:1003A0009C402242F7D005685E000322B240D2434F
:1003B00005EA02074D68B5403D430560456825EAFA
:1003C00004048D689D4025434560C56802EA050424
:1003D000CD68B5402543C560846822400C69B440AF
:1003E00022438260072BC8D900F12406C7E7F0BC7E
:1003F00070477047436959404161704730B482B0DB
:100400006D4D2C680194019C44F470040194019C8E
:100410002C606A4C0025256038344FF480452560F7
:10042000043C4FF080552560654D2C6824F4404411
:100430000194019C44F440440194019C2C6005F516
:10044000E4352C6824F480240194019C0194019CDF
:100450002C6024F480340194019C44F48034019491
:10046000019C2C60FF240094009C013C0094554C9E
:10047000246814F4003F02D1009D002DF4D124F033
:1004800080740194019D4F4C256040F6FF740094E8
:10049000009C013C00944B4C246814F0007F02D077
:1004A000009C002CF4D1484C03252560A4F57F74F2
:1004B000256825F03F050195019D2843019001988D
:1004C000206020F4FF4020F040000190019840EAB5
:1004D000811101910199216021F44031019101992B
:1004E00041EA02420192019A226036490A6822F0EA
:1004F00080720192019A42F080720192019A0A6020
:100500004FF6FF720092009A013A00922D4A12684B
:1005100012F0007F02D1009A002AF4D12B4A116810
:1005200021F0F00101910199049841EA0011019133
:100530000199116021F4E0510191019941F4E051D8
:1005400001910199116021F460410191019941F4F7
:10055000604101910199116021F00301019101991C
:1005600019430191019911606FF07F420092009A46
:10057000013A0092154A126802F00C01B1EB830FA8
:1005800002D000990029F2D122F4E0520192019B9D
:10059000059A43EA82230193019B0C4A136023F4DA
:1005A00060430193019B069943EA81230193019BD8
:1005B000136002B030BC704788ED00E00C38024098
:1005C0000070004000380240003C02400838024001
:1005D000124A12F0070F1ED0D11D21F00701C1F5FC
:1005E000963313440A460E480260002141601344CA
:1005F000083B23F007030B48036059601960991A00
:1006000051601360084B1960084B1960084B4FF09C
:1006100000421A6070474FF49633E4E72C00002044
:10062000382C012028000020342C0120302C0120FF
:100630002C2C012010B4134B1A6882421BD359682A
:100640005C18844203D140680144596018464168EF
:100650004418A24213D10C4C2468A2420DD0526817
:10066000114441601A6812680260984200D0186014
:100670005DF8044B70471346DEE70460F5E702605F
:10068000F3E700BF382C01202800002070B5044695
:1006900001F046F83F4B1B68A3B13F4B1B681C425F
:1006A00013D001F0D7F80026FFF7B8FD16F0070FBA
:1006B0006ED04FF0500383F31188BFF36F8FBFF3F9
:1006C0004F8FFEE7FFF784FFE7E794B1083414F09B
:1006D000070F0ED024F00704083404F0070343B1D9
:1006E0004FF0500383F31188BFF36F8FBFF34F8F29
:1006F000FEE734B1294B1B68A34206D3284B1D6883
:1007000009E001F0A7F80026CEE701F0A3F80026E3
:10071000CAE72B4615466A68A24202D22A68002A16
:10072000F7D11C4A1268AA4214D01E6808362A68FB
:100730001A606B681B1B102B14D9281910F0070FB7
:100740000CD04FF0500383F31188BFF36F8FBFF3CA
:100750004F8FFEE701F07EF80026A5E743606C604E
:10076000FFF768FF6A680D490B689B1A0B600D491B
:1007700009688B4201D20B490B60074B1B6813437E
:100780006B6000232B6001F065F8002E8ED18BE7A3
:10079000304670BD280000202C2C0120302C012078
:1007A000382C0120342C012080B338B50446A0F148
:1007B000080550F8042C164909680A4208D14FF080
:1007C000500383F31188BFF36F8FBFF34F8FFEE7A2
:1007D00050F8080C40B14FF0500383F31188BFF379
:1007E0006F8FBFF34F8FFEE722EA010244F8042C1B
:1007F00000F096FF54F8041C064A13680B4413607B
:100800002846FFF717FF01F025F838BD704700BFF5
:100810002C2C0120302C012082B0002301930D4BA1
:100820001B68B3F1FF3F08D04FF0500383F31188EA
:10083000BFF36F8FBFF34F8FFEE74FF0500383F38B
:100840001188BFF36F8FBFF34F8F019B002BFCD03C
:1008500002B070470400002008480068006880F378
:1008600008884FF0000080F3148862B661B6BFF3C9
:100870004F8FBFF36F8F00DF00BF000008ED00E077
:10088000DFF80C00016841F470010160704700005E
:1008900088ED00E04FF0807340F8043C21F0010146
:1008A00040F8081C054B40F80C3C40F8202C6FF039
:1008B000020340F8243C4438704700BF1908000880
:1008C000074B19680868B0E8F04F80F30988BFF358
:1008D0006F8F4FF0000080F311887047AFF30080F6
:1008E000482C01204FF0500383F31188BFF36F8F22
:1008F000BFF34F8F0A4A136801331360012B00D0F6
:100900007047084B1B6813F0FF0FF9D04FF05003EE
:1009100083F31188BFF36F8FBFF34F8FFEE700BFE4
:100920000400002004ED00E0094B1B6843B94FF0C0
:10093000500383F31188BFF36F8FBFF34F8FFEE730
:10094000013B034A13600BB983F31188704700BF62
:100950000400002000000000000000000000000073
:10096000EFF30980BFF36F8F154B1A681EF0100F5D
:1009700008BF20ED108A20E9F04F10602DE9090032
:100980004FF0500080F31188BFF34F8FBFF36F8F8C
:1009900001F000F84FF0000080F3118809BC1968DD
:1009A0000868B0E8F04F1EF0100F08BFB0EC108AD6
:1009B00080F30988BFF36F8F704700BFAFF30080EB
:1009C000482C012008B54FF0500383F31188BFF382
:1009D0006F8FBFF34F8F00F0B1FE18B1034B4FF094
:1009E00080521A60002383F3118808BD04ED00E0F3
:1009F000054B00221A6005490A60054A0549116045
:100A000007221A60704700BF10E000E018E000E025
:100A100014E000E09F8601003A4B1A683A4B9A4274
:100A20000DD0384B1A68394B9A4211D14FF0500310
:100A300083F31188BFF36F8FBFF34F8FFEE74FF043
:100A4000500383F31188BFF36F8FBFF34F8FFEE71F
:100A500010B582B02E4B1A78D2B20192FF221A70D2
:100A60001B78DBB28DF803309DF8033003F05003A0
:100A7000284A1370284B07221A6009E0264A136897
:100A8000013B13609DF803305B00DBB28DF803304F
:100A90009DF8033013F0800FF0D11F4B1B68032B20
:100AA00008D04FF0500383F31188BFF36F8FBFF36B
:100AB0004F8FFEE71B0203F4E063174A1360019BAC
:100AC000DBB2134A1370154B1A6842F470021A60B5
:100AD0001A6842F070421A60FFF78AFF0024104B38
:100AE0001C60FFF7CDFE0F4A136843F040431360CC
:100AF000FFF7B2FE00F04EFFFFF78EFE204602B079
:100B000010BD00BF00ED00E071C20F4170C20F4187
:100B100000E400E0402C0120442C012020ED00E006
:100B20000400002034EF00E0EFF305830F2B0FD912
:100B3000104A9B5CDBB2104A12789A4208D94FF0F7
:100B4000500383F31188BFF36F8FBFF34F8FFEE71E
:100B50000A4B1B6803F4E063094A1268934208D900
:100B60004FF0500383F31188BFF36F8FBFF34F8FA4
:100B7000FEE77047F0E300E0402C01200CED00E0C0
:100B8000442C012000F1080343604FF0FF328260E3
:100B9000C360036100230360704700230361704753
:100BA00043684B609A688A609A68516099600861EE
:100BB000036801330360704730B40D68B5F1FF3F3F
:100BC00002D000F1080202E0026904E01A4653680C
:100BD0001C68AC42FAD953684B6099608A605160D6
:100BE000086103680133036030BC704703694268E1
:100BF000816891608268416851605A68824206D07B
:100C0000002202611A68013A1A6018687047826807
:100C10005A60F5E710B50446FFF764FEA26BE36B7C
:100C20009A4204D00024FFF77FFE204610BD012425
:100C3000F9E710B50446FFF755FEA36B23B1002476
:100C4000FFF772FE204610BD0124F9E770B5044697
:100C50001646856B026C5AB903681BB1002001353A
:100C6000A56370BD406800F0D5FF00236360F6E720
:100C70006EB9806801F06AFA226CA3681344A3601D
:100C80006268934219D32368A3600020E7E7C06835
:100C900001F05CFA226C5242E3681344E36021687D
:100CA0008B4202D263681A44E260022E01D0002017
:100CB000D5E725B1013D0020D1E70020CFE7002096
:100CC000CDE7026C72B110B5C3681344C3604468C9
:100CD000A34201D30368C3600C46C168204601F0FB
:100CE00035FA10BD704738B50546FFF7FBFD95F89E
:100CF000454064B203E000F077FF013C64B2002C91
:100D000008DD6B6A33B105F1240000F0DBFE00283A
:100D1000F3D0F0E7FF2385F84530FFF705FEFFF736
:100D2000E1FD95F8444064B203E000F05DFF013C52
:100D300064B2002C08DD2B6933B105F1100000F01E
:100D4000C1FE0028F3D0F0E7FF2385F84430FFF719
:100D5000EBFD38BD38B540B94FF0500383F311882F
:100D6000BFF36F8FBFF34F8FFEE704460D46FFF7CB
:100D7000B9FD2168E26B236C03FB02106060002068
:100D8000A063A160013A02FB0313E360FF2384F830
:100D9000443084F84530A5B923691BB9FFF7C4FD79
:100DA000012038BD04F1100000F08CFE0028F5D0C1
:100DB000084B4FF080521A60BFF34F8FBFF36F8F15
:100DC000ECE704F11000FFF7DDFE04F12400FFF76B
:100DD000D9FEE3E704ED00E038B51D46049C0B4660
:100DE00049B12260E063236401212046FFF7B2FF8E
:100DF00084F84C5038BD2460F4E740B94FF05003FC
:100E000083F31188BFF36F8FBFF34F8FFEE7F0B509
:100E100083B0054611B101FB00F000E00020174649
:100E20000C465030FFF732FC064638B100903B4686
:100E300000F1500221462846FFF7CEFF304603B0AE
:100E4000F0BD0000F0B585B0019260B1044699B9DB
:100E5000026C8AB14FF0500383F31188BFF36F8F98
:100E6000BFF34F8FFEE74FF0500383F31188BFF3BA
:100E70006F8FBFF34F8FFEE7022B0BD1E26B012A7E
:100E800008D04FF0500383F31188BFF36F8FBFF387
:100E90004F8FFEE71E460F4600F0ACFE50B9019B97
:100EA00053B14FF0500383F31188BFF36F8FBFF33B
:100EB0004F8FFEE700253AE0002538E032463946FC
:100EC0002046FFF7C3FE636A4BB9A8B13B4B4FF016
:100ED00080521A60BFF34F8FBFF36F8F0CE004F1A5
:100EE000240000F0EFFD38B1344B4FF080521A600F
:100EF000BFF34F8FBFF36F8FFFF716FD012005B0D3
:100F0000F0BDFFF711FD0020F9E702A800F020FE78
:100F1000012519E0002384F8443021E0002384F8FF
:100F2000453023E02046FFF7DEFE00F093FCFFF79C
:100F3000D9FCA26BE36B9A42C0D3022EBED0019BB8
:100F4000002BDED0002DE0D0FFF7EEFC00F0E8FB38
:100F5000FFF7C8FC94F844305BB2B3F1FF3FD9D03F
:100F600094F845305BB2B3F1FF3FD7D0FFF7DCFC1C
:100F700001A902A800F0F8FDC8B92046FFF74AFE13
:100F80000028CFD0019904F1100000F067FD204641
:100F9000FFF7A9FE00F05EFC0028C8D1074B4FF018
:100FA00080521A60BFF34F8FBFF36F8FBFE72046A9
:100FB000FFF799FE00F04EFC0020A0E704ED00E0F2
:100FC0002DE9F84360B1044699B9006C88B14FF03F
:100FD000500383F31188BFF36F8FBFF34F8FFEE78A
:100FE0004FF0500383F31188BFF36F8FBFF34F8F20
:100FF000FEE7022B0BD1E06B012808D04FF0500325
:1010000083F31188BFF36F8FBFF34F8FFEE71F4647
:1010100090468946FFF788FDEFF311864FF05003A5
:1010200083F31188BFF36F8FBFF34F8FA26BE36B16
:101030009A4203D3022F01D000200FE094F84550CC
:101040006DB23A4649462046FFF700FEB5F1FF3F34
:1010500008D06B1C5BB284F84530012086F3118800
:10106000BDE8F883636A5BB104F1240000F02AFD57
:1010700040B1B8F1000F07D00120C8F80000EDE73B
:101080000120EBE70120E9E70120E7E7F0B585B0B3
:10109000019260B1044699B9036C8BB14FF05003D3
:1010A00083F31188BFF36F8FBFF34F8FFEE74FF0CD
:1010B000500383F31188BFF36F8FBFF34F8FFEE7A9
:1010C0000F4600F097FD50B9019B53B14FF050030C
:1010D00083F31188BFF36F8FBFF34F8FFEE70026B6
:1010E0003EE000263CE039462046FFF7EAFD013DA0
:1010F000A563236923B9FFF717FC012005B0F0BDF4
:1011000004F1100000F0DEFC0028F4D0344B4FF066
:1011100080521A60BFF34F8FBFF36F8FEBE7FFF77B
:1011200003FC0020EAE702A800F012FD012621E0FE
:10113000002384F8443029E0002384F845302BE074
:101140002046FFF7D0FD00F085FB09E02046FFF7C1
:10115000CAFD00F07FFB2046FFF76BFD00283DD164
:10116000FFF7C0FBA56B002DBDD1019B002BD6D096
:10117000002ED8D0FFF7D8FB00F0D2FAFFF7B2FB71
:1011800094F844305BB2B3F1FF3FD1D094F84530CE
:101190005BB2B3F1FF3FCFD0FFF7C6FB01A902A8B6
:1011A00000F0E2FC0028D1D12046FFF742FD0028E4
:1011B000C6D0019904F1240000F050FC2046FFF74E
:1011C00092FD00F047FB0028CAD1054B4FF080523A
:1011D0001A60BFF34F8FBFF36F8FC1E700208DE719
:1011E00004ED00E00023072B0CD8074A52F8332007
:1011F0000AB10133F7E7044A42F8331002EBC303A4
:1012000058607047704700BFA82D012070B5044694
:101210000D461646FFF766FB94F844305BB2B3F117
:10122000FF3F0DD094F845305BB2B3F1FF3F0BD0D8
:10123000FFF77AFBA36B5BB12046FFF754FD70BD4F
:10124000002384F84430EDE7002384F84530EFE7CD
:101250003246294604F1240000F018FCECE70000B7
:10126000084B1B681B683BB1064B1B68DB68DB68DF
:101270005A68054B1A607047034B4FF0FF321A60F3
:10128000704700BF4C2C0120102D012010B50446E2
:10129000006BFFF789FA2046FFF786FA10BD2DE9AB
:1012A000F04781460D4617469A46089EDDF8248091
:1012B0000A9C9200A521206B00F053FF236B07F1DD
:1012C0008042013A03EB820727F007070023092B2E
:1012D00007D8E95CE21882F83410EA5C0AB10133FD
:1012E000F5E7002384F83D30052E00D90526E66297
:1012F000A6640025E564201DFFF74FFC04F11800EB
:10130000FFF74BFC2461C6F10606A6616462256501
:1013100084F85450524649463846FFF7BBFA2060DD
:10132000B8F1000F01D0C8F80040BDE8F087000018
:1013300038B5002407E004EB840293000E481844FB
:10134000FFF720FC0134052CF5D90C4D2846FFF79A
:1013500019FC0B4C2046FFF715FC0A48FFF712FC5E
:101360000948FFF70FFC0948FFF70CFC084B1D600C
:10137000084B1C6038BD00BF542C0120E42C012018
:10138000F82C0120182D0120442D0120302D0120A2
:101390004C2C0120502C012010B50446FFF7A2FA76
:1013A000214A136801331360204B1B685BB1204B4B
:1013B0001B686BB91D4B1B68DA6AE36A9A4207D84F
:1013C0001A4B1C6004E0194B1C601368012B27D0DA
:1013D000184A1368013313602364E36A01229A40B8
:1013E0001549086802430A6003EB83039A00211D34
:1013F00012481044FFF7D4FBFFF796FA0C4B1B681A
:101400006BB10A4B1B68DA6AE36A9A4207D20C4B4B
:101410004FF080521A60BFF34F8FBFF36F8F10BD34
:10142000FFF786FFD4E700BFCC2C0120482C012019
:101430002C2D0120DC2C0120E02C0120542C01203B
:1014400004ED00E00F4B1B68D3B110B5FFF74AFA6B
:101450000D4BDB68DC68201DFFF7C8FB0B4A1368E7
:10146000013B1360074A1368013B1360FFF75CFA06
:101470002046FFF70BFF034B1B68002BE6D110BD86
:10148000704700BFD02C0120442D0120CC2C01201E
:1014900070B504460E461D4B1D681D4B1868043080
:1014A000FFF7A4FB50B91A4B1B68DA6A012303FA51
:1014B00002F218490B6823EA02030B60B4F1FF3F04
:1014C00013D02C44124B1B685C60A54216D8124BFB
:1014D00018680F4B19680431FFF76EFB0F4B1B6840
:1014E000A34212D90D4B1C600FE0002EE9D0084B2F
:1014F000196804310A48FFF753FB06E0094B1868E6
:10150000034B19680431FFF757FB70BD582D0120BC
:10151000482C0120E02C01204C2C0120102D012012
:10152000302D0120502C012008B501E0FEF774FE9B
:10153000FFF788FF064B1B68012BF7D9054B4FF0CF
:1015400080521A60BFF34F8FBFF36F8FEEE700BF7B
:10155000542C012004ED00E02DE9F04385B007464E
:101560008846154699469000FFF790F8F8B1064670
:101570005820FFF78BF80446A8B10663D4B10023C6
:10158000039302940D9B01930C9B00934B462A46B8
:1015900041463846FFF783FE2046FFF7FDFE012057
:1015A00005B0BDE8F0833046FFF7FEF8E6E74FF000
:1015B000FF30F5E74FF0FF30F2E7000038B50446A2
:1015C000FFF790F9002C34D0251D2846FFF70EFBBD
:1015D00070B9E26A02EB82018B002649CB583BB915
:1015E000012303FA02F224490B6823EA02030B6089
:1015F000A36A1BB104F11800FFF7F8FA1F4A136839
:10160000013313601E4B1B68A34215D01D4A13689B
:10161000013B13602046FFF739FEFFF721FEFFF77D
:1016200083F9194B1B681BB1154B1B68A3420CD0E7
:1016300038BD134B1C68C7E729461448FFF7B0FABA
:10164000134A136801331360E9E7124B1B6843B177
:101650004FF0500383F31188BFF36F8FBFF34F8FA9
:10166000FEE70D4B4FF080521A60BFF34F8FBFF370
:101670006F8FDDE7542C0120E02C0120DC2C0120B1
:10168000482C0120CC2C01202C2D0120442D0120A0
:10169000D02C0120D82C012004ED00E000B583B04F
:1016A000194B019300230093822218491848FFF731
:1016B00053FF012807D0012808D0B0F1FF3F1AD00E
:1016C00003B05DF804FB00F05FFBF4E74FF050035C
:1016D00083F31188BFF36F8FBFF34F8F0D4B4FF024
:1016E000FF321A600C4B01221A600C4B00221A6068
:1016F000FFF792F9E4E74FF0500383F31188BFF34B
:101700006F8FBFF34F8FFEE70C2D0120A42100083F
:1017100029150008102D01202C2D0120582D012005
:10172000024A136801331360704700BFD82C0120B0
:10173000014B1868704700BF582D0120F8B53A4B8F
:101740001B68002B64D1394B1D6801351D60C5B97C
:10175000374B1B681B6843B14FF0500383F311886C
:10176000BFF36F8FBFF34F8FFEE7314A1168314BE4
:10177000186810601960304A136801331360FFF76E
:101780006FFD2E4B1B68AB4238D900242C4B1B68D5
:10179000DB6A03EB83039A002A4B9B58012B3CD94D
:1017A00001243AE00124224B1B681B6843B3204B01
:1017B0001B68DB68DE6873689D4226D3371D384698
:1017C000FFF714FAB36A1BB106F11800FFF70EFA1F
:1017D000F36A01229A401C49086802430A6003EB3D
:1017E00083039A00394617481044FFF7D9F9F26A83
:1017F000134B1B68DB6A9A42D4D2D4E70024D2E7A9
:101800000E4B4FF0FF321A60C0E70C4A1360BDE781
:101810000E4A13680133136000240D4B1B6803B19B
:1018200001242046F8BD00BFD82C0120582D0120EE
:101830004C2C0120502C0120142D0120102D0120B2
:10184000482C0120542C0120E02C0120D42C012014
:101850005C2D012038B5334B1B6843B94FF0500362
:1018600083F31188BFF36F8FBFF34F8FFEE7FFF74E
:1018700039F82C4B1A68013A1A601B68002B4DD1BD
:10188000294B1B6823B90024FFF74EF8204638BDCA
:101890000024264B1B681BB3244BDB68DC6804F177
:1018A0001800FFF7A3F9251D2846FFF79FF9E36A03
:1018B00001229A401E49086802430A6003EB830331
:1018C0009A0029461B481044FFF76AF9E26A1A4B4E
:1018D0001B68DB6A9A42DCD3184B01221A60D8E7F6
:1018E0000CB1FFF7BDFC164B1C6854B1FFF726FF87
:1018F00010B1124B01221A60013CF7D1104B0022AB
:101900001A600E4B1B685BB10E4B4FF080521A6091
:10191000BFF34F8FBFF36F8F0124B5E70024B3E708
:101920000024B1E7D82C0120CC2C0120182D012057
:10193000E02C0120542C0120482C01205C2D01209A
:10194000D42C012004ED00E010B5A8B104460F4BE3
:101950001B6843B14FF0500383F31188BFF36F8FBF
:10196000BFF34F8FFEE7FFF7DBFE00212046FFF7B6
:101970008FFDFFF76FFF38B9054B4FF080521A60AB
:10198000BFF34F8FBFF36F8F10BD00BFD82C012066
:1019900004ED00E02C4B1B681BB12C4B01221A609C
:1019A000704710B5294B00221A60294B1B681B6B2E
:1019B0001A68B2F1A53F03D15A68B2F1A53F1BD016
:1019C000234B186819683431FEF727FC214B1B683C
:1019D000B3FA83F3DBB2C3F11F0303EB83018A0085
:1019E0001D498A588AB94FF0500383F31188BFF319
:1019F0006F8FBFF34F8FFEE79A68B2F1A53FDFD13B
:101A0000DB68B3F1A53FDBD1E0E713489A00D418B7
:101A1000A10001444C6864684C601A44910008318C
:101A20000844844209D003EB83039A000A4B134411
:101A30005B68DA68064B1A6010BD616806481422BC
:101A400002FB03025160EEE7D82C01205C2D01203F
:101A5000482C0120E02C0120542C012040B94FF0EB
:101A6000500383F31188BFF36F8FBFF34F8FFEE7EF
:101A700010B50C46044B19681831FFF79DF8012189
:101A80002046FFF705FD10BD482C012038B540B9B0
:101A90004FF0500383F31188BFF36F8FBFF34F8F65
:101AA000FEE70C461546064A11681831FFF778F82C
:101AB0000DB14FF0FF3429462046FFF7E9FC38BD51
:101AC000482C012038B5C368DC6844B94FF0500396
:101AD00083F31188BFF36F8FBFF34F8FFEE704F1DD
:101AE00018052846FFF782F8134B1B68E3B9251D3C
:101AF0002846FFF77BF8E36A01229A400F490868FD
:101B000002430A6003EB83039A0029460C48104401
:101B1000FFF746F8E26A0B4B1B68DB6A9A4208D96A
:101B20000120094B186038BD29460848FFF738F8EE
:101B3000F0E70020F7E700BFD82C0120E02C0120BF
:101B4000542C0120482C01205C2D0120182D01204F
:101B5000034B1B680360034B1B684360704700BF67
:101B6000142D0120582D0120F8B550B1054689B932
:101B70004FF0500383F31188BFF36F8FBFF34F8F84
:101B8000FEE74FF0500383F31188BFF36F8FBFF36D
:101B90004F8FFEE70C46FEF7A5FE114B19686868EB
:101BA0000A1A2368B3F1FF3F16D02F680D4E36682E
:101BB000B74201D0884211D9934203D80023236051
:101BC000012405E09B1A23602846FFF7C1FF00248B
:101BD000FEF7AAFE2046F8BD0024F9E70124F7E746
:101BE000582D0120142D0120014B01221A6070474D
:101BF0005C2D0120054B1B6833B1054B1B680BB1F5
:101C00000020704702207047012070472C2D0120D2
:101C1000D82C0120002849D038B50446264A12683D
:101C2000824208D04FF0500383F31188BFF36F8FC7
:101C3000BFF34F8FFEE7C26C42B94FF0500383F3FE
:101C40001188BFF36F8FBFF34F8FFEE7013AC26475
:101C5000C06AA16C88422BD062BB251D2846FEF7C6
:101C6000C5FF70B9E26A142303FB02F31349CB5892
:101C70003BB9012303FA02F211490B6823EA02037C
:101C80000B60A36CE362C3F10602A261012404FAB3
:101C900003F20B49086802430A602946074A1420E8
:101CA00000FB0320FEF77CFF204638BD0020704774
:101CB0000020FAE70020F8E7482C0120542C0120EE
:101CC000E02C0120064B1A681368B3FA83F35B0912
:101CD000036013B9D368186870470020704700BFCD
:101CE000602D012008B54160006191420CD8D21AE4
:101CF00083699A4201D3012010E0011D094B186845
:101D0000FEF75AFF002009E09A4201D2994206D21A
:101D1000011D054B1868FEF74FFF002008BD01208C
:101D2000FCE700BF642D0120602D012038B5FEF7CF
:101D3000D9FD0F4B1B6813B1FEF7F6FD38BD0D4DF5
:101D40002846FEF71FFF0C4C2046FEF71BFF0B4BEF
:101D50001D600B4B1C6000220C210A20FFF74DF880
:101D6000034B18600028E7D00649FFF73BFAE3E78A
:101D7000942D0120682D01207C2D0120602D012053
:101D8000642D0120AC21000800B583B0FFF7CEFF21
:101D90000D4B1B685BB10D4B019302230093002395
:101DA0004FF482720A490B48FFF7D6FB40B94FF057
:101DB000500383F31188BFF36F8FBFF34F8FFEE79C
:101DC00003B05DF804FB00BF942D0120982D012085
:101DD000B42100089D200008C8B130B585B0154673
:101DE0000446174A106840B31A46019102950394BD
:101DF00005291DDCFFF7FEFE022811D000231A463C
:101E000001A90F480068FFF71DF805B030BD4FF07D
:101E1000500383F31188BFF36F8FBFF34F8FFEE73B
:101E20000023089A01A906480068FFF70BF8ECE7C1
:101E3000002301A9FFF7C4F8E7E70020E5E700BFAA
:101E4000942D012070B582B01A4B1B681A6852B3EA
:101E5000DB681E68DC68251D2846FEF7C7FE636A3E
:101E600020469847E369012BEED1A36933449E4293
:101E700007D26360246129460E4B1868FEF79CFE6A
:101E8000E2E7002100910B4632462046FFF7A4FF0F
:101E90000028D9D14FF0500383F31188BFF36F8F1F
:101EA000BFF34F8FFEE7044A1068024908601360D1
:101EB00002B070BD602D0120642D012038B50546AB
:101EC000FFF736FC0446074B1B68834205D8002306
:101ED0002B60044B1C60204638BDFFF7B3FF012385
:101EE0002B60F6E7902D012070B582B005460E46B6
:101EF000144B1B68DB68DC68201DFEF777FEE36986
:101F0000012B04D0636A2046984702B070BDA169D6
:101F10002B46324629442046FFF7E4FE0028F1D044
:101F2000002100910B462A462046FFF755FF002866
:101F3000E8D14FF0500383F31188BFF36F8FBFF3E5
:101F40004F8FFEE7602D012070B582B006460C462B
:101F5000FFF7E6FB01A8FFF7B1FF019B1BBB05469E
:101F60000CB9B04218D22CB1114B1B681C68B4FAE2
:101F700084F464092246711B0E4B1868FFF746F97A
:101F8000FFF768FC88B90C4B4FF080521A60BFF322
:101F90004F8FBFF36F8F08E0FFF75CFC2946304698
:101FA000FFF7A2FF01E0FFF755FC02B070BD00BFD4
:101FB000642D0120942D012004ED00E030B587B0A0
:101FC000002203A9344B1868FFF760F8002860D09E
:101FD000039B002BF4DB059C636913B1201DFEF706
:101FE00005FE02A8FFF76AFF039B092BE8D801A2B0
:101FF00052F823F01D2000081D2000081D200008B5
:10200000C11F0008652000088B2000081D20000863
:102010001D200008C11F0008652000080499A5695B
:102020000B46024629442046FFF75CFE0028C7D035
:10203000636A20469847E369012BC1D1A269002158
:1020400000910B46049802442046FFF7C5FE002885
:10205000B6D14FF0500383F31188BFF36F8FBFF3F6
:102060004F8FFEE70499A16131B103460246014456
:102070002046FFF737FEA3E74FF0500383F31188A4
:10208000BFF36F8FBFF34F8FFEE72046FEF78CFB49
:1020900096E707B030BD00BF942D012000B583B096
:1020A00001A8FFF70FFE0199FFF74EFFFFF786FF2C
:1020B000F6E70000DFF830D0002103E00B4B5B585F
:1020C000435004310A480B4B42189A42F6D30A4A4D
:1020D00002E0002342F8043B084B9A42F9D300F097
:1020E00011F8FEF7C5F8704700000220C42100086F
:1020F000000000200800002008000020E82D01203A
:10210000FEE7000070B50D4E0D4CA41BA410002579
:10211000A54209D10B4E0C4C00F02CF8A41BA410C6
:102120000025A54205D170BD56F8253098470135E8
:10213000EEE756F8253098470135F2E7BC21000854
:10214000BC210008BC210008C021000810B5431EB6
:102150000A44914200D110BD11F8014B03F8014F20
:10216000F7E702440346934200D1704703F8011B8E
:10217000F9E70000F8B500BFF8BC08BC9E46704700
:0C218000F8B500BFF8BC08BC9E467047D4
:10218C0073696D706C657461736B00007464656C5D
:10219C00657465320000000049444C4500000000A5
:1021AC00546D725100000000546D72205376630020
:0421BC00C501000851
:0421C000A101000871
:0821C4000F000000AAAAAAAA5C
:04000005080020B51A
:00000001FF
