:020000040800F2
:1000000000000220592300085F0300086103000874
:100010006303000865030008670300080000000090
:1000200000000000000000000000000001090008BE
:100030006903000800000000A1090008050A000883
:10004000A5230008A5230008A5230008A523000870
:10005000A5230008A5230008A5230008A523000860
:10006000A5230008A5230008A5230008A523000850
:10007000A5230008A5230008A5230008A523000840
:10008000A5230008A5230008A52300080000000000
:10009000000000000000000000000000A523000890
:1000A000A5230008A5230008A5230008A523000810
:1000B000A5230008A5230008A5230008A523000800
:1000C000A5230008A5230008A5230008A5230008F0
:1000D000A52300085D030008A52300080000000018
:1000E000A5230008A5230008A523000800000000A0
:1000F000000000000000000000000000A523000830
:1001000000000000A5230008A5230008A52300087F
:1001100000000000000000000000000000000000DF
:10012000A5230008A5230008A5230008A52300088F
:10013000A5230008000000000000000000000000EF
:10014000000000000000000000000000A5230008DF
:10015000A5230008A5230008A5230008A52300085F
:10016000A5230008A52300080000000000000000EF
:10017000000000000000000000000000000000007F
:1001800000000000A523000800000000000000009F
:08019000A5230008A5230008C7
:1001A00010B5054C237833B9044B13B10448AFF3B1
:1001B00000800123237010BD040000200000000017
:1001C0001824000808B5034B1BB103490348AFF3DB
:1001D000008008BD0000000008000020182400086E
:1001E00008B54FF48051044800F01DF94FF4FA703F
:1001F00001F032FCF5E700BF000C024008B53221E7
:10020000054B186801F018F80128F8D14FF4005197
:10021000024800F008F9F2E720000020000C02403C
:1002200008B500231A4619460448006800F034FE59
:100230004FF47A7001F010FCF3E700BF20000020BB
:100240007047FEE7FEE70000024A136843F08A03A6
:10025000136070473038024008B5084A136843F00D
:1002600060031360064B074A1A600521252000F041
:100270007CF8252000F088F862B608BD0C1001401B
:100280000CED00E00003FA0570B586B04FF4704342
:1002900000930125019500240294039402260496FC
:1002A0006946074800F07DF8009501960294039492
:1002B000049605956946034800F073F806B070BDD2
:1002C000000C02400000024000B585B000240294FA
:1002D00004230193009402230122C821082000F086
:1002E000A7F8FFF7B1FFFFF7CFFFFFF7B5FF032236
:1002F0002146012000F0ABFD114B18600028FDD015
:100300000024019401230093234680220D490E48C6
:1003100001F01AFA019402230093234680220B492C
:100320000B4801F011FA0194032300932346802225
:100330000849094801F008FA01F038FAFEE700BF61
:100340002000002030240008E10100083C240008BF
:10035000FD0100084824000821020008704770478A
:10036000FEE7FEE7FEE7FEE770470901830803F1B9
:10037000605303F564539B001A680011800001FA72
:1003800000F0104318607047430903F138234033ED
:100390009B00196800F01F0201209040084318607C
:1003A000704700230F2B3DD8F0B410E000F1200679
:1003B000356803F0070294000F22A24025EA0205E7
:1003C0004A69A2402A43326001330F2B28D80A68B9
:1003D00001249C402242F7D005685E000322B2400F
:1003E000D24305EA02074D68B5403D4305604568C4
:1003F00025EA04048D689D4025434560C56802EAEE
:100400000504CD68B5402543C560846822400C6969
:10041000B44022438260072BC8D900F12406C7E705
:10042000F0BC704770474369594041617047000014
:1004300030B482B06D4D2C680194019C44F470047A
:100440000194019C2C606A4C0025256038344FF4DF
:1004500080452560043C4FF080552560654D2C6833
:1004600024F440440194019C44F440440194019CD0
:100470002C6005F5E4352C6824F480240194019C5B
:100480000194019C2C6024F480340194019C44F478
:1004900080340194019C2C60FF240094009C013C5A
:1004A0000094554C246814F4003F02D1009D002DA7
:1004B000F4D124F080740194019D4F4C256040F6E6
:1004C000FF740094009C013C00944B4C246814F091
:1004D000007F02D0009C002CF4D1484C03252560FD
:1004E000A4F57F74256825F03F050195019D2843FB
:1004F00001900198206020F4FF4020F0400001901E
:10050000019840EA811101910199216021F4403163
:100510000191019941EA02420192019A2260364911
:100520000A6822F080720192019A42F08072019270
:10053000019A0A604FF6FF720092009A013A009207
:100540002D4A126812F0007F02D1009A002AF4D1DD
:100550002B4A116821F0F00101910199049841EAB8
:10056000001101910199116021F4E051019101996B
:1005700041F4E05101910199116021F46041019130
:10058000019941F4604101910199116021F0030149
:100590000191019919430191019911606FF07F4216
:1005A0000092009A013A0092154A126802F00C017A
:1005B000B1EB830F02D000990029F2D122F4E0526E
:1005C0000192019B059A43EA82230193019B0C4A05
:1005D000136023F460430193019B069943EA81234E
:1005E0000193019B136002B030BC704788ED00E0BE
:1005F0000C3802400070004000380240003C0240CD
:1006000008380240124A12F0070F1ED0D11D21F007
:100610000701C1F5963313440A460E4802600021D3
:1006200041601344083B23F007030B480360596003
:100630001960991A51601360084B1960084B1960D2
:10064000084B4FF000421A6070474FF49633E4E7CE
:1006500028000020342C012024000020302C012010
:100660002C2C0120282C012010B4134B1A68824234
:100670001BD359685C18844203D140680144596017
:10068000184641684418A24213D10C4C2468A24277
:100690000DD05268114441601A6812680260984295
:1006A00000D018605DF8044B70471346DEE7046025
:1006B000F5E70260F3E700BF342C0120240000209E
:1006C00070B5044601F0B4F83F4B1B68A3B13F4B33
:1006D0001B681C4213D001F045F90026FFF7B2FD5C
:1006E00016F0070F6ED04FF0500383F31188BFF35D
:1006F0006F8FBFF34F8FFEE7FFF784FFE7E794B1FB
:10070000083414F0070F0ED024F00704083404F066
:10071000070343B14FF0500383F31188BFF36F8F8A
:10072000BFF34F8FFEE734B1294B1B68A34206D3BA
:10073000284B1D6809E001F015F90026CEE701F00D
:1007400011F90026CAE72B4615466A68A24202D272
:100750002A68002AF7D11C4A1268AA4214D01E68DF
:1007600008362A681A606B681B1B102B14D92819CD
:1007700010F0070F0CD04FF0500383F31188BFF334
:100780006F8FBFF34F8FFEE701F0ECF80026A5E76F
:1007900043606C60FFF768FF6A680D490B689B1A3D
:1007A0000B600D4909688B4201D20B490B60074B66
:1007B0001B6813436B6000232B6001F0D3F8002EFD
:1007C0008ED18BE7304670BD24000020282C0120FC
:1007D0002C2C0120342C0120302C012080B338B582
:1007E0000446A0F1080550F8042C164909680A428D
:1007F00008D14FF0500383F31188BFF36F8FBFF31D
:100800004F8FFEE750F8080C40B14FF0500383F3D0
:100810001188BFF36F8FBFF34F8FFEE722EA01020B
:1008200044F8042C01F004F854F8041C064A136838
:100830000B4413602846FFF717FF01F093F838BD0B
:10084000704700BF282C01202C2C012082B00023EF
:1008500001930D4B1B68B3F1FF3F08D04FF05003DD
:1008600083F31188BFF36F8FBFF34F8FFEE74FF015
:10087000500383F31188BFF36F8FBFF34F8F019B3A
:10088000002BFCD002B07047000000200848006830
:10089000006880F308884FF0000080F3148862B687
:1008A00061B6BFF34F8FBFF36F8F00DF00BF000053
:1008B00008ED00E0DFF80C00016841F47001016010
:1008C0007047000088ED00E04FF0807340F8043C72
:1008D00021F0010140F8081C054B40F80C3C40F8A1
:1008E000202C6FF0020340F8243C4438704700BFCE
:1008F0004D0800080000000000000000000000009B
:10090000074B19680868B0E8F04F80F30988BFF317
:100910006F8F4FF0000080F311887047AFF30080B5
:10092000442C01204FF0500383F31188BFF36F8FE5
:10093000BFF34F8F0A4A136801331360012B00D0B5
:100940007047084B1B6813F0FF0FF9D04FF05003AE
:1009500083F31188BFF36F8FBFF34F8FFEE700BFA4
:100960000000002004ED00E0094B1B6843B94FF084
:10097000500383F31188BFF36F8FBFF34F8FFEE7F0
:10098000013B034A13600BB983F31188704700BF22
:100990000000002000000000000000000000000037
:1009A000EFF30980BFF36F8F154B1A681EF0100F1D
:1009B00008BF20ED108A20E9F04F10602DE90900F2
:1009C0004FF0500080F31188BFF34F8FBFF36F8F4C
:1009D00001F068F84FF0000080F3118809BC196835
:1009E0000868B0E8F04F1EF0100F08BFB0EC108A96
:1009F00080F30988BFF36F8F704700BFAFF30080AB
:100A0000442C012008B54FF0500383F31188BFF345
:100A10006F8FBFF34F8F00F019FF18B1034B4FF0EA
:100A200080521A60002383F3118808BD04ED00E0B2
:100A3000054B00221A6005490A60054A0549116004
:100A400007221A60704700BF10E000E018E000E0E5
:100A500014E000E09F8601003A4B1A683A4B9A4234
:100A60000DD0384B1A68394B9A4211D14FF05003D0
:100A700083F31188BFF36F8FBFF34F8FFEE74FF003
:100A8000500383F31188BFF36F8FBFF34F8FFEE7DF
:100A900010B582B02E4B1A78D2B20192FF221A7092
:100AA0001B78DBB28DF803309DF8033003F0500360
:100AB000284A1370284B07221A6009E0264A136857
:100AC000013B13609DF803305B00DBB28DF803300F
:100AD0009DF8033013F0800FF0D11F4B1B68032BE0
:100AE00008D04FF0500383F31188BFF36F8FBFF32B
:100AF0004F8FFEE71B0203F4E063174A1360019B6C
:100B0000DBB2134A1370154B1A6842F470021A6074
:100B10001A6842F070421A60FFF78AFF0024104BF7
:100B20001C60FFF7C7FE0F4A136843F04043136091
:100B3000FFF7ACFE00F0B6FFFFF788FE204602B0DC
:100B400010BD00BF00ED00E071C20F4170C20F4147
:100B500000E400E03C2C0120402C012020ED00E0CE
:100B60000000002034EF00E0EFF305830F2B0FD9D6
:100B7000104A9B5CDBB2104A12789A4208D94FF0B7
:100B8000500383F31188BFF36F8FBFF34F8FFEE7DE
:100B90000A4B1B6803F4E063094A1268934208D9C0
:100BA0004FF0500383F31188BFF36F8FBFF34F8F64
:100BB000FEE77047F0E300E03C2C01200CED00E084
:100BC000402C012000F1080343604FF0FF328260A7
:100BD000C360036100230360704700230361704713
:100BE00043684B609A688A609A68516099600861AE
:100BF000036801330360704730B40D68B5F1FF3FFF
:100C000002D000F1080202E0026904E01A465368CB
:100C10001C68AC42FAD953684B6099608A60516095
:100C2000086103680133036030BC704703694268A0
:100C3000816891608268416851605A68824206D03A
:100C4000002202611A68013A1A60186870478268C7
:100C50005A60F5E7436A23B1036B1868C0F10600D8
:100C600070470020704710B50446FFF75BFEA26B8B
:100C7000E36B9A4204D00024FFF776FE204610BDB5
:100C80000124F9E710B50446FFF74CFEA36B23B12E
:100C90000024FFF769FE204610BD0124F9E770B576
:100CA00004461646856B026C5AB903681BB10020D6
:100CB0000135A56370BD406801F090F800236360C2
:100CC000F6E76EB9806801F093FB226CA3681344C9
:100CD000A3606268934219D32368A3600020E7E70A
:100CE000C06801F085FB226C5242E3681344E36064
:100CF00021688B4202D263681A44E260022E01D05E
:100D00000020D5E725B1013D0020D1E70020CFE745
:100D10000020CDE7026C72B110B5C3681344C36004
:100D20004468A34201D30368C3600C46C1682046EF
:100D300001F05EFB10BD704738B50546FFF7F2FDC8
:100D400095F8454064B203E000F0D6FF013C64B280
:100D5000002C08DD6B6A33B105F1240000F03AFF86
:100D60000028F3D0F0E7FF2385F84530FFF7FCFDBE
:100D7000FFF7D8FD95F8444064B203E000F0BCFFF3
:100D8000013C64B2002C08DD2B6933B105F1100081
:100D900000F020FF0028F3D0F0E7FF2385F844306F
:100DA000FFF7E2FD38BD000038B540B94FF0500301
:100DB00083F31188BFF36F8FBFF34F8FFEE70446B5
:100DC0000D46FFF7AFFD2168E26B236C03FB0210B9
:100DD00060600020A063A160013A02FB0313E3609E
:100DE000FF2384F8443084F84530A5B923691BB942
:100DF000FFF7BAFD012038BD04F1100000F0EAFE53
:100E00000028F5D0084B4FF080521A60BFF34F8F87
:100E1000BFF36F8FECE704F11000FFF7D3FE04F18E
:100E20002400FFF7CFFEE3E704ED00E038B51D46F0
:100E3000049C0B4649B12260E063236401212046F3
:100E4000FFF7B2FF84F84C5038BD2460F4E740B996
:100E50004FF0500383F31188BFF36F8FBFF34F8FB1
:100E6000FEE7F0B583B0054611B101FB00F000E0EC
:100E7000002017460C465030FFF722FC064638B1DA
:100E800000903B4600F1500221462846FFF7CEFF76
:100E9000304603B0F0BD0000F0B585B0019260B1FE
:100EA000044699B9026C8AB14FF0500383F311885C
:100EB000BFF36F8FBFF34F8FFEE74FF0500383F305
:100EC0001188BFF36F8FBFF34F8FFEE7022B0BD15B
:100ED000E26B012A08D04FF0500383F31188BFF36F
:100EE0006F8FBFF34F8FFEE71E460F4600F00AFFDD
:100EF00050B9019B53B14FF0500383F31188BFF3F6
:100F00006F8FBFF34F8FFEE700253AE0002538E0F2
:100F1000324639462046FFF7C2FE636A4BB9A8B194
:100F20003B4B4FF080521A60BFF34F8FBFF36F8F70
:100F30000CE004F1240000F04DFE38B1344B4FF0CA
:100F400080521A60BFF34F8FBFF36F8FFFF70CFD16
:100F5000012005B0F0BDFFF707FD0020F9E702A86A
:100F600000F07EFE012519E0002384F8443021E0E2
:100F7000002384F8453023E02046FFF7DDFE00F033
:100F8000F1FCFFF7CFFCA26BE36B9A42C0D3022EB9
:100F9000BED0019B002BDED0002DE0D0FFF7E4FC9B
:100FA00000F046FCFFF7BEFC94F844305BB2B3F1AE
:100FB000FF3FD9D094F845305BB2B3F1FF3FD7D0B3
:100FC000FFF7D2FC01A902A800F056FEC8B92046DE
:100FD000FFF749FE0028CFD0019904F1100000F07E
:100FE000C5FD2046FFF7A8FE00F0BCFC0028C8D1D4
:100FF000074B4FF080521A60BFF34F8FBFF36F8FD4
:10100000BFE72046FFF798FE00F0ACFC0020A0E709
:1010100004ED00E02DE9F84360B1044699B9006C95
:1010200088B14FF0500383F31188BFF36F8FBFF384
:101030004F8FFEE74FF0500383F31188BFF36F8F9C
:10104000BFF34F8FFEE7022B0BD1E06B012808D0D6
:101050004FF0500383F31188BFF36F8FBFF34F8FAF
:10106000FEE71F4690468946FFF77EFDEFF31186A7
:101070004FF0500383F31188BFF36F8FBFF34F8F8F
:10108000A26BE36B9A4203D3022F01D000200FE042
:1010900094F845506DB23A4649462046FFF7FFFDA9
:1010A000B5F1FF3F08D06B1C5BB284F845300120DE
:1010B00086F31188BDE8F883636A5BB104F124000C
:1010C00000F088FD40B1B8F1000F07D00120C8F84A
:1010D0000000EDE70120EBE70120E9E70120E7E769
:1010E000F0B585B0019260B1044699B9036C8BB13B
:1010F0004FF0500383F31188BFF36F8FBFF34F8F0F
:10110000FEE74FF0500383F31188BFF36F8FBFF3F7
:101110004F8FFEE70F4600F0F5FD50B9019B53B12C
:101120004FF0500383F31188BFF36F8FBFF34F8FDE
:10113000FEE700263EE000263CE039462046FFF769
:10114000E9FD013DA563236923B9FFF70DFC0120EB
:1011500005B0F0BD04F1100000F03CFD0028F4D013
:10116000344B4FF080521A60BFF34F8FBFF36F8F35
:10117000EBE7FFF7F9FB0020EAE702A800F070FDBB
:10118000012621E0002384F8443029E0002384F87C
:1011900045302BE02046FFF7CFFD00F0E3FB09E0F0
:1011A0002046FFF7C9FD00F0DDFB2046FFF76AFD92
:1011B00000283DD1FFF7B6FBA56B002DBDD1019BEB
:1011C000002BD6D0002ED8D0FFF7CEFB00F030FB9E
:1011D000FFF7A8FB94F844305BB2B3F1FF3FD1D0E6
:1011E00094F845305BB2B3F1FF3FCFD0FFF7BCFBC3
:1011F00001A902A800F040FD0028D1D12046FFF748
:1012000041FD0028C6D0019904F1240000F0AEFC95
:101210002046FFF791FD00F0A5FB0028CAD1054B41
:101220004FF080521A60BFF34F8FBFF36F8FC1E74B
:1012300000208DE704ED00E070B584B0019140B965
:101240004FF0500383F31188BFF36F8FBFF34F8FBD
:10125000FEE70446036C43B14FF0500383F311885B
:10126000BFF36F8FBFF34F8FFEE700F04BFD50B918
:10127000019B5BB14FF0500383F31188BFF36F8F75
:10128000BFF34F8FFEE700252E4651E000252E4686
:101290004EE0013BA363236813B900F057FE606082
:1012A000236963B104F1100000F094FC38B1484B9D
:1012B0004FF080521A60BFF34F8FBFF36F8FFFF76D
:1012C00053FB0125284604B070BD45B14FF05003D3
:1012D00083F31188BFF36F8FBFF34F8FFEE7FFF7E4
:1012E00043FBEFE702A800F0BBFC01262AE0002345
:1012F00084F8443032E0002384F8453034E0FFF7CE
:1013000011FB606800F00EFD0546FFF72DFB3BE08A
:101310002046FFF711FD00F025FB09E02046FFF70E
:101320000BFD00F01FFB2046FFF7ACFC002840D16E
:10133000FFF7F8FAA36B002BABD1019B002BC4D0B5
:10134000002ECFD0FFF710FB00F072FAFFF7EAFA99
:1013500094F844305BB2B3F1FF3FC8D094F8453005
:101360005BB2B3F1FF3FC6D0FFF7FEFA01A902A8B6
:1013700000F082FC0028D1D12046FFF783FC002832
:10138000C6D02368002BBAD0019904F1240000F0E4
:10139000EDFB2046FFF7D0FC00F0E4FA0028C7D1AF
:1013A0000B4B4FF080521A60BFF34F8FBFF36F8F1C
:1013B000BEE7002D86D0FFF7B5FA2046FFF74AFCBE
:1013C0000146606800F062FDFFF7CEFA002579E77C
:1013D00004ED00E00023072B0CD8074A52F8332015
:1013E0000AB10133F7E7044A42F8331002EBC303B2
:1013F00058607047704700BF982D012070B50446B3
:101400000D461646FFF78EFA94F844305BB2B3F1FE
:10141000FF3F0DD094F845305BB2B3F1FF3F0BD0E6
:10142000FFF7A2FAA36B5BB12046FFF785FC70BD06
:10143000002384F84430EDE7002384F84530EFE7DB
:101440003246294604F1240000F0A8FBECE7000036
:10145000084B1B681B683BB1064B1B68DB68DB68ED
:101460005A68054B1A607047034B4FF0FF321A6001
:10147000704700BF482C01200C2D012010B50446F8
:10148000006BFFF7ABF92046FFF7A8F910BD2DE977
:10149000F04781460D4617469A46089EDDF824809F
:1014A0000A9C9200A521206B00F0ADFF236B07F191
:1014B0008042013A03EB820727F007070023092B3C
:1014C00007D8E95CE21882F83410EA5C0AB101330B
:1014D000F5E7002384F83D30052E00D90526E662A5
:1014E000A6640025E564201DFFF777FB04F11800D2
:1014F000FFF773FB2461C6F10606A66164622565E9
:1015000084F85450524649463846FFF7DDF92060CA
:10151000B8F1000F01D0C8F80040BDE8F087000026
:1015200038B5002407E004EB840293000E48184409
:10153000FFF748FB0134052CF5D90C4D2846FFF781
:1015400041FB0B4C2046FFF73DFB0A48FFF73AFBF7
:101550000948FFF737FB0948FFF734FB084B1D60CC
:10156000084B1C6038BD00BF502C0120E02C01202E
:10157000F42C0120142D0120402D01202C2D0120C0
:10158000482C01204C2C012010B50446FFF7CAF965
:10159000214A136801331360204B1B685BB1204B59
:1015A0001B686BB91D4B1B68DA6AE36A9A4207D85D
:1015B0001A4B1C6004E0194B1C601368012B27D0E8
:1015C000184A1368013313602364E36A01229A40C6
:1015D0001549086802430A6003EB83039A00211D42
:1015E00012481044FFF7FCFAFFF7BEF90C4B1B68DA
:1015F0006BB10A4B1B68DA6AE36A9A4207D20C4B5A
:101600004FF080521A60BFF34F8FBFF36F8F10BD42
:10161000FFF786FFD4E700BFC82C0120442C01202F
:10162000282D0120D82C0120DC2C0120502C012059
:1016300004ED00E00F4B1B68D3B110B5FFF772F952
:101640000D4BDB68DC68201DFFF7F0FA0B4A1368CE
:10165000013B1360074A1368013B1360FFF784F9ED
:101660002046FFF70BFF034B1B68002BE6D110BD94
:10167000704700BFCC2C0120402D0120C82C012038
:1016800070B504460E461D4B1D681D4B186804308E
:10169000FFF7CCFA50B91A4B1B68DA6A012303FA38
:1016A00002F218490B6823EA02030B60B4F1FF3F12
:1016B00013D02C44124B1B685C60A54216D8124B09
:1016C00018680F4B19680431FFF796FA0F4B1B6827
:1016D000A34212D90D4B1C600FE0002EE9D0084B3D
:1016E000196804310A48FFF77BFA06E0094B1868CD
:1016F000034B19680431FFF77FFA70BD542D0120A8
:10170000442C0120DC2C0120482C01200C2D012030
:101710002C2D01204C2C012008B501E0FEF790FD96
:10172000FFF788FF064B1B68012BF7D9054B4FF0DD
:1017300080521A60BFF34F8FBFF36F8FEEE700BF89
:10174000502C012004ED00E02DE9F04385B0074660
:101750008846154699469000FEF7B2FFF8B1064656
:101760005820FEF7ADFF0446A8B10663D4B10023AC
:10177000039302940D9B01930C9B00934B462A46C6
:1017800041463846FFF783FE2046FFF7FDFE012065
:1017900005B0BDE8F0833046FFF720F8E6E74FF0EC
:1017A000FF30F5E74FF0FF30F2E7000000B583B0FF
:1017B000194B019300230093822218491848FFF720
:1017C000C3FF012807D0012808D0B0F1FF3F1AD08D
:1017D00003B05DF804FB00F029FCF4E74FF0500380
:1017E00083F31188BFF36F8FBFF34F8F0D4B4FF013
:1017F000FF321A600C4B01221A600C4B00221A6057
:10180000FFF72AF9E4E74FF0500383F31188BFF3A1
:101810006F8FBFF34F8FFEE7082D0120542400087F
:10182000191700080C2D0120282D0120542D01200E
:10183000024A136801331360704700BFD42C0120A3
:10184000014B1868704700BF542D0120F8B53A4B82
:101850001B68002B64D1394B1D6801351D60C5B96B
:10186000374B1B681B6843B14FF0500383F311885B
:10187000BFF36F8FBFF34F8FFEE7314A1168314BD3
:10188000186810601960304A136801331360FFF75D
:10189000DFFD2E4B1B68AB4238D900242C4B1B6854
:1018A000DB6A03EB83039A002A4B9B58012B3CD93C
:1018B00001243AE00124224B1B681B6843B3204BF0
:1018C0001B68DB68DE6873689D4226D3371D384687
:1018D000FFF7ACF9B36A1BB106F11800FFF7A6F9E0
:1018E000F36A01229A401C49086802430A6003EB2C
:1018F00083039A00394617481044FFF771F9F26ADA
:10190000134B1B68DB6A9A42D4D2D4E70024D2E797
:101910000E4B4FF0FF321A60C0E70C4A1360BDE770
:101920000E4A13680133136000240D4B1B6803B18A
:1019300001242046F8BD00BFD42C0120542D0120E5
:10194000482C01204C2C0120102D01200C2D0120B1
:10195000442C0120502C0120DC2C0120D02C012013
:10196000582D012038B5334B1B6843B94FF0500355
:1019700083F31188BFF36F8FBFF34F8FFEE7FEF73E
:10198000D1FF2C4B1A68013A1A601B68002B4DD10D
:10199000294B1B6823B90024FEF7E6FF204638BD1B
:1019A0000024264B1B681BB3244BDB68DC6804F166
:1019B0001800FFF73BF9251D2846FFF737F9E36AC2
:1019C00001229A401E49086802430A6003EB830320
:1019D0009A0029461B481044FFF702F9E26A1A4BA5
:1019E0001B68DB6A9A42DCD3184B01221A60D8E7E5
:1019F0000CB1FFF72DFD164B1C6854B1FFF726FF05
:101A000010B1124B01221A60013CF7D1104B002299
:101A10001A600E4B1B685BB10E4B4FF080521A6080
:101A2000BFF34F8FBFF36F8F0124B5E70024B3E7F7
:101A30000024B1E7D42C0120C82C0120142D012052
:101A4000DC2C0120502C0120442C0120582D012099
:101A5000D02C012004ED00E010B5A8B104460F4BD6
:101A60001B6843B14FF0500383F31188BFF36F8FAE
:101A7000BFF34F8FFEE7FFF7DBFE00212046FFF7A5
:101A8000FFFDFFF76FFF38B9054B4FF080521A602A
:101A9000BFF34F8FBFF36F8F10BD00BFD42C012059
:101AA00004ED00E02C4B1B681BB12C4B01221A608B
:101AB000704710B5294B00221A60294B1B681B6B1D
:101AC0001A68B2F1A53F03D15A68B2F1A53F1BD005
:101AD000234B186819683431FEF7B3FB214B1B68A0
:101AE000B3FA83F3DBB2C3F11F0303EB83018A0074
:101AF0001D498A588AB94FF0500383F31188BFF308
:101B00006F8FBFF34F8FFEE79A68B2F1A53FDFD129
:101B1000DB68B3F1A53FDBD1E0E713489A00D418A6
:101B2000A10001444C6864684C601A44910008317B
:101B30000844844209D003EB83039A000A4B134400
:101B40005B68DA68064B1A6010BD616806481422AB
:101B500002FB03025160EEE7D42C0120582D012036
:101B6000442C0120DC2C0120502C012040B94FF0E6
:101B7000500383F31188BFF36F8FBFF34F8FFEE7DE
:101B800010B50C46044B19681831FFF735F80121E0
:101B90002046FFF775FD10BD442C012038B540B933
:101BA0004FF0500383F31188BFF36F8FBFF34F8F54
:101BB000FEE70C461546064A11681831FFF710F883
:101BC0000DB14FF0FF3429462046FFF759FD38BDCF
:101BD000442C012038B5C368DC6844B94FF0500389
:101BE00083F31188BFF36F8FBFF34F8FFEE704F1CC
:101BF00018052846FFF71AF8134B1B68E3B9251D93
:101C00002846FFF713F8E36A01229A400F49086853
:101C100002430A6003EB83039A0029460C481044F0
:101C2000FEF7DEFFE26A0B4B1B68DB6A9A4208D9BB
:101C30000120094B186038BD29460848FEF7D0FF3F
:101C4000F0E70020F7E700BFD42C0120DC2C0120B6
:101C5000502C0120442C0120582D0120142D01204E
:101C6000034B1B680360034B1B684360704700BF56
:101C7000102D0120542D0120F8B550B1054689B929
:101C80004FF0500383F31188BFF36F8FBFF34F8F73
:101C9000FEE74FF0500383F31188BFF36F8FBFF35C
:101CA0004F8FFEE70C46FEF73DFE114B1968686842
:101CB0000A1A2368B3F1FF3F16D02F680D4E36681D
:101CC000B74201D0884211D9934203D80023236040
:101CD000012405E09B1A23602846FFF7C1FF00247A
:101CE000FEF742FE2046F8BD0024F9E70124F7E79D
:101CF000542D0120102D0120014B01221A60704744
:101D0000582D0120054B1B6833B1054B1B680BB1E7
:101D1000002070470220704701207047282D0120C5
:101D2000D42C0120002850D038B50446C26A284976
:101D30000968C96A8A423ED28169002905DB2449C3
:101D40000968C96AC1F106018161606902EB82021A
:101D50009100204A0A44904205D01D4A1268D26A76
:101D6000E262012038BD251D2846FEF75FFF68B9F5
:101D7000E36A03EB83018A0016498A5832B90122CB
:101D80009A4015490B6823EA02030B60104B1B684D
:101D9000DB6AE362012404FA03F20F490868024394
:101DA0000A6003EB83039A0029460A481044FEF7B1
:101DB00017FF2046D6E7826C054B1B68DB6A9A4208
:101DC00001D20120CEE70020CCE70020704700BF01
:101DD000442C0120502C0120DC2C0120002849D06B
:101DE00038B50446264A1268824208D04FF05003A4
:101DF00083F31188BFF36F8FBFF34F8FFEE7C26C81
:101E000042B94FF0500383F31188BFF36F8FBFF3D4
:101E10004F8FFEE7013AC264C06AA16C88422BD0A2
:101E200062BB251D2846FEF701FF70B9E26A142344
:101E300003FB02F31349CB583BB9012303FA02F227
:101E400011490B6823EA02030B60A36CE362C3F140
:101E50000602A261012404FA03F20B490868024356
:101E60000A602946074A142000FB0320FEF7B8FE4B
:101E7000204638BD002070470020FAE70020F8E730
:101E8000442C0120502C0120DC2C0120002855D0AE
:101E900038B50346C06C40B94FF0500383F3118846
:101EA000BFF36F8FBFF34F8FFEE79A6C8A4200D269
:101EB0000A46D96A914201D0012800D038BD204895
:101EC0000068984208D14FF0500383F31188BFF3A4
:101ED0006F8FBFF34F8FFEE7DA629869002802DB4D
:101EE000C2F106029A615A691648142404FB0101E2
:101EF0008A42E3D11C461D1D2846FEF797FE70B9A5
:101F0000E26A142303FB02F30E49CB583BB90123C9
:101F100003FA02F20C490B6823EA02030B60E26A3F
:101F2000012393400849086803430B602946054B89
:101F3000142000FB0230FEF753FEBFE7704700BFDE
:101F4000442C0120502C0120DC2C0120054B1B6867
:101F500023B1044B1A68D36C0133D364014B186866
:101F6000704700BF442C0120064B1A681368B3FA6F
:101F700083F35B09036013B9D368186870470020C6
:101F8000704700BF5C2D012008B54160006191429F
:101F90000CD8D21A83699A4201D3012010E0011DA6
:101FA000094B1868FEF728FE002009E09A4201D28A
:101FB000994206D2011D054B1868FEF71DFE002050
:101FC00008BD0120FCE700BF602D01205C2D012031
:101FD00038B5FEF7A7FC0F4B1B6813B1FEF7C4FC26
:101FE00038BD0D4D2846FEF7EDFD0C4C2046FEF7A2
:101FF000E9FD0B4B1D600B4B1C6000220C210A20DD
:10200000FEF725FF034B18600028E7D00649FFF7CD
:10201000E1F9E3E7902D0120642D0120782D0120C6
:102020005C2D0120602D01205C24000800B583B0E8
:10203000FFF7CEFF0D4B1B685BB10D4B01930223E5
:10204000009300234FF482720A490B48FFF77CFB90
:1020500040B94FF0500383F31188BFF36F8FBFF384
:102060004F8FFEE703B05DF804FB00BF902D012009
:10207000942D01206424000841230008C8B130B524
:1020800085B015460446174A106840B31A460191B8
:102090000295039405291DDCFFF734FE022811D0B8
:1020A00000231A4601A90F480068FEF7F5FE05B0A7
:1020B00030BD4FF0500383F31188BFF36F8FBFF330
:1020C0004F8FFEE70023089A01A906480068FEF733
:1020D000E3FEECE7002301A9FEF79CFFE7E7002001
:1020E000E5E700BF902D012070B582B01A4B1B6848
:1020F0001A6852B3DB681E68DC68251D2846FEF7A7
:1021000095FD636A20469847E369012BEED1A369E8
:1021100033449E4207D26360246129460E4B1868FF
:10212000FEF76AFDE2E7002100910B4632462046A9
:10213000FFF7A4FF0028D9D14FF0500383F3118893
:10214000BFF36F8FBFF34F8FFEE7044A1068024959
:102150000860136002B070BD5C2D0120602D01206D
:1021600038B50546FFF76CFB0446074B1B688342F6
:1021700005D800232B60044B1C60204638BDFFF7B8
:10218000B3FF01232B60F6E78C2D012070B582B0E0
:1021900005460E46144B1B68DB68DC68201DFEF705
:1021A00045FDE369012B04D0636A2046984702B0DD
:1021B00070BDA1692B46324629442046FFF7E4FE54
:1021C0000028F1D0002100910B462A462046FFF757
:1021D00055FF0028E8D14FF0500383F31188BFF377
:1021E0006F8FBFF34F8FFEE75C2D012070B582B07B
:1021F00006460C46FFF71CFB01A8FFF7B1FF019B49
:102200001BBB05460CB9B04218D22CB1114B1B6850
:102210001C68B4FA84F464092246711B0E4B1868DA
:10222000FFF7ECF8FFF79EFB88B90C4B4FF080529C
:102230001A60BFF34F8FBFF36F8F08E0FFF792FB79
:1022400029463046FFF7A2FF01E0FFF78BFB02B003
:1022500070BD00BF602D0120902D012004ED00E035
:1022600030B587B0002203A9344B1868FEF738FF59
:10227000002860D0039B002BF4DB059C636913B13D
:10228000201DFEF7D3FC02A8FFF76AFF039B092B72
:10229000E8D801A252F823F0C1220008C1220008A8
:1022A000C122000865220008092300082F23000826
:1022B000C1220008C1220008652200080923000885
:1022C0000499A5690B46024629442046FFF75CFEA7
:1022D0000028C7D0636A20469847E369012BC1D123
:1022E000A269002100910B46049802442046FFF7A2
:1022F000C5FE0028B6D14FF0500383F31188BFF319
:102300006F8FBFF34F8FFEE70499A16131B1034690
:10231000024601442046FFF737FEA3E74FF0500383
:1023200083F31188BFF36F8FBFF34F8FFEE7204613
:10233000FEF754FA96E707B030BD00BF902D01209C
:1023400000B583B001A8FFF70FFE0199FFF74EFF1C
:10235000FFF786FFF6E70000DFF830D0002103E04A
:102360000B4B5B58435004310A480B4B42189A42BE
:10237000F6D30A4A02E0002342F8043B084B9A4293
:10238000F9D300F011F8FDF79FFF7047000002201D
:102390007424000800000020040000200400002035
:1023A000D82D0120FEE7000070B50D4E0D4CA41B8A
:1023B000A4100025A54209D10B4E0C4C00F02CF8BE
:1023C000A41BA4100025A54205D170BD56F82530E8
:1023D00098470135EEE756F8253098470135F2E782
:1023E0006C2400086C2400086C2400087024000889
:1023F00010B5431E0A44914200D110BD11F8014BA3
:1024000003F8014FF7E702440346934200D17047B7
:1024100003F8011BF9E70000F8B500BFF8BC08BCE1
:102420009E467047F8B500BFF8BC08BC9E46704792
:1024300069646C655F7461736B31000069646C651D
:102440005F7461736B32000069646C655F74617303
:102450006B33000049444C4500000000546D72513C
:0C24600000000000546D722053766300F1
:04246C00C50100089E
:04247000A1010008BE
:04247400AAAAAAAABC
:040000050800235973
:00000001FF
